:020000040000FA
:1000000038140020D90000007B0D0000410D0000D5
:1000100000000000000000000000000000000000E0
:10002000000000000000000000000000F5100000CB
:100030000000000000000000ED0D000001140000B1
:1000400000000000000000000000000000000000B0
:1000500000000000EB000000E1250000EB000000C4
:10006000EB0000001D140000EB000000EB0000009E
:1000700000000000EB000000EB000000EB000000BF
:10008000EB000000EB000000EB000000EB000000C4
:10009000EB000000EB000000EB000000EB000000B4
:1000A000EB000000EB000000EB000000EB000000A4
:1000B00000000000EB000000EB000000EB0000007F
:1000C0000448854600F054F800480047DD2A000047
:1000D000C046C04638140020044880470448004702
:1000E000FEE7FEE7FEE7FEE7FEE7FEE70514000099
:1000F000C100000030B50B4601460020202201243B
:1001000009E00D46D5409D4205D31D469540491B4B
:100110002546954040191546521E002DF1DC30BD94
:1001200070B500242546002801DA01244042002948
:1001300001DA01254942FFF7DDFFAC4200D0404221
:10014000002C00D0494270BD0321001D401E0378E1
:1001500012021A43491EF9D510467047034603227E
:100160000870000A491C521EFAD518467047000054
:10017000064C0125064E05E0E36807CC2B430C3CFA
:1001800098471034B442F7D3FFF79EFF602B00006E
:10019000802B00000348407C0421884301494874B7
:1001A00070470000000006400348407C802108435F
:1001B000014948747047000000000640002806D13D
:1001C0000649497C40221143044A517405E0034921
:1001D000097D49084900014A117570470000064031
:1001E0000348007D802108430149087570470000DD
:1001F000000006400348007D04218843014908753A
:1002000070470000000006400348007D40218843FD
:100210000149087570470000000006400348407C13
:10022000402108430149487470470000000006401F
:100230000348807C08218843014988747047000086
:10024000000006400348407C10218843014948745F
:1002500070470000000006400348407C202188438E
:100260000149487470470000000006400348407C84
:10027000042188430149487470470000000006408B
:1002800070B503469D00054EAC19002002E02578AC
:100290000D54401C9042FAD370BD0000200006406F
:1002A00070B503469D00054EAC19002002E00D5CC0
:1002B0002570401C9042FAD370BD0000200006401B
:1002C00001214170704770B505460C4680202040E2
:1002D000802805D100221146104600F089FF04E075
:1002E00000221146104600F01FFF002070BD70B5BF
:1002F00006460C466006400E002800D170BD8020E6
:10030000204080280DD16006400E2421484331460C
:1003100018314518FFF78CFFFFF794FF0020687035
:100320000AE0242060433146A8314518FFF758FF02
:10033000FFF76AFF002068700020DFE7FFB583B099
:1003400006460D46174680202840802807D16806BB
:10035000400E2421484331461831441806E068060F
:10036000400E242148433146A83144182146083123
:100370003846FFF7F3FE0698A0706806400E20701E
:100380002078002808D121461C31FFF7E7FE2146DE
:1003900018310020FFF7E2FE21460C310020FFF764
:1003A000DDFE214610310020FFF7D8FE2146143132
:1003B0000020FFF7D3FE00206070207800F0AEFF31
:1003C00080202840002837D020460830FFF7BCFEA8
:1003D00080B20290201DFFF7B7FE80B20190E27854
:1003E000029900F005FF2078002821D0204608302F
:1003F000FFF7AAFEC0B2029000F046FF227801216A
:100400009140C8B200F098FF012000F043FFA078AF
:1004100000F05CFF00F0E8FB002806D000F04EFB87
:10042000E078002801D000F049FBFFF7F7FE37E045
:10043000012000F081FF33E020460830FFF784FE02
:1004400080B20290201DFFF77FFE80B20190E2781B
:10045000029900F069FE207800281ED0204608305E
:10046000FFF772FEC0B2029000F0A0FE22780121D8
:100470009140C8B200F058FFFFF7B2FEA07800F03C
:10048000A5FE00F099FB00280AD000F00DFBE078F3
:10049000002805D000F008FB02E0012000F04CFF2E
:1004A000002007B0F0BDFFB581B005460E46002024
:1004B00000907006400E242148432946A831441874
:1004C00021460C310398FFF749FE2146103104986C
:1004D000FFF744FE214614310020FFF73FFE20467F
:1004E0001030FFF731FE074620460830FFF72CFE9C
:1004F000874210D920460830FFF726FE009020469C
:100500001030FFF721FE0099471A21461031384676
:10051000FFF724FE09E020461030FFF715FE00909B
:10052000214610310020FFF719FE002005B0F0BD74
:1005300070B505460C46EC70204600F0E7FE70BD35
:1005400070B506460C4680202040802807D1600602
:10055000400E2421484331461831451804E0242038
:1005600060433146A83145186006400E00F0D6FEC3
:10057000012068702878002802D100F0CBFD08E047
:1005800080202040002802D000F096FE01E000F01C
:1005900013FE002070BDFFB581B005460E46002059
:1005A00000907006400E2421484329461831441813
:1005B000207800F0B3FE21460C310398FFF7CEFD02
:1005C000214610310498FFF7C9FD20461030FFF78F
:1005D000BBFD074620460830FFF7B6FD874210D323
:1005E00020460830FFF7B0FD009020461030FFF79E
:1005F000ABFD0099471A214610313846FFF7AEFD92
:1006000009E020461030FFF79FFD00902146103191
:100610000020FFF7A3FD20460C30FFF795FD0746AD
:1006200020783946009AFFF73BFE207800F0D6FE8E
:100630002078002816D120460830FFF785FD009964
:1006400088420FD900F058FD21461C310020FFF7E9
:1006500085FD214618310020FFF780FD291D00206F
:10066000FFF77CFD214620310120FFF777FD204672
:100670000C30FFF769FD0099471821460C313846C8
:10068000FFF76CFD002005B0F0BD000010B504467A
:10069000211D0020FFF762FD012060700020E07046
:1006A00021460831FFF75AFD21460C310120FFF7A2
:1006B00055FD002000F04EFE00F0AEFA00F0A0FA6A
:1006C00000F0A4FA2F2003490860087800F03CFEEF
:1006D00010BD0000B4000020FFB581B006460C46F6
:1006E000174680202040802807D16006400E242134
:1006F000484331461831451806E06006400E242173
:1007000048433146A8314518EF70291D0498FFF77A
:1007100025FD002005B0F0BD70B504460D46E80784
:10072000C00F00281BD00E4C00F02CFA06462146C4
:100730001431FFF713FD20461430FFF705FD064680
:100740003246214698390020FFF79AFD0020FFF736
:1007500035FD0448006881682046A838884770BD88
:100760008C010020D4000020F8B500F005FA054601
:10077000E807C00F002835D01B4C00F003FA0646EE
:1007800021461431FFF7EAFC20461430FFF7DCFC69
:1007900000281DD020461430FFF7D6FC0646204620
:1007A0000C30FFF7D1FC0746324639460020FFF7F0
:1007B00067FD20460C30FFF7C7FC07462046143083
:1007C000FFF7C2FC3E1821460C313046FFF7C6FC4D
:1007D0000020FFF7F3FC054800680021026802488A
:1007E000A8389047F8BD00008C010020D4000020FC
:1007F00010B503480068002142680248904710BDC8
:10080000D4000020E4000020F3B587B0A34D079882
:1008100005900898049000BF0598C007C00F0028F5
:1008200043D0002000F07AFD9C4CA83400F0A4F9DD
:10083000074604203840002806D0FFF7ABFC002014
:100840006070291DFFF78AFC10203840002814D062
:10085000FFF7AAFC687802280BD1914800680028AD
:1008600007D08F4801788D48FFF762FE00208C4941
:100870000860291D0020FFF771FC281DFFF764FCAC
:10088000002803D139462046FFF746FF281DFFF711
:100890005BFC022801D1FFF7ABFF281DFFF754FCDA
:1008A000032801D1FFF760FF00BFFE210498084034
:1008B00000287AD001260FE0049840100490049894
:1008C000C007C00F002805D0F0B20690069800F0CF
:1008D00025FD03E0701C86B2082EEDDB00BF24214D
:1008E000069848436D49A83144182146203100201C
:1008F000FFF734FC00F04CF90290402102980840C8
:10090000002805D0FFF780FCFFF76AFC002060702C
:10091000042102980840002801D0FFF76BFC0298E0
:10092000C007C00F002851D000F038F90390039899
:1009300000281FD020460C30FFF706FC074639463A
:10094000039A0698FFF79CFC20461430FFF7FCFB47
:1009500003994718214614313846FFF7FFFB20461C
:100960000C30FFF7F1FB0399471821460C3138464C
:10097000FFF7F4FB0698FFF721FC20461030FFF745
:10098000E3FB00280AD020461430FFF7DDFB0746C2
:1009900020460830FFF7D8FB874207D2414800685D
:1009A00002683E480699904710E010E0204610305B
:1009B000FFF7CAFB87B220460C30FFF7C5FB01905A
:1009C00021783B4602463548FFF76DFD00BFFE210A
:1009D00005980840002853D000F0FAF8074600F0C8
:1009E000FDF8029001260FE005984010059005984B
:1009F000C007C00F002805D0F0B20690069800F09E
:100A00008DFC03E0701C86B2082EEDDB00BF2421B4
:100A100006984843214918314418214620310020C6
:100A2000FFF79CFB20203840002805D0FFF714FC7E
:100A3000FFF7F4FB0020607004203840002801D04C
:100A4000FFF714FC20461030FFF77EFB002806D18C
:100A50001448006842681148069990470FE0204604
:100A60001030FFF771FB019020460C30FFF76CFB54
:100A70000090217802460948019BFFF78CFD00BFDA
:100A800000F0C4F80746059000F0BAF80743049058
:100A9000002F00D0C0E609B0F0BD0000E400002047
:100AA000D8000020D40000200348007D1021084316
:100AB0000149087570470000000006400348407C6B
:100AC00008210843014948747047000000000640AF
:100AD00030B5C4000D686419A400244D63191A6868
:100AE0000C79002C01D1202235E00C79042C15D191
:100AF00092089200032808D9041FE4000D786519B4
:100B00000124AC401A4DAC6025E00446E4000D78A9
:100B100065190124AC40174DAC601CE00C79052C24
:100B200015D192089200032808D9041FE4000D781B
:100B300065190124AC400E4D6C600CE00446E400E5
:100B40000D7865190124AC400A4D6C6003E09208F1
:100B500092000C7922434C79640222438C79E400A0
:100B60002243802422431A6030BD00000010004060
:100B700000800340008002400148407C7047000034
:100B8000000006400148807D7047000000000640DC
:100B90000148007D70470000000006400548C07D08
:100BA0004107490F0802034A927D10430146C8B22B
:100BB00070470000000006400448007D0221084004
:100BC000002801D0012070470020FCE7000006400B
:100BD0000148407C70470000000006400148807CCE
:100BE00070470000000006400448407C0221084095
:100BF000002801D0012070470020FCE700000640DB
:100C000001480079704700000000064001488078E4
:100C100070470000000006400148807970470000DE
:100C20000000064001484078704700000000064080
:100C300070B50A48846BC56B084840300668A41933
:100C4000002C0AD008220649204600F07BF8042236
:100C500003491031284600F075F870BD00B000401F
:100C60001E00002070B506462F480078012859D094
:100C70002E4800680121C902884202D100202B4978
:100C800008602A4800682A490968884203D1002080
:100C90002549087070BD25480068254909688842C3
:100CA00007D9224800680121C902081A21490860B1
:100CB00006E01F4800681D490968401A1D49086080
:100CC0001C48006840280ED91848008885B2402486
:100CD00016480068403015490860164800684038DA
:100CE0001449086014E01148008885B21148008852
:100CF00084B20E4800680F49096840180B49086023
:100D000000200C490860402C02D101200A490860EB
:100D100001200549087009484219234681213046BF
:100D2000FFF739FC00BFB5E77C000020740000200D
:100D300070000020780000206C000020F7020020E6
:100D400000BFFEE730B50B46002100BF12E0040FE4
:100D50000A2C04D2040F30344D005C5503E0040F1C
:100D600037344D005C55000100254C00641C1D55B6
:100D70004C1CE1B29142EADB30BD70470021827821
:100D8000002A27D0184A03231B02D21803789B108D
:100D90009B00D15802789207D30EFF229A400B464F
:100DA0009343194642789207120E03789B07DB0E95
:100DB0009A4011430C4A03231B02D21803789B105C
:100DC0009B00D1500278D306DB0E01229A40064BDD
:100DD0001A6007E00278D306DB0E01229A40024B2C
:100DE00080331A607047000000E100E070470000A7
:100DF00000290CD0012803D0022801D0042802D1F8
:100E0000094A50610FE00122920750610BE001286E
:100E100003D0022801D0042802D1034A906102E0E5
:100E200001229207906170470003004000290CD016
:100E3000012803D0022801D0042802D1094A906079
:100E40000FE00122920790600BE0012803D00228F6
:100E500001D0042802D1034A506002E00122920727
:100E60005060704700030040F0B587B00446002092
:100E7000069091488069C0B201908F48806AC0B2E4
:100E800000908D48006BC6B201208007006BC00641
:100E9000C00E001D894948430590894800680490A8
:100EA0008548403001680498FFF724F90390802CAE
:100EB00005D08448844202D0801C844202D1039829
:100EC0000690F7E0902C01D0942C2ED101208007C1
:100ED00020180078002801D107B0F0BD0198002843
:100EE00002D00198022808D101208007201801783B
:100EF0007248FFF715F9074615E00198012807D158
:100F00008007201801780598FFF7F4F807460AE0F3
:100F10000198032807D101208007201801786A482A
:100F2000FFF7FEF807460697C4E0A82C2BD16248CD
:100F30004030806A002800D1CEE70098002802D017
:100F40000098022807D15C484030816A5B48FFF76F
:100F5000D1F8029014E00098012807D1564840309B
:100F6000816A0598FFF7C6F8029009E00098032807
:100F700006D151484030816A5348FFF7BBF80290D0
:100F80000298069096E0AC2C3AD14B484030C06AAB
:100F9000002800D1A0E7002E01D0032E07D146483B
:100FA0004030C16A4548FFF7A5F8054626E0012E06
:100FB00007D141484030C16A0598FFF79BF80546C4
:100FC0001CE0022E07D13C484030C16A3E48FFF782
:100FD00091F8054612E0042E07D137484030C16A27
:100FE000C013FFF787F8054608E0082E06D13248FF
:100FF0004030C16A3548FFF77DF80546069559E04F
:10100000B02C0DD12C484030006B002800D163E794
:1010100029484030016B0598FFF76CF8069049E0CD
:10102000A42C01D0D02C0FD10120800720180078EB
:10103000002800D150E7012080072018017805988A
:10104000FFF758F8069035E0A02C16D1204800692B
:1010500004210840002802D0039806902AE0164890
:101060004030006A002800D136E713484030016A5A
:101070000398FFF73FF806901CE0D82C0DD10E48DE
:1010800080308069002800D126E70B4880308169D4
:101090000598FFF72FF806900CE00A48401E84429E
:1010A00002D10948069005E00648801D844201D11E
:1010B0000248069006980FE740000040001BB7006A
:1010C000E00000200200001010270000006CDC028D
:1010D00000E000E0012292078218116070470000D2
:1010E000034988610021024AD1610121D161704721
:1010F00040000040704700000548407C082108403F
:10110000002804D10248407C0843014948747047D4
:10111000000006400348407C2021084301494874F0
:10112000704700000000064070B503460C46802C56
:101130001FD008DC082C14D0102C14D0202C14D074
:10114000402C1ED113E0E51FF93D002D13D0FF3DCB
:10115000013D002D11D0FF3DFF3D023D002D10D17E
:101160000DE000200FE020200DE040200BE060208B
:1011700009E0802007E0A02005E0C02003E0E02097
:1011800001E0602000BF00BFD910074EB1770D0508
:10119000290F002A01D0102529430D460543294671
:1011A000014EF17770BD0000000006400149C8748F
:1011B00070470000000006400348007D20210843DE
:1011C000014908757047000000000640012806D15B
:1011D0000649497D40221143044A517505E00349FF
:1011E000497D40229143014A5175704700000640F5
:1011F00070B503460C46802C1FD008DC082C14D098
:10120000102C14D0202C14D0402C1ED113E0E51F3C
:10121000F93D002D13D0FF3D013D002D11D0FF3DC4
:10122000FF3D023D002D10D10DE000200FE02020F9
:101230000DE040200BE0602009E0802007E0A020C6
:1012400005E0C02003E0E02001E0602000BF00BF17
:10125000D910074E31770D05290F002A01D010252E
:1012600029430D4605432946014E717770BD0000A4
:10127000000006400348807C082108430149887427
:1012800070470000000006400149087470470000E4
:1012900000000640002806D00649897C2022114320
:1012A000044A917405E00349897C20229143014A54
:1012B00091747047000006400348407C10210843A9
:1012C00001494874704700000000064000B502461E
:1012D000012A06D10C48807C402108430A498874C1
:1012E00005E00948807C4021884307498874022A28
:1012F00001D0012A02D1FEF79BFF03E0032A01D1AE
:10130000FFF7B8FF00BD0000000006404106490E8F
:10131000014A1170704700000000064001498873BF
:1013200070470000000006400249497A0143014A23
:1013300051727047000006400249C9790143014AD1
:10134000D1717047000006400149C8727047000023
:101350000000064001494870704700000000064048
:1013600010B500F001F810BD10B5002481208000F8
:1013700001074861401014490860012013490860C2
:1013800013488068882188431149886011484905BD
:10139000086306E02046641C0121C903884200D38B
:1013A00004E001208007406B0128F3D100BF0A4808
:1013B00001F08AFB0120054940390861002048619D
:1013C0000120486110BD000000B0004080000040D6
:1013D0000002004003000080B80B0000002806D186
:1013E0000649497C02221143044A517405E003492D
:1013F000497C01221143014A5174704700000640A4
:101400007047000010B5034803490863FFF7A8FFC1
:1014100010BD0000058000000001004010B5002450
:101420000F49480200F080F8002817D00C49480204
:1014300000F01CF807E00B4800F04CF9C2B220465F
:10144000641C09490A5401210906064800F05CF8A9
:101450000028F0D02146044801F040FA10BD0000F9
:10146000100020000020004054020020012212063B
:10147000914202D05200914206D1C022125A0B0C66
:101480001A43C0231A5219E00D4A914208D1FF2293
:101490001132125810239A43FF2311331A500DE0D2
:1014A00001225205914208D1FF22213212580B46E7
:1014B0009A43FF2321331A5000E0816470470000F3
:1014C00010000040002902D00122426201E0012206
:1014D0008262704710B504460A48844208D101214F
:1014E0001020FFF7A3FC00211020FFF79FFC07E06E
:1014F00001212020FFF79AFC00212020FFF796FC15
:1015000010BD0000002000400246002001231B0700
:10151000994200D100BF136E0B40002B01D0012077
:1015200000E000207047000030B502460020002394
:10153000244CA14208D1FF241134A45808252C4082
:10154000002C14D0012312E001246405A14208D12B
:10155000FF242134A4584D102C40002C07D0012327
:1015600005E0146C0D042C40002C00D00123154C18
:10157000A1420CD1002B08D0FF241134A45810250F
:101580002C40002C01D001201BE0002019E0012498
:101590006405A1420CD1002B08D0FF242134A458AB
:1015A0000D462C40002C01D001200AE0002008E06C
:1015B000002B05D0146C0C40002C01D0012000E061
:1015C000002030BD1000004010B5002A19D00829B5
:1015D00008D1FF2311331B5808242343FF2411345F
:1015E000235027E0144B994209D1FF2321331B5884
:1015F000012424052343FF24213423501AE04164AD
:1016000018E0082908D1FF2311331B580824A343ED
:10161000FF24113423500DE0074B994209D1FF23D9
:1016200021331B5801242405A343FF2421342350D4
:1016300000E0816410BD000000001080FEB505468A
:101640000C460026002002902E6B1E4806401E48C5
:10165000854204D19020FFF707FC029006E01B486A
:10166000854203D19420FFF7FFFB0290E168029AC4
:101670009000FEF73FFD0746B806810C0191384601
:101680003F21C94308408009000400900199009857
:1016900008432169084361690843A1690843A168B7
:1016A000084306432E632E6A094806406168206895
:1016B0000843E1690843216A0843616A0843064315
:1016C0002E62FEBD01C00000002000400028004046
:1016D000FF3488FF0146086D70470165704701219E
:1016E000490401600901416010218160E121490242
:1016F000C160602101610021416181610321090212
:10170000C16100210162416270470000F8B50646E0
:101710000F4626480078012846D125480068002851
:1017200011D124480068012809D10020214908600E
:1017300000231A4681213046FEF72DFF34E00020B9
:101740001A49087030E01A48006840280ED91A4833
:10175000008884B240251848006840301649086067
:101760001348006840381249086016E012480088A3
:1017700084B20F48008885B20F4800680C49096898
:1017800040180D49086000200949086008460068B3
:10179000402802D1012007490860084802192B4659
:1017A00081213046FEF7F7FE0020F8BD7C000020C6
:1017B000780000206C00002074000020F702002058
:1017C00070B504460D46242169432246A832891883
:1017D00008461430FEF7B8FC86B206483146026966
:1017E000054890474023044A01212046FEF75BFE4E
:1017F000002070BD54000020B702002070B50446E0
:101800000D4681212046FEF75EFD01212046FEF7B0
:101810005AFD82212046FEF756FD0249486880475E
:10182000002070BD5400002010B504460848006830
:10183000FF280AD007488368074808490268044817
:1018400000689847FF2002490860002010BD000092
:10185000800000205400002084000020F70A0020AF
:101860000246432008800148704700001C2B0000FE
:1018700070B504460D468023002281212046FEF7E4
:101880002BFFFF230133002282212046FEF724FF95
:10189000C023002201212046FEF71EFF0223402222
:1018A00081212046FEF74AFD0223402201212046E5
:1018B000FEF744FD0323402282212046FEF73EFD31
:1018C0000549086880474023044A01212046FEF765
:1018D000EAFD002070BD000054000020B702002087
:1018E00010B50446074801680068401C054A1060AE
:1018F000052905D10020114608602046FFF7B2F9FE
:10190000002010BDB0000020F8B505460C463A2670
:10191000324F20786021084000282FD0202827D17E
:10192000E08800281CD020788021084000280BD0B7
:10193000E28860782A498B682A499847E2882949D1
:10194000284600F0C7F811E0607827490860E08871
:1019500026490860E2882349284600F0A1F805E0FE
:1019600060781F4900228B68114698470020F8BD17
:101970002146284600F08CF80220F8E76078062817
:1019800004D00A2815D00B2825D118E06088001251
:10199000212808D1114F0937E0883A2801DD3A2083
:1019A00000E0E088064632463946284600F092F8C4
:1019B00011E001220E49284600F08CF80BE0A078D7
:1019C000012803DAA0780A49086003E02146284686
:1019D00000F05EF800BF00BF0020C8E7252B000024
:1019E00054000020F70A002080000020840000201E
:1019F0006800002070B504460D462046FF3039309F
:101A0000FEF7A2FB294646682046B047002070BD7D
:101A100070B504460D466078022802D0032816D11E
:101A200000E000BF6888012810D12146083100205D
:101A3000FEF794FB2046FF303930FEF785FB294640
:101A400086682046B047204600F05EF804E029464C
:101A5000204600F01DF800BF00BF70BDF8B5064677
:101A60000C46154600272B46224600213046FEF73D
:101A70001AFD3846F8BDF8B506460C46154600274F
:101A80002B46224600213046FEF785FD3846F8BD3C
:101A900070B504460D4600212046FEF751FD70BD8D
:101AA000F8B504460D46164600272146C03130469B
:101AB000FEF754FB2146B4312846FEF74FFB214682
:101AC000B8313046FEF74AFB211D0320FEF746FBE6
:101AD0003846F8BDF8B504460D461646002721469F
:101AE00030313046FEF73AFB214624312846FEF7D6
:101AF00035FB214628313046FEF730FB211D022000
:101B0000FEF72CFB3846F8BD70B505460024FFF7FC
:101B1000F3FA204670BDF8B505460E46002E5BD19F
:101B20002C461834281DFEF70FFB022868D12046EA
:101B30001030FEF709FB00280FD020461030FEF7CA
:101B400003FB87B220460C30FEF7FEFA3A46014608
:101B500000902846FFF78FFF52E020460830FEF73E
:101B6000F3FA074620461830FEF7EEFA39460090A1
:101B7000FEF7C0FA00291BD120461830FEF7E4FA20
:101B8000074620460830FEF7DFFA874210D320468A
:101B90001830FEF7D9FA074620461C30FEF7D4FA73
:101BA000874205D2002211462846FFF764FF27E04E
:101BB0002846FF303930FEF7C7FAC06800281FD02A
:101BC000687803281CD12846FF303930FEF7BCFA6C
:101BD000C7682846B84713E02846FF303930FEF77B
:101BE000B3FA406900280BD06878032808D128464A
:101BF000FF303930FEF7A8FA314647692846B84722
:101C00000020F8BDF8B504460E46002E3ED125460C
:101C1000A835201DFEF798FA03284BD1284610302E
:101C2000FEF792FA074628460830FEF78DFA8742FB
:101C30000FD928461030FEF787FA87B228460C30B5
:101C4000FEF782FA3A46014600902046FFF706FF6B
:101C500030E0294610310020FEF780FA2046FF30A0
:101C60003930FEF771FA006900280AD0607803283D
:101C700007D12046FF303930FEF766FA0769204663
:101C8000B847211D0020FEF769FA13E02046FF3017
:101C90003930FEF759FA806900280BD060780328A4
:101CA00008D12046FF303930FEF74EFA31468769B9
:101CB0002046B8470020F8BD01460020704738B5DF
:101CC00004460D4600200090E888012804D02946EB
:101CD0002046FFF7DDFE17E06078022802D00328D7
:101CE0000CD105E0012269462046FFF7F3FE0AE029
:101CF000012221462046FFF7EDFE04E0294620465A
:101D0000FFF7C6FE00BF00BF38BDFEB504460E4655
:101D100070880012030000F0B3FE08B4051C34B450
:101D2000B4AAAFB420460C30FEF70EFAC7B2204674
:101D3000FF304130FEF708FA006801A900903846EC
:101D4000009A90470546F088402801D1082001906C
:101D50009CE020460C30FEF7F7F9C7B22046FF3072
:101D60003930FEF7F1F9006A01A900903846009A6F
:101D7000904705462146FF3145312846FEF7EEF9EA
:101D800084E0B078030000F07BFE06041627384993
:101D90005A6B20460C30FEF7D7F9C7B22046FF3009
:101DA0004130FEF7D1F9406801A900903846009A09
:101DB0009047054659E020460C30FEF7C5F9C0B201
:101DC00000902046FF304130FEF7BEF901A9876838
:101DD0000098B847054648E020460C30FEF7B4F9B5
:101DE000C0B200902046FF304130FEF7ADF901A9A6
:101DF000C7680098B847054637E020460C30FEF724
:101E0000A3F9C0B200902046FF304130FEF79CF9A4
:101E100001A907690098B847054626E020460C301E
:101E2000FEF792F9C0B200902046FF304130FEF735
:101E30008BF901A947690098B847054615E0204687
:101E40000C30FEF781F9C0B200902046FF304130DF
:101E5000FEF77AF901A987690098B847054604E0BA
:101E600031462046FFF714FEFEBD00BF0EE03146AE
:101E70002046FFF70DFEF7E731462046FFF708FE44
:101E8000F2E731462046FFF703FEEDE700BF684664
:101E90008088002812D0F08800280FD0F08869468A
:101EA0008988884202DD6846808800E0F0880190D9
:101EB00069468A8829462046FFF70CFE00BFD3E713
:101EC0000146002002E0421CD0B2491C0A78002AD8
:101ED000F9D1704738B504460D460020009060786F
:101EE000022802D0032813D100E000BF0120009097
:101EF00020460830FEF728F9002803D00221009878
:101F000008430090022269462046FFF7E3FD04E003
:101F100029462046FFF7BCFD00BF00BF38BDF8B51D
:101F200004460D4617460026002C1ED02046FFF71B
:101F3000C7FF4000801C38803A783046711CCEB212
:101F40002A5403223046711CCEB22A540AE0227869
:101F50003046711CCEB22A54641C00223046711CDB
:101F6000CEB22A5420780028F1D1F8BDF8B5044645
:101F70000D4616461F46204600F014FB2046FFF78C
:101F80009BFE2146FF3139313046FEF7E7F8214606
:101F9000FF313D313846FEF7E1F82146FF3141314E
:101FA0002846FEF7DBF8FEF743FE2046FEF76EFB01
:101FB0002046FF303D30FEF7C7F8006800908047AC
:101FC000204600F0E3FA2046FEF77AF9F8BD70B536
:101FD00004460D46207C2870607C6870A17CE07C03
:101FE000000208186880217D607D00020818A88022
:101FF000A17DE07D00020818E880E88821463431A0
:10200000FEF7ACF870BD70B5044600231A461946B9
:102010002046FEF761FB4023002280212046FEF788
:102020005BFB0023402219462046FEF787F9002378
:10203000402280212046FEF781F9211D0020FEF775
:102040008DF80120607020460C30FEF77DF8C5B297
:102050002046FF303D30FEF777F846682846B04707
:10206000002070BD70B504462046FF303D30FEF7BD
:102070006BF80569A847A0786070002070BD70B546
:1020800004462046FF303930FEF75EF8C06900286C
:1020900007D02046FF303930FEF756F8C569204694
:1020A000A847002070BD000070B504460D46A88802
:1020B000002818D1E888002815D1A8784606760EA1
:1020C0006078032804D129462046FFF7E1FC0EE0A2
:1020D000E67007480660002E02D00220607006E01D
:1020E0000120607003E029462046FFF7D1FC70BD57
:1020F000D800002070B504460D462046FF30393028
:10210000FEF722F8294606682046B0472046FF30F1
:102110003D30FEF719F88668B047002070BD00001A
:1021200070B504460D46A8782C490870084600781A
:10213000012804DD29462046FFF7AAFC4CE0607820
:10214000022802D0032841D115E024480078002855
:102150000DD0224800782070032060701F4801785D
:102160002046FFF7C7FF2046FFF7CEFC02E02046DF
:10217000FFF7CAFC2FE01948007800280DD1022093
:102180006070164800782070144801782046FFF7E8
:1021900031FC2046FFF7B8FC17E020780F4909789A
:1021A00088420FD021782046FFF724FC0B480078A6
:1021B00020700A4801782046FFF79CFF2046FFF771
:1021C000A3FC02E02046FFF79FFC04E029462046DE
:1021D000FFF75EFC00BF00BF70BD0000DC00002008
:1021E00070B504460D46688801280FD12146083194
:1021F000FDF7B4FF2046FF303930FDF7A5FF294633
:1022000086682046B0472046FFF77EFC70BD1CB5AF
:10221000044669462046FFF7DAFE68460078C006A5
:10222000C00E002804D0012807D002280FD109E0F1
:102230006946204600F017F812E06946204600F093
:10224000FBF80DE06946204600F046F808E06846D5
:1022500000788022104001462046FEF771F900BF49
:1022600000BF00201CBD70B505460C4600266078F6
:10227000030000F005FC0A1A24291F290B06291562
:10228000102921462846FFF740FD22E02146284636
:10229000FFF70AFF1DE021462846FFF741FF18E03F
:1022A00021462846FFF70BFD13E021462846FFF79D
:1022B00011FE0EE021462846FFF792FF09E0214675
:1022C0002846FFF7A5FB04E021462846FFF7E0FB80
:1022D00000BF00BF304670BDFEB505460E4600206B
:1022E000019000903479707800285FD001282FD0B9
:1022F00003287BD16878022802D0032821D108E086
:10230000002C05D0802C03D021462846FEF718F972
:102310001CE07088002807D1002C05D0802C03D049
:1023200021462846FEF70CF92846FF303930FDF7E4
:102330000BFF314687682846B8472846FFF7E4FB7D
:1023400004E031462846FFF7A3FB00BF00BF70E062
:102350006878022802D0032821D108E0002C05D09B
:10236000802C03D021462846FEF7EAF81CE070884E
:10237000002807D1002C05D0802C03D02146284608
:10238000FDF7B5FF2846FF303930FDF7DDFE314659
:1023900087682846B8472846FFF7B6FB04E0314671
:1023A0002846FFF775FB00BF00BF42E068780228AF
:1023B00002D0032835D108E0002C05D0802C03D0B2
:1023C00021462846FEF7BCF830E0802020408028D7
:1023D00010D16006400E2421484329461831401888
:1023E0004078002803D00120019014E020E0002074
:1023F000019010E08020204000280CD12420604370
:102400002946A83140184078002802D001200190C8
:1024100001E000200190022201A92846FFF75AFBA3
:1024200004E031462846FFF733FB00BF00BF00E061
:1024300000BF00BF0098FEBDF8B504460D4600265B
:102440006078032812D1287901280ADC2046FF3061
:102450003930FDF779FE294687682046B847064699
:1024600003E029462046FFF713FB04E029462046F7
:10247000FFF70EFB00BF00BF3046F8BD70B5044645
:102480006078A070042060702046FF303D30FDF77A
:102490005BFEC568A8472046FF303930FDF754FE83
:1024A000406A002806D02046FF303930FDF74CFE48
:1024B000456AA847002070BD70B505460C46224607
:1024C000024903A0FFF72BFD004870BD370B002029
:1024D00056435020436F6E666967000070470000E6
:1024E000024612200880014870470000FC2A0000C4
:1024F000704770477047704770B505460C462246D6
:10250000024903A0FFF70BFD004870BD370B002008
:1025100056435020496E7465726661636500000021
:10252000024604200880014870470000182B000074
:1025300070B505460C462246024903A0FFF7EFFCA2
:10254000004870BD370B00204D49430070B505466B
:102550000C462246024903A0FFF7E1FC004870BD8B
:10256000370B00204D4943205669727475616C2009
:10257000434F4D20506F72740000000002461A2035
:1025800008800148704700001C00002038B5044650
:10259000062168460170012141708170FEF7EEFB53
:1025A00038BD000010B504460B488068012189023F
:1025B0008843094988600121C807FEF719FC0121F9
:1025C000C807FEF733FC054800F077FA0021012028
:1025D000C007FEF72BFC10BD00020040E093040092
:1025E00010B500F001F810BD3EB5FEF70FFB0190ED
:1025F000FEF706FB0090FEF70FFB02906846007A9C
:10260000022108402B490968084000280BD0FEF73A
:1026100009FB012108430446FEF79CFE264800689A
:10262000816926488847694608790978084300285F
:1026300004D0684601780079FEF7E6F86846007A2B
:10264000042108401B4909680840002813D01A4893
:10265000006801691948884700211848FDF768FF9C
:1026600014490878FEF770FEFEF7DCFA01210843F2
:102670000446FEF76FFE6846007A082108400D49BF
:1026800009680840002804D00B480068C1680B485E
:1026900088476846007A6846007AC007C00F054937
:1026A00009680840002804D00348006841690348CD
:1026B00088473EBDB4000020D4000020E400002084
:1026C00010B50446002C1DD14448FEF703FF4448D2
:1026D000FFF705F8E12040024149C8600020886109
:1026E0003E48FEF7ABFF012211053C48FEF76CFFA8
:1026F00001223C493948FEF767FF01213748FEF7C0
:10270000E1FE68E038480079002802D0022808D1AC
:1027100003E000203249486108E008203049486160
:1027200004E00020FFF7CCFF022010BD00BF2E48C0
:102730004079030000F0A4F90504080C10141800F7
:1027400000202749886114E002202549886110E0B3
:102750000620234988610CE082202149886108E035
:1027600086201F49886104E00020FFF7A9FF0220AE
:10277000DBE700BF1C488079052806D0062808D072
:1027800007280AD0082810D10BE00020144908615E
:1027900010E02020124908610CE040201049086137
:1027A00008E060200E49086104E00020FFF788FF80
:1027B0000220BAE700BF0C4800680949C860002041
:1027C000086203200002C8610448FEF737FF0121B8
:1027D0000248FEF777FE0020A7E700000020004037
:1027E0002C020020000010804C00002070B505462F
:1027F0000C461646042D16D008DC002D0FD0012DF6
:102800000ED0022D0DD0032D41D10BE0202D0BD089
:10281000212D1FD0222D38D0232D38D136E037E09E
:1028200036E035E034E033E020786178090208438F
:10283000A17809040843E1780906084316490860AD
:102840002079087160794871A07988710120FFF7BB
:1028500037FF1DE01048007820700F480088000402
:10286000000E60700C4800680002000EA0700A485C
:102870000068000EE0700848007920710648407931
:10288000607105488079A07102E001E000E000BFBE
:1028900000BF002070BD00004C00002070B5054650
:1028A0000E4600240CE000BF012149060A48FEF74D
:1028B0002BFE0128F8D0295D0748FEF70EFF641CA7
:1028C000B442F0D300BF0121C9060348FEF71CFE45
:1028D0000028F8D0002070BD0020004030B502462E
:1028E0000B4600213BE020488079052807D1505C49
:1028F000C006C00E1D4C1E4D2D68605520E01A48C4
:102900008079062807D1505C8006800E174C184D40
:102910002D68605514E014488079072807D1505C71
:102920004006400E114C124D2D68605508E00E48CF
:102930008079082804D1545C0C480D4D2D6844550D
:102940000B480068401C0A4C2060204600680124A7
:10295000E402A04202D10020054C2060491C9942AB
:10296000C1D3002030BD00004C000020F702002041
:10297000700000203EB5002405E0641C0120000426
:10298000844200D906E00121C9061748FEF7BCFDC4
:102990000028F2D000BF00211348FEF793FD124833
:1029A000FEF798FD00211020FEF722FA0120019089
:1029B000002168464172042101720021817201A93F
:1029C0000120FEF785F80220019001A90120FEF701
:1029D0007FF8092168460170002141708170FEF77F
:1029E000CDF900203EBD00000020004000B58DB0B4
:1029F00001211020FEF7FCF90120FEF771FB0121F7
:102A00009020FEF767FB012001900021684641728B
:102A1000012101720021817201A90120FEF758F8FD
:102A20000220019001A90120FEF752F81248FEF79A
:102A300051FD03A8FEF753FE0020099003A90E489C
:102A4000FEF7FCFD012211050B48FEF7BDFD01223A
:102A50000A490948FEF7B8FD01210748FEF732FD93
:102A60000921684601700021417001218170FEF743
:102A700085F900200DB000BD00200040000010804E
:102A800030B47446641E2578641CAB4204D3635D85
:102A90005B00E31830BC18471D46F8E702E008C8A1
:102AA000121F08C1002AFAD170477047002001E0C8
:102AB00001C1121F002AFBD17047002101E000BFB5
:102AC000491C8142FBD3704708B5009000E000BF6D
:102AD00000994A1E00920029F9D108BD034B044A0F
:102AE00004490548FFF742FA00BFFEE7380000201E
:102AF0008800002000000020E400002012011001E6
:102B000002000040180904710001010203010A06D5
:102B10000002000000400100040309040902430010
:102B200002010080320904000001020201000524B4
:102B300000100105240100000424020205240600FF
:102B4000010705820340000A09040100020A00008F
:102B50000007058102400000070501024000000057
:102B6000802B000000000020E40000009C2A0000F0
:102B7000642C0000E400002054130000AC2A000084
:102B8000E124000021250000312500004D25000032
:102B90007D250000B9240000F92400001A0300007C
:102BA0000000000000000000000000000000000025
:102BB0000000000000000000F7240000F1240000E5
:102BC000DD240000F5240000F324000000C2010011
:102BD00000000800ED29000075290000ED27000025
:102BE000DD2800009D28000000000000000000001B
:102BF00000000000000000000000000000000000D5
:102C0000FF0000000000000071180000FD17000028
:102C10000919000000000000291800000D1700002D
:102C2000C1170000E118000061180000000000005A
:102C30000000000000000000051C0000171B000041
:102C40000F2200007F200000072000007D240000EC
:102C500065200000B8000020000000000000000017
:042C600000BD0105AD
:04000005000000C136
:00000001FF
