:020000040000FA
:1000000070080020D9000000E10000001903000082
:1000100000000000000000000000000000000000E0
:10002000000000000000000000000000810C000043
:100030000000000000000000B9070000010D0000F2
:1000400000000000000000000000000000000000B0
:1000500000000000EB000000EB000000EB000000DF
:10006000EB0000001D0D0000EB000000EB000000A5
:1000700000000000EB000000EB000000EB000000BF
:10008000EB000000EB000000EB000000EB000000C4
:10009000EB000000EB000000EB000000EB000000B4
:1000A000EB0000001D030000EB000000EB0000006F
:1000B00000000000EB000000EB000000EB0000007F
:1000C0000448854600F040F800480047411A000007
:1000D000C046C046700800200448804704480047D6
:1000E000FEE7FEE7FEE7FEE7FEE7FEE7050D0000A0
:1000F000C100000030B50B4601460020202201243B
:1001000009E00D46D5409D4205D31D469540491B4B
:100110002546954040191546521E002DF1DC30BD94
:1001200070B500242546002801DA01244042002948
:1001300001DA01254942FFF7DDFFAC4200D0404221
:10014000002C00D0494270BD064C0125064E05E04A
:10015000E36807CC2B430C3C98471034B442F7D3E8
:10016000FFF7B2FFA01A0000C01A0000F8B505465C
:100170000C46002D0BD0012D09D0022D07D0032DE8
:1001800005D0042D03D0052D01D0062D00D103E0AC
:100190004B214EA001F014FC207904280ED02079C8
:1001A00005280BD02079012808D02079022805D015
:1001B0002079032802D02079002800D103E04C21C7
:1001C00042A001F0FDFB2068002814D0206801281F
:1001D00011D0206802280ED0206803280BD0206898
:1001E000042808D02068052805D02068062802D0F9
:1001F0002068072800D103E04D2134A001F0E0FB86
:100200006079012802D06079002800D103E04E21F6
:100210002EA001F0D5FBA079002805D0A0790228F6
:1002200002D0A079012800D103E04F2127A001F0DE
:10023000C7FBE800216840188000344947183E6831
:100240002079002801D1202635E02079042815D115
:10025000B608B600032D08D9281FC0002178411820
:10026000012088402A49886025E02846C00021787E
:10027000411801208840274988601CE02079052822
:1002800015D1B608B600032D08D9281FC000217863
:100290004118012088401E4948600CE02846C000F3
:1002A00021784118012088401A49486003E0B608C7
:1002B000B60020790643607940020643A079C00069
:1002C0000643802006433E60F8BD00002E2E5C2EC3
:1002D0002E5C2E2E5C4C69627261726965735C568D
:1002E000544D303731785F5374645065726970686B
:1002F0005F4472697665725C7372635C56544D300C
:100300003731785F6770696F2E630000001000401E
:10031000008003400080024000BFFEE770B500246B
:100320004021604800F070F9012874D15D4800F068
:10033000CDF9044654215B4800F0C0F80120C0020A
:100340002040002803D0092057490860A5E001207B
:1003500080022040002803D00920534908609CE017
:10036000012040022040002803D009204E490860A7
:1003700093E0FF2001302040002803D009204A49A3
:1003800008608AE080202040002803D009204649E8
:10039000086082E040202040002803D00920424924
:1003A00008607AE020202040002803D009203E4940
:1003B000086072E010202040002803D008203A494D
:1003C000086069E008202040002803D00820364952
:1003D000086061E002202040002803D00820324954
:1003E000086059E004202040002803D008202E494E
:1003F000086051E004202040002803D008202A494A
:10040000086049E0E007C00F002804D00820264912
:10041000086041E0FFE70421224800F0F5F80128D8
:1004200039D121480068052835D120480068204985
:100430000968401A06280BD91A4800F07DF91C49B2
:100440000E68711C1A4A11601A49096888550FE034
:1004500000250BE0134800F06FF915490E68711C78
:10046000134A11601349096888556D1C062DF1DB8C
:100470000F4800680D49096888420CD10E48006891
:100480000A490968884203D106200749086002E04A
:1004900007200549086070BDFDE7024800F06CF8D0
:1004A00000BFF8E70048004068000020640000201A
:1004B0005C000020580000206000002038B5054690
:1004C0000C46002000901948854202D01848854209
:1004D00000D103E0174918A001F072FA402C13D0A4
:1004E000442C11D0482C0FD04C2C0DD0502C0BD0BC
:1004F000542C09D0582C07D05C2C05D0602C03D08C
:10050000642C01D0682C00D104E00A49491C0AA0DF
:1005100001F056FA0548854203D120180068009082
:1005200003E0034820180068009038BD00400040F8
:1005300000480040710200002E2E5C2E2E5C2E2EF4
:100540005C4C69627261726965735C56544D3037F8
:1005500031785F5374645065726970685F44726982
:100560007665725C7372635C56544D303731785FD8
:100570006932632E6300000010B5044610488442BF
:1005800002D01048844200D103E040210EA001F0C7
:1005900017FA0B48844208D10121802000F066F947
:1005A0000021802000F062F908E00121080600F037
:1005B0005DF900210120000600F058F910BD00008F
:1005C00000400040004800402E2E5C2E2E5C2E2E57
:1005D0005C4C69627261726965735C56544D303768
:1005E00031785F5374645065726970685F447269F2
:1005F0007665725C7372635C56544D303731785F48
:100600006932632E6300000070B505460C46002673
:100610001B48854202D01B48854200D103E01A499D
:100620001AA001F0CDF9012C1AD0022C18D0042CFC
:1006300016D0082C14D0102C12D0202C10D0402C06
:100640000ED0802C0CD0FF200130844208D0400016
:10065000844205D04000844202D04000844200D150
:1006600004E04321C90009A001F0AAF9E86A20408A
:10067000002801D0012600E00026304670BD0000B1
:100680000040004000480040170200002E2E5C2E63
:100690002E5C2E2E5C4C69627261726965735C56C9
:1006A000544D303731785F537464506572697068A7
:1006B0005F4472697665725C7372635C56544D3048
:1006C0003731785F6932632E6300000010B504464D
:1006D0000648844202D00648844200D103E005491E
:1006E00005A001F06DF98020005910BD00400040C8
:1006F00000480040550200002E2E5C2E2E5C2E2E4F
:100700005C4C69627261726965735C56544D303736
:1007100031785F5374645065726970685F447269C0
:100720007665725C7372635C56544D303731785F16
:100730006932632E6300000010B504460748844206
:1007400002D00748844200D104E0FF21573105A0C0
:1007500001F036F92069C0B210BD00000040004031
:10076000004800402E2E5C2E2E5C2E2E5C4C6962C2
:100770007261726965735C56544D303731785F53DE
:1007800074645065726970685F4472697665725C02
:100790007372635C56544D303731785F6932632E23
:1007A00063000000C206D20E01219140014A11608F
:1007B0007047000000E100E07047000070B504469B
:1007C0000D4618482040002802D1002C00D003E03C
:1007D000852115A001F0F4F8002D01D0012D00D1E4
:1007E00003E0862110A001F0EBF8002D0CD0012CC5
:1007F00003D0022C01D0042C02D11B4844610FE02D
:100800000120800744610BE0012C03D0022C01D0B1
:10081000042C02D11448846102E001208007846125
:1008200070BD00004808B23C2E2E5C2E2E5C2E2E91
:100830005C4C69627261726965735C56544D303705
:1008400031785F5374645065726970685F4472698F
:100850007665725C7372635C56544D303731785FE5
:100860007263632E630000000003004070B504460D
:100870000D4618482040002802D1002C00D003E08B
:10088000E02115A001F09CF8002D01D0012D00D130
:1008900003E0E12110A001F093F8002D0CD0012C11
:1008A00003D0022C01D0042C02D11B4884600FE03D
:1008B0000120800784600BE0012C03D0022C01D0C2
:1008C000042C02D11448446002E0012080074460F7
:1008D00070BD00004808B23C2E2E5C2E2E5C2E2EE1
:1008E0005C4C69627261726965735C56544D303755
:1008F00031785F5374645065726970685F447269DF
:100900007665725C7372635C56544D303731785F34
:100910007263632E6300000000030040F0B587B0EF
:1009200004460020069091488069C0B201908F482B
:10093000806AC0B200908D48006BC6B2012080076B
:10094000006BC006C00E001D8949484305908948C8
:10095000006804908548403001680498FFF7CAFB9E
:100960000390802C05D08448844202D0801C8442AD
:1009700002D103980690F7E0902C01D0942C2ED150
:100980000120800720180078002801D107B0F0BDB1
:100990000198002802D00198022808D10120800780
:1009A000201801787248FFF7BBFB074615E0019855
:1009B000012807D18007201801780598FFF79AFBD6
:1009C00007460AE00198032807D101208007201874
:1009D00001786A48FFF7A4FB07460697C4E0A82CF5
:1009E0002BD162484030806A002800D1CEE70098C1
:1009F000002802D00098022807D15C484030816A64
:100A00005B48FFF777FB029014E00098012807D1BC
:100A100056484030816A0598FFF76CFB029009E068
:100A20000098032806D151484030816A5348FFF7A7
:100A300061FB02900298069096E0AC2C3AD14B48AC
:100A40004030C06A002800D1A0E7002E01D0032E5C
:100A500007D146484030C16A4548FFF74BFB054681
:100A600026E0012E07D141484030C16A0598FFF7C2
:100A700041FB05461CE0022E07D13C484030C16ACC
:100A80003E48FFF737FB054612E0042E07D13748F2
:100A90004030C16AC013FFF72DFB054608E0082E61
:100AA00006D132484030C16A3548FFF723FB05467E
:100AB000069559E0B02C0DD12C484030006B002831
:100AC00000D163E729484030016B0598FFF712FB1E
:100AD000069049E0A42C01D0D02C0FD10120800732
:100AE00020180078002800D150E701208007201846
:100AF00001780598FFF7FEFA069035E0A02C16D194
:100B00002048006904210840002802D0039806907C
:100B10002AE016484030006A002800D136E7134822
:100B20004030016A0398FFF7E5FA06901CE0D82CE4
:100B30000DD10E4880308069002800D126E70B488F
:100B4000803081690598FFF7D5FA06900CE00A48D5
:100B5000401E844202D10948069005E00648801DE7
:100B6000844201D10248069006980FE740000040F9
:100B7000001BB7000000002002000010102700003A
:100B8000006CDC0200E000E070B504460D46802CED
:100B900011D0902C0FD0942C0DD0A02C0BD0A42CC5
:100BA00009D0A82C07D0AC2C05D0B02C03D0D02C69
:100BB00001D0D82C00D104E0FF21E73103A000F0E0
:100BC000FFFE012080072018056070BD2E2E5C2ED0
:100BD0002E5C2E2E5C4C69627261726965735C5684
:100BE000544D303731785F53746450657269706862
:100BF0005F4472697665725C7372635C56544D3003
:100C00003731785F7263632E6300000010B50446CD
:100C1000002C05D0012C03D0022C01D0032C00D1D4
:100C200004E0FF21933105A000F0CAFE134884615F
:100C300000201249C8610120C86110BD2E2E5C2E13
:100C40002E5C2E2E5C4C69627261726965735C5613
:100C5000544D303731785F537464506572697068F1
:100C60005F4472697665725C7372635C56544D3092
:100C70003731785F7263632E6300000040000040EC
:100C8000704710B500F002F810BD000010B5002448
:100C9000812080000107486140101449086001204C
:100CA0001349086013488068882188431149886087
:100CB00011484905086306E02046641C0121C90368
:100CC000884200D304E001208007406B0128F3D163
:100CD00000BF0A4800F096FE01200549403908612E
:100CE000002048610120486110BD000000B00040B4
:100CF000800000400002004003000080B80B0000AC
:100D00007047000010B5034803490863FFF7B9FFB7
:100D100010BD0000058000000001004010B510214A
:100D2000124800F017FA012806D0012149050F48A2
:100D300000F010FA012818D110210C4800F018F822
:100D400001214905094800F013F807E0074800F0C1
:100D5000B1FCC4B22146054800F0E0FC01210906BF
:100D6000024800F083F90028F0D010BD00200040B8
:100D700070B504460D462148844202D02048844282
:100D800000D103E01F4920A000F01AFE2E482840A1
:100D9000002804D02D482840002800D104E0352147
:100DA000090119A000F00CFE01200006854202D0C6
:100DB0004000854206D1C020005B290C0843C021B9
:100DC000085319E02248854208D1FF20113000590C
:100DD00010218843FF21113108510DE00120400509
:100DE000854208D1FF202130005929468843FF2140
:100DF0002131085100E0A56470BD000000200040D2
:100E0000002800404F0300002E2E5C2E2E5C2E2E5C
:100E10005C4C69627261726965735C56544D30371F
:100E200031785F5374645065726970685F447269A9
:100E30007665725C7372635C56544D303731785FFF
:100E400075736172742E6300F23F20300DC0DF8F26
:100E50001000004070B504460D460E48844202D092
:100E60000D48844200D103E0B5210CA000F0A8FD9C
:100E7000002D01D0012D00D103E0B62107A000F024
:100E80009FFD002D02D00120606201E00120A062E0
:100E900070BD000000200040002800402E2E5C2E77
:100EA0002E5C2E2E5C4C69627261726965735C56B1
:100EB000544D303731785F5374645065726970688F
:100EC0005F4472697665725C7372635C56544D3030
:100ED0003731785F75736172742E630000B58DB021
:100EE0000920FFF75FFC01211020FFF767FC0120BC
:100EF000FFF78CFE01219020FFF746FE01200190B4
:100F0000002168464172012101720021817201A90C
:100F10000120FFF72BF90220019001A90120FFF722
:100F200025F92D4800F05CF803A800F02DFC03A97A
:100F3000294800F045FA01221105274800F0B4F9CC
:100F40001421254800F068FB01222449224800F0C2
:100F5000ABF901212048FFF77DFF0920FFF722FCB4
:100F600001211020FFF72AFC0120FFF74FFE01218D
:100F70009020FFF709FE0120019000216846417290
:100F8000012101720021817201A90120FFF7EEF811
:100F90000220019001A90120FFF7E8F80E4800F0B7
:100FA0001FF803A800F0F0FB03A90B4800F008FAB3
:100FB00001221105084800F077F91421064800F0D5
:100FC0002BFB01220549044800F06EF9012102487B
:100FD000FFF740FF0DB000BD002000400000108072
:100FE00010B504460F48844202D00F48844200D115
:100FF00003E050210DA000F0E3FC0A48844208D130
:1010000001211020FFF732FC00211020FFF72EFCF9
:1010100007E001212020FFF729FC00212020FFF715
:1010200025FC10BD00200040002800402E2E5C2E24
:101030002E5C2E2E5C4C69627261726965735C561F
:10104000544D303731785F537464506572697068FD
:101050005F4472697665725C7372635C56544D309E
:101060003731785F75736172742E630070B5054611
:101070000C4600262448854202D02448854200D1EF
:1010800003E0234923A000F09BFC012000048442DC
:101090001AD04000844217D04000844214D040004F
:1010A000844211D0400184420ED0400084420BD0D3
:1010B0004000844208D04000844205D04000844271
:1010C00002D04000844200D104E01149491C11A023
:1010D00000F076FC0120000784420BD10A488542CB
:1010E00002D00A48854200D104E00B21890109A001
:1010F00000F066FC286E2040002801D0012600E0A8
:101100000026304670BD000000200040002800404E
:10111000BA0200002E2E5C2E2E5C2E2E5C4C6962D4
:101120007261726965735C56544D303731785F5324
:1011300074645065726970685F4472697665725C48
:101140007372635C56544D303731785F75736172DA
:10115000742E6300F8B505460C46002700263E486D
:10116000854202D03D48854200D104E003210902B6
:101170003BA000F025FC102C1ED0202C1CD0022CF3
:101180001AD0802C18D0FF200130844214D04000A7
:10119000844211D0400084420ED0400084420BD0E3
:1011A0004000844208D04000844205D03C4884423C
:1011B00002D04012844200D103E03A4928A000F056
:1011C000FFFB3748844208D1FF20113040590821E5
:1011D0000840002814D0012612E001204005844276
:1011E00008D1FF202130405961100840002807D065
:1011F000012605E0286C21040840002800D00126C3
:10120000274884420CD1002E08D0FF2011304059CD
:1012100010210840002801D001271BE0002719E019
:101220000120400584420CD1002E08D0FF2021303F
:10123000405921460840002801D001270AE0002734
:1012400008E0002E05D0286C2040002801D001279E
:1012500000E000273846F8BD00200040002800408C
:101260002E2E5C2E2E5C2E2E5C4C69627261726991
:1012700065735C56544D303731785F5374645065F4
:10128000726970685F4472697665725C7372635CE0
:1012900056544D303731785F75736172742E630028
:1012A000100000400103000070B504460D461646CC
:1012B0002E48844202D02E48844200D104E0FF210F
:1012C000C0312CA000F07CFB3A482840002803D015
:1012D00039482840002802D03848854200D104E02F
:1012E000FF21C13123A000F06BFB002E01D0012EA5
:1012F00000D104E0FF21C2311EA000F061FB002EEE
:1013000019D0082D08D1FF201130005908210843B9
:10131000FF211131085127E02848854209D1FF20DB
:1013200021300059012109050843FF2121310851CD
:101330001AE0656418E0082D08D1FF20113000592B
:1013400008218843FF21113108510DE01B488542D7
:1013500009D1FF2021300059012109058843FF21CF
:101360002131085100E0A56470BD0000002000405C
:10137000002800402E2E5C2E2E5C2E2E5C4C6962C6
:101380007261726965735C56544D303731785F53C2
:1013900074645065726970685F4472697665725CE6
:1013A0007372635C56544D303731785F7573617278
:1013B000742E63000800B03FFFFF4F400000108014
:1013C000FEB505460C460026002002907D48854269
:1013D00002D07D48854200D103E06E217BA000F061
:1013E000EFFAE068002804D08849E068884200D21B
:1013F00003E06F2175A000F0E3FA2069002808D00F
:101400002069202805D02069402802D02069602862
:1014100000D103E070216DA000F0D2FA60690028CD
:1014200002D06069082800D103E0712167A000F0B4
:10143000C7FAA06900280BD0A069062808D0A069C7
:10144000022805D0A069862802D0A069822800D190
:1014500003E072215DA000F0B3FAFF210131E069E1
:10146000884208D04900E069884204D0032109027B
:10147000E069884200D103E0732154A000F0A0FA93
:10148000206A00280DD001218903206A884208D0F3
:101490004900206A884204D003218903206A8842D7
:1014A00000D103E0742149A000F08AFA606A0028A4
:1014B00004D00121C902606A884200D103E075218D
:1014C00042A000F07DFA2068002812D00121090412
:1014D000206888420DD049002068884209D0032145
:1014E00009042068884204D00121890420688842C8
:1014F00000D103E0762135A000F062FA6068002890
:1015000012D001210905606888420DD04900606849
:10151000884209D0032109056068884204D001216E
:1015200089056068884200D103E0772127A000F098
:1015300047FAA068102802D0A068002800D103E074
:10154000782122A000F03CFA2E6B314806401D485D
:10155000854204D19020FFF7E1F9029006E01A4895
:10156000854203D19420FFF7D9F90290E168029AED
:101570009000FEF7BFFD0746B806810C0191384682
:101580003F21C94308408009000400900199009858
:1015900008432169084361690843A1690843A168B8
:1015A000084306432E632E6A1A4806406168206885
:1015B0000843E1690843216A0843616A0843064316
:1015C0002E62FEBD00200040002800402E2E5C2E22
:1015D0002E5C2E2E5C4C69627261726965735C567A
:1015E000544D303731785F53746450657269706858
:1015F0005F4472697665725C7372635C56544D30F9
:101600003731785F75736172742E630061E3160081
:1016100001C00000FF3488FF70B504460D46134832
:10162000844202D01248844200D104E0FF219D315F
:1016300010A000F0C5F9280D0005002804D12803EA
:10164000000B002800D004E0FF219E3109A000F02B
:10165000B7F9FF2021300659360D360530462843AC
:101660000646FF202130065170BD000000200040DA
:10167000002800402E2E5C2E2E5C2E2E5C4C6962C3
:101680007261726965735C56544D303731785F53BF
:1016900074645065726970685F4472697665725CE3
:1016A0007372635C56544D303731785F7573617275
:1016B000742E630010B504460648844202D00648E2
:1016C000844200D104E0FF21F53104A000F078F954
:1016D000206D10BD00200040002800402E2E5C2E02
:1016E0002E5C2E2E5C4C69627261726965735C5669
:1016F000544D303731785F53746450657269706847
:101700005F4472697665725C7372635C56544D30E7
:101710003731785F75736172742E630070B504465B
:101720000D460748844202D00648844200D104E0B6
:10173000FF21E53104A000F043F9256570BD0000EC
:1017400000200040002800402E2E5C2E2E5C2E2E05
:101750005C4C69627261726965735C56544D3037D6
:1017600031785F5374645065726970685F44726960
:101770007665725C7372635C56544D303731785FB6
:1017800075736172742E63000121490401600901BF
:10179000416010218160E1214902C1606021016145
:1017A00000214161816103210902C16100210162BF
:1017B000416270470FB410B503A9044B044A029864
:1017C00000F018F810BC08BC04B01847191A000043
:1017D0006C00002002E008C8121F08C1002AFAD1DC
:1017E00070477047002001E001C1121F002AFBD1A1
:1017F00070470000FFB58DB00F460546002606E095
:1018000025280AD0109A0F9990476D1C761C2878CD
:101810000028F5D1304611B0F0BD00240121674AFF
:10182000009400E004436D1C2B780846203B984050
:101830001042F7D128782E2815D104200443687867
:101840006D1C2A280AD101CF6D1C00900BE0009975
:101850000A225143303940186D1C00902878014607
:1018600030390929F3D92878692843D006DC0028C3
:10187000D0D063280BD0642804D13BE073280FD06C
:1018800075284CD0109A0F999047761C94E03878C0
:10189000694608720020487202A80190012003E006
:1018A000386801900020C0433F1D61070CD500241B
:1018B00000E0641C00998C420FDA8442F9DB019944
:1018C000095D0029F5D108E0002400E0641C844291
:1018D000FCDB0199095D0029F8D1361907E0019870
:1018E00001990078491C0191109A0F999047641E44
:1018F000F5D261E00A20019001CF002802DA4042CF
:101900002D2102E0210504D52B216A461172012107
:1019100003E0E10701D02021F7E70C9104E00A2061
:10192000019001CF00210C910BA90B9108E00199C6
:10193000FEF7E0FB0A460B993032491E0B910A7004
:101940000028F4D10B9803A9081A203001906007F1
:1019500001D5009801E0012000900199884203DD43
:1019600001460198081A00E000200024009006E0DB
:1019700002A8109A005D0F999047641C761C0C9881
:101980008442F5DB04E0109A30200F999047761CD2
:101990000099481E00900029F5DC08E00B980B998F
:1019A0000078491C0B91109A0F999047761C019969
:1019B000481E01900029F1DC6D1C28E70928010070
:1019C00004460D462A46214602A0FFF7F3FE00BF5B
:1019D000FEE7000057726F6E6720706172616D657F
:1019E000746572732076616C75653A2066696C6502
:1019F000202573206F6E206C696E652025640D0AAA
:101A00000000000008B5009000E000BF00994A1EE9
:101A100000920029F9D108BD70B504460D46E1B227
:101A20000648FFF77BFE00BF0121C9060348FFF708
:101A30001DFB0028F8D0204670BD000000200040AB
:101A4000FFF74CFA02A0FFF7B5FE00BFFEE700006B
:101A50000D0A2D2D2D2D2D2D2D2D2D2D2D2D2D2DF9
:101A60002D2D2D7C2D2056544D3037317820555357
:101A7000415254202D7C2D2D2D2D2D2D2D2D2D2DF4
:101A80002D2D2D2D2D2D2D0D0A0000004154323409
:101A900043323536000000004154323443303800C0
:101AA000C01A00000000002070000000D4170000E1
:101AB000301B00007000002000080000E417000048
:101AC00000BD0105981A0000A00000000000000001
:101AD00000040000100000000100000002000000EF
:101AE0007E0000004B010000850100008C1A000000
:101AF000A000000000000000008000004000000086
:101B000002000000020000007E0000004B01000007
:101B1000850100002C0000200000000000000000F3
:101B200000000000000000000000000000000000B5
:04000005000000C136
:00000001FF
