:020000040000FA
:1000000078080020D90000001D0F0000910A0000B0
:1000100000000000000000000000000000000000E0
:10002000000000000000000000000000611400005B
:100030000000000000000000990F0000E114000023
:1000400000000000000000000000000000000000B0
:1000500000000000EB000000EB000000EB000000DF
:10006000EB000000EB000000EB000000EB000000E4
:1000700000000000EB000000EB000000EB000000BF
:10008000EB000000EB0000006D010000EB00000041
:10009000EB000000EB000000EB000000EB000000B4
:1000A000EB000000950A0000EB000000EB000000F0
:1000B00000000000EB000000EB000000EB0000007F
:1000C0000448854600F040F800480047ED1C000059
:1000D000C046C046780800200448804704480047CE
:1000E000FEE7FEE7FEE7FEE7FEE7FEE7F9140000A5
:1000F000C100000030B50B4601460020202201243B
:1001000009E00D46D5409D4205D31D469540491B4B
:100110002546954040191546521E002DF1DC30BD94
:1001200070B500242546002801DA01244042002948
:1001300001DA01254942FFF7DDFFAC4200D0404221
:10014000002C00D0494270BD064C0125064E05E04A
:10015000E36807CC2B430C3C98471034B442F7D3E8
:10016000FFF7B2FFE81D0000081E000070B515483B
:1001700005680021012000F0BBF801281FD10021F3
:1001800000F022F8002400E0641C032000038442F5
:10019000FAD30021012000F093FB012800D070BDAC
:1001A000A808084909684018064908600846006818
:1001B0007D210901884202D908460249086000BF32
:1001C000EDE700000800002070B505460C46002D44
:1001D0000BD0012D09D0022D07D0032D05D0042D01
:1001E00003D0052D01D0062D00D103E0154916A03E
:1001F00001F03CFD002C0DD0012C0BD0022C09D0BD
:10020000032C07D0042C05D0052C03D0062C01D0DC
:10021000072C00D104E00B49491C0BA001F026FD7E
:10022000032D07D9281FC000011901208840164955
:10023000486305E0E800011901208840134948633C
:1002400070BD0000060200002E2E5C2E2E5C2E2EAD
:100250005C4C69627261726965735C56544D3037EB
:1002600031785F5374645065726970685F44726975
:100270007665725C7372635C56544D303731785FCB
:100280006770696F2E630000408003404080024029
:100290001CB50420009000216846417105210171C0
:1002A000002181716946062000F034FA0520009093
:1002B0006946062000F02EFA0020009000216846D2
:1002C000417104210171012181716946012000F011
:1002D00021FA122001218140044A116000BF01234C
:1002E0001A460021184600F08DF81CBD00E100E020
:1002F000F8B504460D4600270026002C0BD0012C33
:1003000009D0022C07D0032C05D0042C03D0052CD7
:1003100001D0062C00D104E0FF21E03127A001F03C
:10032000A5FC002D0DD0012D0BD0022D09D0032DE1
:1003300007D0042D05D0052D03D0062D01D0072DA3
:1003400000D104E0FF21E1311CA001F08FFC032C5F
:1003500009D92A480068211FC9004A190121914082
:100360000840064607E026480068E1004A190121D6
:10037000914008400646032C0FD920480069211FF0
:10038000C9004A19012191400840002803D0002EDD
:1003900001D001270FE000270DE019480069E100B6
:1003A0004A19012191400840002803D0002E01D0B5
:1003B000012700E000273846F8BD00002E2E5C2EF5
:1003C0002E5C2E2E5C4C69627261726965735C569C
:1003D000544D303731785F5374645065726970687A
:1003E0005F4472697665725C7372635C56544D301B
:1003F0003731785F6770696F2E630000408003407B
:1004000040800240F8B504460D4616461F46002FB0
:1004100001D0012F00D104E0FF216F31ABA001F02A
:1004200025FC002C0BD0012C09D0022C07D0032C6A
:1004300005D0042C03D0052C01D0062C00D104E0FB
:10044000FF217031A1A001F011FC002D0DD0012D74
:100450000BD0022D09D0032D07D0042D05D0052D7A
:1004600003D0062D01D0072D00D104E0FF2171310A
:1004700096A001F0FBFB002E07D0012E05D0022E26
:1004800003D0032E01D0042E00D104E0FF217231ED
:100490008EA001F0EBFB002F77D0002E39D1032C7A
:1004A0001DD9201FC000411901208840974988614B
:1004B000201FC00041190120884094498862201FF4
:1004C000C00041190120884090498863201FC00066
:1004D0004119012088408D4940314860F5E0E00035
:1004E0004119012088408A498861E00041190120B2
:1004F000884087498862E00041190120884084498A
:100500008863E000411901208840814940314860FA
:10051000DBE0012E3AD1032C1DD9201FC000411968
:100520000120884079498861201FC00041190120BD
:10053000884076498862201FC00041190120884008
:1005400072494863201FC0004119012088406F494B
:1005500040314860B9E0E0004119012088406C4911
:100560008861E00041190120884069498862E00003
:1005700041190120884066494863E0004119012083
:1005800088406349403148609FE08CE0022E2CD1C6
:10059000032C16D9201FC0004119012088405B4957
:1005A0008861201FC00041190120884057494862D6
:1005B000201FC00041190120884054494031486043
:1005C00083E0E00041190120884051498861E00042
:1005D0004119012088404E494862E000411901203C
:1005E00088404B49403148606FE0032E2CD1032CEA
:1005F00016D9201FC0004119012088404349486195
:10060000201FC00041190120884040498863201FF5
:10061000C0004119012088403C494031486054E005
:10062000E00041190120884039494861E000411942
:100630000120884036498863E00041190120884044
:1006400033494031486040E0042E3ED1032C16D996
:10065000201FC0004119012088402C494861201FFB
:10066000C00041190120884028494863201FC0006C
:1006700041190120884025494031486025E0E000CB
:1006800041190120884022494861E00041190120B8
:1006900088401F494863E0004119012088401C49F7
:1006A0004031486011E0032C08D9201FC0004119D7
:1006B0000120884015494031886006E0E00041197A
:1006C00001208840124940318860F8BD2E2E5C2EF2
:1006D0002E5C2E2E5C4C69627261726965735C5689
:1006E000544D303731785F53746450657269706867
:1006F0005F4472697665725C7372635C56544D3008
:100700003731785F6770696F2E63000000800340A7
:1007100000800240F8B505460C46002D0BD0012D97
:1007200009D0022D07D0032D05D0042D03D0052DAF
:1007300001D0062D00D103E04B214EA001F096FA26
:10074000207904280ED0207905280BD020790128A3
:1007500008D02079022805D02079032802D02079FA
:10076000002800D103E04C2142A001F07FFA20686C
:10077000002814D02068012811D0206802280ED04B
:10078000206803280BD02068042808D0206805289A
:1007900005D02068062802D02068072800D103E091
:1007A0004D2134A001F062FA6079012802D060790D
:1007B000002800D103E04E212EA001F057FAA079C5
:1007C000002805D0A079022802D0A079012800D104
:1007D00003E04F2127A001F049FAE8002168401802
:1007E0008000344947183E682079002801D120262E
:1007F00035E02079042815D1B608B600032D08D9B4
:10080000281FC00021784118012088402A498860AB
:1008100025E02846C000217841180120884027495A
:1008200088601CE02079052815D1B608B600032D94
:1008300008D9281FC00021784118012088401E498E
:1008400048600CE02846C00021784118012088400B
:100850001A49486003E0B608B6002079064360797B
:1008600040020643A079C0000643802006433E6054
:10087000F8BD00002E2E5C2E2E5C2E2E5C4C696284
:100880007261726965735C56544D303731785F53CD
:1008900074645065726970685F4472697665725CF1
:1008A0007372635C56544D303731785F6770696F8F
:1008B0002E630000001000400080034000800240D2
:1008C000F8B504460D460027002C0BD0012C09D0AA
:1008D000022C07D0032C05D0042C03D0052C01D00A
:1008E000062C00D103E0BF2117A001F0BFF9002DB5
:1008F0000DD0012D0BD0022D09D0032D07D0042DD2
:1009000005D0052D03D0062D01D0072D00D103E021
:10091000C0210DA001F0AAF9032C09D91A480668D4
:10092000201FC00041193046C840C707FF0F08E02C
:10093000164806682046C00041193046C840C7071F
:10094000FF0F3846F8BD00002E2E5C2E2E5C2E2E9A
:100950005C4C69627261726965735C56544D3037E4
:1009600031785F5374645065726970685F4472696E
:100970007665725C7372635C56544D303731785FC4
:100980006770696F2E6300000000034000000240A2
:1009900070B504460D461646002C0BD0012C09D02C
:1009A000022C07D0032C05D0042C03D0052C01D039
:1009B000062C00D103E0DE2123A001F057F9002D21
:1009C0000DD0012D0BD0022D09D0032D07D0042D01
:1009D00005D0052D03D0062D01D0072D00D103E051
:1009E000DF2119A001F042F9002E01D0012E00D123
:1009F00003E0E02114A001F039F9002E11D0032CFE
:100A000007D9201FC0004119012088401E494860B5
:100A100018E02046C0004119012088401B49486069
:100A200010E0032C07D9201FC00041190120884085
:100A30001549886006E02046C00041190120884021
:100A40001249886070BD00002E2E5C2E2E5C2E2E6A
:100A50005C4C69627261726965735C56544D3037E3
:100A600031785F5374645065726970685F4472696D
:100A70007665725C7372635C56544D303731785FC3
:100A80006770696F2E6300000000034000000240A1
:100A900000BFFEE770B500244021604800F070F907
:100AA000012874D15D4800F0CDF9044654215B481B
:100AB00000F0C0F80120C0022040002803D0092027
:100AC00057490860A5E0012080022040002803D09B
:100AD0000920534908609CE0012040022040002882
:100AE00003D009204E49086093E0FF2001302040E8
:100AF000002803D009204A4908608AE0802020406D
:100B0000002803D009204649086082E040202040A8
:100B1000002803D00920424908607AE020202040C4
:100B2000002803D009203E49086072E010202040D0
:100B3000002803D008203A49086069E008202040D6
:100B4000002803D008203649086061E002202040D8
:100B5000002803D008203249086059E004202040D2
:100B6000002803D008202E49086051E004202040CE
:100B7000002803D008202A49086049E0E007C00F98
:100B8000002804D008202649086041E0FFE704213E
:100B9000224800F0F5F8012839D1214800680528DD
:100BA00035D12048006820490968401A06280BD929
:100BB0001A4800F07DF91C490E68711C1A4A116030
:100BC0001A49096888550FE000250BE0134800F02A
:100BD0006FF915490E68711C134A116013490968B1
:100BE00088556D1C062DF1DB0F4800680D4909681A
:100BF00088420CD10E4800680A490968884203D12E
:100C000006200749086002E007200549086070BD1A
:100C1000FDE7024800F06CF800BFF8E7004800402C
:100C2000700000206C0000206400002060000020A4
:100C30006800002038B505460C4600200090194891
:100C4000854202D01848854200D103E0174918A018
:100C500001F00CF8402C13D0442C11D0482C0FD0AC
:100C60004C2C0DD0502C0BD0542C09D0582C07D024
:100C70005C2C05D0602C03D0642C01D0682C00D1F2
:100C800004E00A49491C0AA000F0F0FF054885422B
:100C900003D120180068009003E003482018006882
:100CA000009038BD00400040004800407102000044
:100CB0002E2E5C2E2E5C2E2E5C4C69627261726947
:100CC00065735C56544D303731785F5374645065AA
:100CD000726970685F4472697665725C7372635C96
:100CE00056544D303731785F6932632E630000000F
:100CF00010B504461048844202D01048844200D106
:100D000003E040210EA000F0B1FF0B48844208D15F
:100D10000121802000F09AF90021802000F096F94E
:100D200008E00121080600F091F9002101200006E9
:100D300000F08CF910BD0000004000400048004069
:100D40002E2E5C2E2E5C2E2E5C4C696272617269B6
:100D500065735C56544D303731785F537464506519
:100D6000726970685F4472697665725C7372635C05
:100D700056544D303731785F6932632E630000007E
:100D800070B505460C4600261B48854202D01B481C
:100D9000854200D103E01A491AA000F067FF012C38
:100DA0001AD0022C18D0042C16D0082C14D0102CD9
:100DB00012D0202C10D0402C0ED0802C0CD0FF2034
:100DC0000130844208D04000844205D04000844273
:100DD00002D04000844200D104E04321C90009A0B0
:100DE00000F044FFE86A2040002801D0012600E01E
:100DF0000026304670BD0000004000400048004022
:100E0000170200002E2E5C2E2E5C2E2E5C4C69628A
:100E10007261726965735C56544D303731785F5337
:100E200074645065726970685F4472697665725C5B
:100E30007372635C56544D303731785F6932632E7C
:100E40006300000010B504460648844202D00648FC
:100E5000844200D103E0054905A000F007FF80208F
:100E6000005910BD004000400048004055020000FD
:100E70002E2E5C2E2E5C2E2E5C4C69627261726985
:100E800065735C56544D303731785F5374645065E8
:100E9000726970685F4472697665725C7372635CD4
:100EA00056544D303731785F6932632E630000004D
:100EB00010B504460748844202D00748844200D156
:100EC00004E0FF21573105A000F0D0FE2069C0B238
:100ED00010BD000000400040004800402E2E5C2E57
:100EE0002E5C2E2E5C4C69627261726965735C5671
:100EF000544D303731785F5374645065726970684F
:100F00005F4472697665725C7372635C56544D30EF
:100F10003731785F6932632E63000000704700004C
:100F200010B5002819DA1A4A03071B0F083B9B0863
:100F30009B00D2588307DC0EFF23A3409A438B0704
:100F40001B0E8407E40EA3401A43114B0407240F21
:100F5000083CA408A4001A5118E00E4A03231B02FF
:100F6000D21883089B00D2588307DC0EFF23A340CE
:100F70009A438B071B0E8407E40EA3401A43054BCC
:100F8000032424021B198408A4001A5110BD000078
:100F90001CED00E000E100E07047000070B5044681
:100FA0000D4618482040002802D1002C00D003E054
:100FB000852115A000F05AFE002D01D0012D00D191
:100FC00003E0862110A000F051FE002D0CD0012C72
:100FD00003D0022C01D0042C02D11B4844610FE045
:100FE0000120800744610BE0012C03D0022C01D0CA
:100FF000042C02D11448846102E00120800784613E
:1010000070BD00004808B23C2E2E5C2E2E5C2E2EA9
:101010005C4C69627261726965735C56544D30371D
:1010200031785F5374645065726970685F447269A7
:101030007665725C7372635C56544D303731785FFD
:101040007263632E630000000003004070B5044625
:101050000D4618482040002802D1002C00D003E0A3
:10106000E02115A000F002FE002D01D0012D00D1DD
:1010700003E0E12110A000F0F9FD002D0CD0012CBF
:1010800003D0022C01D0042C02D11B4884600FE055
:101090000120800784600BE0012C03D0022C01D0DA
:1010A000042C02D11448446002E00120800744600F
:1010B00070BD00004808B23C2E2E5C2E2E5C2E2EF9
:1010C0005C4C69627261726965735C56544D30376D
:1010D00031785F5374645065726970685F447269F7
:1010E0007665725C7372635C56544D303731785F4D
:1010F0007263632E6300000000030040F0B587B008
:1011000004460020069091488069C0B201908F4843
:10111000806AC0B200908D48006BC6B20120800783
:10112000006BC006C00E001D8949484305908948E0
:10113000006804908548403001680498FEF7DAFFA3
:101140000390802C05D08448844202D0801C8442C5
:1011500002D103980690F7E0902C01D0942C2ED168
:101160000120800720180078002801D107B0F0BDC9
:101170000198002802D00198022808D10120800798
:10118000201801787248FEF7CBFF074615E001985A
:10119000012807D18007201801780598FEF7AAFFDB
:1011A00007460AE00198032807D10120800720188C
:1011B00001786A48FEF7B4FF07460697C4E0A82CFA
:1011C0002BD162484030806A002800D1CEE70098D9
:1011D000002802D00098022807D15C484030816A7C
:1011E0005B48FEF787FF029014E00098012807D1C2
:1011F00056484030816A0598FEF77CFF029009E06E
:101200000098032806D151484030816A5348FEF7C0
:1012100071FF02900298069096E0AC2C3AD14B48B0
:101220004030C06A002800D1A0E7002E01D0032E74
:1012300007D146484030C16A4548FEF75BFF054686
:1012400026E0012E07D141484030C16A0598FEF7DB
:1012500051FF05461CE0022E07D13C484030C16AD0
:101260003E48FEF747FF054612E0042E07D13748F7
:101270004030C16AC013FEF73DFF054608E0082E66
:1012800006D132484030C16A3548FEF733FF054683
:10129000069559E0B02C0DD12C484030006B002849
:1012A00000D163E729484030016B0598FEF722FF23
:1012B000069049E0A42C01D0D02C0FD1012080074A
:1012C00020180078002800D150E70120800720185E
:1012D00001780598FEF70EFF069035E0A02C16D198
:1012E0002048006904210840002802D00398069095
:1012F0002AE016484030006A002800D136E713483B
:101300004030016A0398FEF7F5FE06901CE0D82CE9
:101310000DD10E4880308069002800D126E70B48A7
:10132000803081690598FEF7E5FE06900CE00A48DA
:10133000401E844202D10948069005E00648801DFF
:10134000844201D10248069006980FE74000004011
:10135000001BB70000000020020000101027000052
:10136000006CDC0200E000E070B504460D46802C05
:1013700011D0902C0FD0942C0DD0A02C0BD0A42CDD
:1013800009D0A82C07D0AC2C05D0B02C03D0D02C81
:1013900001D0D82C00D104E0FF21E73103A000F0F8
:1013A00065FC012080072018056070BD2E2E5C2E84
:1013B0002E5C2E2E5C4C69627261726965735C569C
:1013C000544D303731785F5374645065726970687A
:1013D0005F4472697665725C7372635C56544D301B
:1013E0003731785F7263632E6300000010B50446E6
:1013F000002C05D0012C03D0022C01D0032C00D1ED
:1014000004E0FF21933105A000F030FC1348846113
:1014100000201249C8610120C86110BD2E2E5C2E2B
:101420002E5C2E2E5C4C69627261726965735C562B
:10143000544D303731785F53746450657269706809
:101440005F4472697665725C7372635C56544D30AA
:101450003731785F7263632E630000004000004004
:10146000704710B500F002F810BD000010B5002460
:101470008120800001074861401014490860012064
:10148000134908601348806888218843114988609F
:1014900011484905086306E02046641C0121C90380
:1014A000884200D304E001208007406B0128F3D17B
:1014B00000BF0A4800F0FCFB0120054940390861E3
:1014C000002048610120486110BD000000B00040CC
:1014D000800000400002004003000080B80B0000C4
:1014E00004480068002804D002480068401E0149F2
:1014F000086070470400002010B5034803490863E2
:10150000FFF7AFFF10BD00000580000000010040A4
:1015100070B504460D460E48844202D00D48844200
:1015200000D103E0B5210CA000F0A0FB002D01D0FC
:10153000012D00D103E0B62107A000F097FB002D9C
:1015400002D00120606201E00120A06270BD0000B5
:1015500000200040002800402E2E5C2E2E5C2E2EF7
:101560005C4C69627261726965735C56544D3037C8
:1015700031785F5374645065726970685F44726952
:101580007665725C7372635C56544D303731785FA8
:1015900075736172742E630000B58DB00121102047
:1015A000FFF7FCFC0120FFF721FF01219020FFF74E
:1015B000DBFE012001900021684641720121017289
:1015C0000021817201A90120FFF7A4F802200190F7
:1015D00001A90120FFF79EF8074800F00FF803A8C3
:1015E00000F028FA03A9044800F0C2F801210248DB
:1015F000FFF78EFF0DB000BD0020004010B504467F
:101600000F48844202D00F48844200D103E05021A9
:101610000DA000F02BFB0A48844208D101211020C4
:10162000FFF714FD00211020FFF710FD07E0012156
:101630002020FFF70BFD00212020FFF707FD10BD44
:1016400000200040002800402E2E5C2E2E5C2E2E06
:101650005C4C69627261726965735C56544D3037D7
:1016600031785F5374645065726970685F44726961
:101670007665725C7372635C56544D303731785FB7
:1016800075736172742E630070B505460C460026B2
:101690002448854202D02448854200D103E02349F2
:1016A00023A000F0E3FA0120000484421AD0400095
:1016B000844217D04000844214D04000844211D0AC
:1016C000400184420ED0400084420BD0400084424E
:1016D00008D04000844205D04000844202D040003F
:1016E000844200D104E01149491C11A000F0BEFA67
:1016F0000120000784420BD10A48854202D00A48E3
:10170000854200D104E00B21890109A000F0AEFA66
:10171000286E2040002801D0012600E00026304637
:1017200070BD00000020004000280040BA02000008
:101730002E2E5C2E2E5C2E2E5C4C696272617269BC
:1017400065735C56544D303731785F53746450651F
:10175000726970685F4472697665725C7372635C0B
:1017600056544D303731785F75736172742E630053
:10177000FEB505460C460026002002907D488542B5
:1017800002D07D48854200D103E06E217BA000F0AD
:101790006DFAE068002804D08849E068884200D2E9
:1017A00003E06F2175A000F061FA2069002808D0DD
:1017B0002069202805D02069402802D020696028AF
:1017C00000D103E070216DA000F050FA606900289C
:1017D00002D06069082800D103E0712167A000F001
:1017E00045FAA06900280BD0A069062808D0A06996
:1017F000022805D0A069862802D0A069822800D1DD
:1018000003E072215DA000F031FAFF210131E069AF
:10181000884208D04900E069884204D003210902C7
:10182000E069884200D103E0732154A000F01EFA61
:10183000206A00280DD001218903206A884208D03F
:101840004900206A884204D003218903206A884223
:1018500000D103E0742149A000F008FA606A002872
:1018600004D00121C902606A884200D103E07521D9
:1018700042A000F0FBF92068002812D001210904E1
:10188000206888420DD049002068884209D0032191
:1018900009042068884204D0012189042068884214
:1018A00000D103E0762135A000F0E0F9606800285F
:1018B00012D001210905606888420DD04900606896
:1018C000884209D0032109056068884204D00121BB
:1018D00089056068884200D103E0772127A000F0E5
:1018E000C5F9A068102802D0A068002800D103E044
:1018F000782122A000F0BAF92E6B314806401D482D
:10190000854204D19020FFF7F9FB029006E01A48C7
:10191000854203D19420FFF7F1FB0290E168029A1F
:101920009000FEF7E7FB0746B806810C01913846A8
:101930003F21C943084080090004009001990098A4
:1019400008432169084361690843A1690843A16804
:10195000084306432E632E6A1A48064061682068D1
:101960000843E1690843216A0843616A0843064362
:101970002E62FEBD00200040002800402E2E5C2E6E
:101980002E5C2E2E5C4C69627261726965735C56C6
:10199000544D303731785F537464506572697068A4
:1019A0005F4472697665725C7372635C56544D3045
:1019B0003731785F75736172742E630061E31600CE
:1019C00001C00000FF3488FF70B504460D4607488B
:1019D000844202D00648844200D104E0FF21E53170
:1019E00004A000F043F9256570BD00000020004010
:1019F000002800402E2E5C2E2E5C2E2E5C4C696240
:101A00007261726965735C56544D303731785F533B
:101A100074645065726970685F4472697665725C5F
:101A20007372635C56544D303731785F75736172F1
:101A3000742E6300012149040160090141601021F5
:101A40008160E1214902C1606021016100214161A1
:101A5000816103210902C161002101624162704775
:101A60000FB410B503A9044B044A029800F018F80B
:101A700010BC08BC04B01847C51C0000740000204E
:101A800002E008C8121F08C1002AFAD17047704747
:101A9000002001E001C1121F002AFBD170470000A5
:101AA000FFB58DB00F460546002606E025280AD072
:101AB000109A0F9990476D1C761C28780028F5D154
:101AC000304611B0F0BD00240121674A009400E0C7
:101AD00004436D1C2B780846203B98401042F7D1F8
:101AE00028782E2815D10420044368786D1C2A28F4
:101AF0000AD101CF6D1C00900BE000990A225143DE
:101B0000303940186D1C0090287801463039092979
:101B1000F3D92878692843D006DC0028D0D0632880
:101B20000BD0642804D13BE073280FD075284CD02B
:101B3000109A0F999047761C94E03878694608729D
:101B40000020487202A80190012003E0386801904B
:101B50000020C0433F1D61070CD5002400E0641C39
:101B600000998C420FDA8442F9DB0199095D002962
:101B7000F5D108E0002400E0641C8442FCDB0199FC
:101B8000095D0029F8D1361907E00198019900781C
:101B9000491C0191109A0F999047641EF5D261E09B
:101BA0000A20019001CF002802DA40422D2102E0F4
:101BB000210504D52B216A461172012103E0E107BA
:101BC00001D02021F7E70C9104E00A20019001CF19
:101BD00000210C910BA90B9108E00199FEF78AFAFC
:101BE0000A460B993032491E0B910A700028F4D135
:101BF0000B9803A9081A20300190600701D50098BE
:101C000001E0012000900199884203DD014601981E
:101C1000081A00E000200024009006E002A8109AB4
:101C2000005D0F999047641C761C0C988442F5DB8C
:101C300004E0109A30200F999047761C0099481EB6
:101C400000900029F5DC08E00B980B990078491CFE
:101C50000B91109A0F999047761C0199481E01909C
:101C60000029F1DC6D1C28E70928010004460D4617
:101C70002A46214602A0FFF7F3FE00BFFEE7000060
:101C800057726F6E6720706172616D6574657273F3
:101C90002076616C75653A2066696C652025732035
:101CA0006F6E206C696E652025640D0A00000000CF
:101CB00008B5009000E000BF00994A1E009200297C
:101CC000F9D108BD70B504460D46E1B20648FFF7EC
:101CD0007BFE00BF0121C9060348FFF7D5FC0028A1
:101CE000F8D0204670BD0000002000400025FFF71E
:101CF00053FC24A0FFF7B4FE8020FFF7FFF9044651
:101D00007D210901FEF7F6F905462C46601E2D4996
:101D1000884200D90CE0601E2B4948610321081F4E
:101D2000FFF7FEF80020284988610720086100BFFE
:101D3000FEF7AEFA25E0254800682549086000BF97
:101D4000234800680028FBD1012204210620FEF769
:101D50001FFE012205210620FEF71AFE1B4800681F
:101D60001B49086000BF1A4800680028FBD1002208
:101D700004210620FEF70CFE002205210620FEF7B6
:101D800007FED8E70D0A2D2D2D2D2D2D2D2D2D2DB6
:101D90002D2D2D2D2D2D2D7C2D2056544D303731B0
:101DA0007820537464506572697068202D7C2D2DE5
:101DB0002D2D2D2D2D2D2D2D2D2D2D2D2D2D2D0D73
:101DC0000A000000FFFFFF0000E000E00800002024
:101DD0000400002041543234433235360000000004
:101DE0004154323443303800081E00000000002007
:101DF00078000000801A0000801E0000780000209B
:101E000000080000901A000000BD0105000000005D
:101E10001E000000E01D0000A00000000000000007
:101E2000000400001000000001000000020000009B
:101E30007E0000004B01000085010000D41D000061
:101E4000A000000000000000008000004000000032
:101E500002000000020000007E0000004B010000B4
:101E60008501000034000020000000000000000098
:101E70000000000000000000000000000000000062
:04000005000000C136
:00000001FF
