:020000040000FA
:10000000603D0020D9000000E1000000A1010000D7
:1000100000000000000000000000000000000000E0
:10002000000000000000000000000000714A000015
:1000300000000000000000001F010000094C00004B
:1000400000000000000000000000000000000000B0
:1000500000000000EB000000EB000000EB000000DF
:10006000EB000000A14F000005500000EB00000075
:1000700000000000EB000000314C0000EB0000002D
:10008000EB000000EB000000D11D0000710F00002C
:10009000EB000000EB000000EB000000EB000000B4
:1000A000EB0000000D2C0000EB000000EB00000056
:1000B00000000000EB000000EB000000EB0000007F
:1000C0000448854600F058FD00480047950C0000A4
:1000D000C046C046603D00200448804704480047B1
:1000E000FEE7FEE7FEE7FEE7FEE7FEE7194C00004D
:1000F000C1000000EFF3108072B6704780F31088E3
:1001000070472A4A1368012B03D001231360284A41
:100110001060284A11602848284901607047EFF3B1
:10012000108272B62148016800291DD000210160AB
:100130001F48016800290AD0EFF3098120390068BF
:100140000160F0C144464D4656465F46F0C119492C
:1001500009680968F0C9F0B4F0C9A046A946B246DA
:10016000BB46F0BC81F3098882F31088042040422A
:100170000047104908600E49002008600B49012023
:1001800008600F480F490268114301600A480B4993
:1001900001600D480068006880F3088862B6704707
:1001A000EFF3098000B50AF06FF800BDEC070020FE
:1001B000E4070020E807002004ED00E00000001044
:1001C00020ED00E00000FFFF08ED00E030B50B4639
:1001D000014600202022012409E00D46D5409D4221
:1001E00005D31D469540491B2546954040191546A7
:1001F000521E002DF1DC30BD70B5002425460028CC
:1002000001DA01244042002901DA01254942FFF7C1
:10021000DDFFAC4200D04042002C00D0494270BD0E
:1002200001464139192900D82030704770B5194C62
:1002300000683C21FFF7CAFF21603C21FFF7C6FFA1
:1002400061601821FFF7C2FF0546A1600721001D6C
:10025000FFF7BCFFA1611048A90008180F49FFF77C
:10026000B5FF443060618808E0613B2803D3217DFD
:10027000890700D0401C0021094B0A462161995C86
:10028000814203D8401A521C2261F8E7401CE0600A
:10029000204670BD343500206C0B0000B505000011
:1002A00080EE000003460B439B0703D009E008C91A
:1002B000121F08C0042AFAD203E00B780370401C16
:1002C000491C521EF9D27047D2B201E00270401CA4
:1002D000491EFBD270470022F6E710B513460A46C6
:1002E00004461946FFF7F0FF204610BD421E537822
:1002F000521C002BFBD10B781370491C521C002B95
:10030000F9D1704730B505462A460B4610781C785F
:10031000521C5B1C002801D0A042F7D0002C03D057
:10032000002802D06D1CEFE7284630BD10B504460A
:1003300005E00B780370401C002B00D0491C521EB6
:10034000F7D2204610BD421C0178401C0029FBD189
:10035000801A704710B5002200E0521C835C8C5C50
:10036000A34201D1002BF8D1D8B2E1B2401A10BD9E
:1003700003460A780270401C491C002AF9D118462D
:10038000704730B505460020034600E05B1C9342F1
:1003900005D2EC5CC85C201A01D1002CF6D130BD2E
:1003A000024670B54A40D30FDB0740002DD04A000B
:1003B0002AD0010E140E000212020919400A520A34
:1003C0008418E50104465443000A120A2E045043DF
:1003D000A4194219200CC543AA18120C0125AD031B
:1003E000521C521912047F39240400D0521C1043AD
:1003F00001D44000491EC2B20C06C0092018401C9E
:100400004008802A02D003E0002070BD4008400070
:10041000002900DA0020184370BD70B502464A403A
:10042000D50F40004A00ED0740085208002814D0BC
:10043000002A12D0C40DD30D41020120C005520282
:10044000490A520AE41A091812187D34914201D35C
:10045000641C00E04900002C01DA002070BD00237C
:10046000914201D3891A0343400849000028F7D17B
:1004700000290AD0914202D10121C90705E0914229
:1004800001D2012101E00121C943E005C018401952
:1004900000F09CFA70BD0000F0B5074608465840D1
:1004A00087B0C00F049048000E4659004008490824
:1004B000BC1A884105D2384631461E4617460B46BF
:1004C00002465800400810434DD0300D03904005BF
:1004D0005900400D490D0590401A0290402873DAEA
:1004E00018030121000B09050843019004980092AC
:1004F000002806D01146019A4942002090410091FF
:100500000190029840210A1A0199009800F02AFAF5
:1005100005460C466B4607CB00F045FAC019714101
:10052000039A0E0D0023D71756401A467A401643F9
:1005300044D0049A002A2DD0029A012A039A15DC8D
:100540001205C01A914101263605001C7141D20FD7
:10055000059ED2070093019202962A46234600F098
:1005600083FA07B0F0BD38463146FAE71605234A4C
:100570000F46B218C01AB74101210905001C4F41AE
:1005800000187F41114618187941E20F10436D1988
:10059000644113E0E2076D0815436408C207144381
:1005A000039A01261205C01A91413605001C7141BB
:1005B000CE07400830434908C01851412A46234617
:1005C00000F045FACDE7FFE7049801224000C1178B
:1005D000121A00238B4104983146C417381AA141DE
:1005E000EEE730B40124E407634030BC54E730B494
:1005F0000124E407614030BC4EE700000000E0FF4A
:10060000F0B51FB488B00B990998002448400999A7
:10061000C00F490049080991C0070B990090490093
:1006200049080B9109990898A64608431CD00B99D4
:100630000A98084318D0099801244000420D480048
:10064000410D099824050003000B204309900B98E5
:100650000003000B20430B9050181C494018002247
:1006600001901446104605E0002001460DB0F0BD93
:10067000032801DA034600E003239C46C11A0AAEB0
:100680000AE05F0008ADED5B4F00F75B7D4300279C
:10069000AA187C41491C5B1E6145F2DD410004AB98
:1006A0005A522104120C0A43240C401C0828DFDB98
:1006B000019802900099704601910090059B049A60
:1006C0000799069800F0D0F9D0E700000DFCFFFF75
:1006D000F0B50C465C4085B0E40FE40703944C0091
:1006E00000266408590094464908024602962243AF
:1006F00021D062460A431ED06200570D4A000E0305
:100700002303550D012402462C492405781B1B0B9D
:10071000360B401823432643614600901C46501A6E
:10072000B44103D30098401C009002E09218009856
:100730005B41002803DA0020014605B0F0BD00202F
:10074000012109050746864611E064461D46141B33
:10075000B54106D36546521BB341744607430C436B
:10076000A646CD0740084908284392185B41054634
:100770000D43EAD11046184313D060461946504045
:100780007140084306D06046101AB34106D20122D8
:10079000002306E000220123DB0702E00122D2430E
:1007A0005310009874460105381C6141029C039D5A
:1007B0000019694100F04BF9BFE70000FD0300009C
:1007C000C217C10F504010B54018CA079623002128
:1007D00000F004F910BD10B500229623114600F078
:1007E000FDF810BD0EB5C217C10F5040CA07401822
:1007F0000021054B0293019200910A460B4600F03E
:1008000033F903B000BD0000330400004100400292
:100810000122400AD205090E80187F2901DA002042
:100820007047962903DC9622511AC84070479639C2
:100830008840704770B5CD0F4A0009030123090BAA
:100840001B0519430B4BED070024520D9A4201DAA8
:10085000002070BD074B34339A4203DC9A1A00F033
:1008600091F802E00449511888402C43F1D04042ED
:1008700070BD0000FF030000CDFBFFFFC20FD207D9
:10088000400040080BD0C10D0723DB01C91840020E
:100890000905400A1143C208400711437047002070
:1008A0000146704710B5002904DB0124E4074042EB
:1008B0008C412146002B04DB1C460123DB075242FE
:1008C000A341994200D1904210BD0000CB0FDB073D
:1008D000490010B5490802460A4307D00A0D07240B
:1008E0000903E401090B121B002A01DC002010BDE2
:1008F000C900440F0C43C100E018D205801800F075
:1009000065F810BDF0B51FB40646002082B005465C
:100910004024019100901BE0019922460F46304689
:1009200000F030F8049A059B801A994110D31046C4
:100930001946224600F016F8361A8F4101972246D2
:1009400001200021009F00F00DF838184D41009063
:100950002046641E0028DFDC019B009829463246B1
:1009600007B0F0BD10B5202A04DB0146203A9140C3
:10097000002010BD914020239C1A0346E3401943F8
:10098000904010BD10B5202A04DB0846203AD04024
:10099000002110BD0B46D340D0402024A21A914024
:1009A0000843194610BD10B5202A06DBCB170846B0
:1009B000203A1041C1170B4306E00B461341D040CB
:1009C0002024A21A91400843194610BD002904DAD8
:1009D000401C490001D140084000704770B4002419
:1009E000050C05D11024000402D1002921D01124C6
:1009F000050E01D100020834050F01D10001241DAC
:100A0000850F01D18000A41C002801DB4000641C7C
:100A1000002908D020252E1B0D46F540A14000D00E
:100A200001212943084301061B1B000ADB1D02D5D7
:100A3000002070BC7047DB05181880180029F8DA10
:100A4000401C4900F5D170BC40084000704710B50B
:100A5000002B08DA0024401C614192185B411A43C4
:100A600001D14008400010BDF0B51FB482B005466A
:100A70000C0003D0084605F0BBF802E005F0B8F81A
:100A800020300246009021462846FFF76BFF049B6A
:100A9000059A04460F4618431143084314D01846DC
:100AA00010431BD0009840210A1A18460599FFF7F9
:100AB00069FF05460E46009A05990498FFF752FF14
:100AC000084305D0012004E02046394607B0F0BDB8
:100AD0000020C11705430E432C43374300990E985D
:100AE0006305401A7905E40A00220C43FD0A0A3026
:100AF00002D500200146E9E70105101969410C9C67
:100B00000D9D00196941FFF7A2FFDFE770B54B00AB
:100B10005B0803430BD04B005C0D00263346654257
:100B2000B341D417AD1AA34102DB0020014670BDCA
:100B300012053018514170BD4A0009030123090B09
:100B40001B0519430A4B10B5520D9A4202DA0020D8
:100B5000014610BD064B34339A4203DC9A1AFFF764
:100B600011FF10BD034BD218FFF7FCFE10BD0000B3
:100B7000FF030000CDFBFFFF064C0125064E05E0FC
:100B8000E36807CC2B430C3C98471034B442F7D3AE
:100B9000FFF79AFAF0F8000010F90000FEB5002304
:100BA0001A461B1A8A4103DB0020014603B0F0BD40
:100BB0004A000D0301212D0B0905520D0D43D107EC
:100BC00002D100186D41521E5110FF31FF31013129
:100BD000002704463E46384600970191024601210F
:100BE00000200905FFF7CEFEC3197141F8183246FF
:100BF00084468E464A4161462846611A904104D394
:100C00006046241A954176461F46241900986D4186
:100C1000401C00903428E1DDF91930467041091B71
:100C2000A84103D20022D243134601E0002213461A
:100C300001980105381C7141FFF709FFB6E770B54F
:100C40008C180578401C6B075B0F01D10378401CA2
:100C50002A1106D10278401C03E006780E70401C71
:100C6000491C5B1EF9D12B0705D40023521E0DD45D
:100C70000B70491CFAE70378401CCB1A921C03E066
:100C80001D780D70491C5B1C521EF9D5A142D8D3AA
:100C9000002070BD10B50AF0FFFE002010BD00005E
:100CA00008B500F089F802207D231B0100220449C9
:100CB000009004A00AF0FCFD07490860002008BD70
:100CC000DD0C000041444350726F63657373536FD2
:100CD000667454696D6572004C070020704700000F
:100CE00010B50446002C04D0200C0004002800D1CC
:100CF00004E0FF21DC3104A005F0A4FD1248806A65
:100D000020431149886210BD2E2E5C2E2E5C2E2EA3
:100D10005C4C69627261726965735C56544D303720
:100D200031785F5374645065726970685F447269AA
:100D30007665725C7372635C56544D303731785F00
:100D40006164632E630000000050004010B504464B
:100D5000002C05D09C2120468843002800D103E0C8
:100D6000034904A005F06EFD1248046010BD0000A8
:100D7000F70200002E2E5C2E2E5C2E2E5C4C69623B
:100D80007261726965735C56544D303731785F53C8
:100D900074645065726970685F4472697665725CEC
:100DA0007372635C56544D303731785F6164632EE3
:100DB000630000000050004010B58AB000240122FA
:100DC0000021084601F01AF801221146002001F026
:100DD00015F81321684601700021417001218170CE
:100DE00002F040FB0021042003F032FA0821B02079
:100DF00003F07AFA0121080203F044F800F024F825
:100E000001A800F0EFFA0120800208900F20800175
:100E1000099001A800F002F9002000F021F801205B
:100E200000F094FA0320FFF75BFF00BF00E0641CB2
:100E3000012040038442FAD300F0CAFA01210820BD
:100E400000F0A0F80AB010BD10B50121080203F0AF
:100E500071F80021FF20013003F06CF810BD000094
:100E600010B50446002C01D0012C00D103E00B4941
:100E70000BA005F0E7FC002C07D01948C068012141
:100E8000090408431649C86006E01548C0680121F6
:100E9000090488431249C86010BD00000702000021
:100EA0002E2E5C2E2E5C2E2E5C4C69627261726955
:100EB00065735C56544D303731785F5374645065B8
:100EC000726970685F4472697665725C7372635CA4
:100ED00056544D303731785F6164632E63000000F3
:100EE0000050004070B5044600250026042C05D0B3
:100EF000082C03D0102C01D0802C00D103E00A492B
:100F00000AA005F09FFC1948406820400646174893
:100F100000682040002803D0002E01D0012500E009
:100F20000025284670BD0000D60200002E2E5C2E43
:100F30002E5C2E2E5C4C69627261726965735C5620
:100F4000544D303731785F537464506572697068FE
:100F50005F4472697665725C7372635C56544D309F
:100F60003731785F6164632E6300000000500040F9
:100F700010B50820FFF7B6FF012802D10C20FFF7BB
:100F8000E5FE10BD70B504460D46002D01D0012DC3
:100F900000D103E00F4910A005F054FC002C05D04F
:100FA0009C2120468843002800D104E00949491CBF
:100FB00009A005F047FC002D05D0174840682043E4
:100FC0001549486004E014484068A043124948604D
:100FD00070BD0000790200002E2E5C2E2E5C2E2E9D
:100FE0005C4C69627261726965735C56544D30374E
:100FF00031785F5374645065726970685F447269D8
:101000007665725C7372635C56544D303731785F2D
:101010006164632E630000000050004070B5044618
:1010200000252068002808D02068082805D02068FE
:10103000102802D02068182800D103E05421AAA06B
:1010400005F000FC207E002802D0207E012800D17F
:1010500003E05521A4A005F0F5FBE06900280DD0C0
:1010600001218902E069884208D04900E06988428C
:1010700004D003218902E069884200D103E05621AF
:1010800099A005F0DFFB206A00287DD0206A402867
:10109000FBD0206A8028F8D0206AC02874D0FF21B5
:1010A0000131206A88426FD0FF214131206A884295
:1010B0006AD0FF218131206A884265D0FF21C13189
:1010C000206A884260D001214902206A88425BD0B0
:1010D00009218901206A884256D00521C901206A68
:1010E000884251D00B218901206A88424CD00321CB
:1010F0000902206A884247D00D218901206A88426E
:101100007CD00721C901206A884277D00F2189014C
:10111000206A884272D001210906206A88426DD077
:101120008149206A884269D07F494031206A8842DB
:1011300064D07D498031206A88425FD04906206AA8
:1011400088425BD07949206A884257D0774940313C
:10115000206A884252D075498031206A88424DD039
:101160007249C031206A884248D07149206A884259
:1011700044D06F494031206A88423FD06C49803169
:10118000206A88423AD000E038E06949C031206ADC
:10119000884233D06749206A88422FD06549403160
:1011A000206A88422AD063498031206A884225D04B
:1011B0006049C031206A884220D05F49206A884255
:1011C0001CD05D494031206A884217D05A4980318D
:1011D000206A884212D081210906206A88420DD0F7
:1011E0005649206A884209D054494031206A8842D1
:1011F00004D052498031206A884200D103E057214F
:1012000039A005F01FFB6069002802D06069202822
:1012100000D103E0582134A005F014FB2069002818
:1012200002D02069042800D103E059212EA005F046
:1012300009FB6068002808D06068012805D0606854
:10124000022802D06068032800D103E05A2126A0BA
:1012500005F0F8FAA068002808D0A068102805D08A
:10126000A068202802D0A068302800D103E05B21CC
:101270001DA005F0E7FAE068002808D001218907E1
:10128000E068884203D04900E068884200D103E06A
:101290005C2115A005F0D6FA2948C5682948054003
:1012A000217E490320680843E1690843216A084315
:1012B000616908432169084305432148C560056900
:1012C000AD00AD08E06805431D4805611E4805688E
:1012D0003321284688430546A168606808430543D2
:1012E0001948056070BD00002E2E5C2E2E5C2E2E3F
:1012F0005C4C69627261726965735C56544D30373B
:1013000031785F5374645065726970685F447269C4
:101310007665725C7372635C56544D303731785F1A
:101320006164632E63000000400000014000008003
:1013300040010080400200804003008040000081A6
:101340000050004003D0FF7F0054004010B5044619
:10135000002C01D0012C00D103E00B490BA005F0BB
:1013600071FA002C07D01948C0680121090308430D
:101370001649C86006E01548C06801210903884382
:101380001249C86010BD00001E0200002E2E5C2E07
:101390002E5C2E2E5C4C69627261726965735C56BC
:1013A000544D303731785F5374645065726970689A
:1013B0005F4472697665725C7372635C56544D303B
:1013C0003731785F6164632E630000000050004095
:1013D0000348806804210843014988607047000081
:1013E00000500040002101600176C161016241614D
:1013F000016141608160C1607047000070B50546C1
:101400000C465EA1606809F0AFFE00280BD1FF23F7
:10141000F53300225AA159A000F074FA59495AA094
:1014200009F072F8A8E05AA1606809F09DFE002852
:1014300006D100F0DDFB534956A009F065F89BE0AA
:1014400055A1606809F090FE002806D100F094FBD9
:101450004C4950A009F058F88EE050A1606809F09E
:1014600083FE002807D1012000F086FB454949A0F2
:1014700009F04AF880E04AA1606809F075FE00288A
:1014800007D1022000F078FB3E4942A009F03CF869
:1014900072E045A1606809F067FE002808D1E168A4
:1014A000A06800F0E9FA37493AA009F02DF863E0A6
:1014B0003FA1606809F058FE002806D100F0C8FA84
:1014C000304934A009F020F856E03CA1606809F0EA
:1014D0004BFE002816D13CA1A06809F045FE00286B
:1014E00005D105232269E16800F0E6FA05E005234D
:1014F00001202269E16800F0DFFA224925A009F005
:1015000003F839E031A1606809F02EFE002806D109
:1015100000F0E6F91B491FA008F0F6FF2CE02EA111
:10152000606809F021FE002806D100F00DFC154985
:1015300018A008F0E9FF1FE02AA1606809F014FE76
:1015400000280ED1A06809F01EFE0646052332468B
:101550000120A16800F05CFB25A0A16808F0D4FF81
:101560000AE027A1606809F0FFFD002804D100F01F
:1015700027FA27A008F0C8FF70BD00004154000002
:101580004F4B00004809002025730D0A00000000A1
:101590005253540025730A00535441004150000037
:1015A0005354415F415000004A6F696E4150000042
:1015B0006970636F6E666967000000004C696E6B4E
:1015C000536572766572000054435000436C6F732C
:1015D000654C696E6B000000556E7661726E6973C2
:1015E0006800000053656E6444617461000000008F
:1015F00053656E6420446174613A25730D0A0000DE
:1016000045786974556E7661726E69736800000082
:1016100045786974556E7661726E6973682053758A
:101620006363657373210D0A0000000070B5044602
:10163000012000070B498860012009F077FF802115
:101640002143084602F0F0FFFF2002F0EDFFC5B293
:10165000012009F06BFF012000070249486028467D
:1016600070BD00000000024070B504460D46012028
:1016700000070B498860012009F058FF6006400E02
:1016800002F0D2FFC6B2284602F0CEFF012009F0D8
:101690004DFF0120000702494860304670BD000040
:1016A0000000024010B502F047FF002010BD10B549
:1016B0000446002C04D10122052100F0BBFF04E008
:1016C00000220521104600F0B5FF10BD1CB5052015
:1016D000009000216846417105210171002181714E
:1016E0006946002000F068FE1CBD000010B50446ED
:1016F0002068002826D020688047002822D0207942
:101700006179884203DA2079401C207110BDA07AEB
:10171000002809D10120A072012221460C31154870
:10172000006809F0BDF9F1E7E188481CE0802089F4
:1017300081421CD1012221460D310E48006809F07A
:10174000AFF9E3E72079002803D02079401E20710B
:10175000DCE7A07A012808D10020A07201222146EE
:101760000B310448006809F09BF90020E08000BFBD
:10177000CCE70000480700201CB5042000900021A1
:10178000684641710421017101218171694604207B
:1017900000F012FE052000900021684641710421EE
:1017A0000171012181716946042000F005FE0020CD
:1017B000009000216846417104210171012181716D
:1017C0006946022000F0F8FD1CBD10B5FFF7D4FFFC
:1017D00000F014F810BD000010B50548FFF786FFB3
:1017E0000448FFF783FF0448FFF780FF10BD0000A7
:1017F0001809002028090020380900201E481F4928
:101800000860002008710A2048710020C8807D20EF
:10181000C0000881002088720220C872012008736D
:1018200003204873164817490860002008710A20F1
:1018300048710020C8807D20C00008810020887287
:101840000520C87204200873062048730E480F490B
:101850000860002008710A2048710020C8807D209F
:10186000C0000881002088720820C8720720087311
:101870000920487370470000FB3000001809002061
:10188000113100002809002027310000380900200C
:1018900070B506460A480068FEF7F0FF0446224687
:1018A0000B4608A10D4804F077F90C48FEF74BFDF4
:1018B0000446052322460949012000F0A9F970BD1C
:1018C000540700200D0A54656D706572617475725D
:1018D00065A3BA20252E31660D0A00004A0B0020B0
:1018E00010B5FF23F533002202A103A000F00AF88F
:1018F00010BD00004F4B000041542B434950434C56
:101900004F534500F8B506460C4615461F46274876
:101910000088C00BC00325490880324624A1264810
:1019200004F060F8002C03D1002D01D10120F8BD96
:10193000384609F0FBFD00211C4800884004400C9B
:101940001E4A1154002C1BD0002D19D021461046E0
:10195000FEF7D8FC002801D0012000E0002000287C
:101960000AD129461548FEF7CDFC002801D00120F8
:1019700000E00020002801D00120D8E70020D6E7B1
:10198000002C09D021460D48FEF7BCFC002801D0F0
:101990000120CCE70020CAE729460848FEF7B2FC40
:1019A000002801D00120C2E70020C0E7480B00203A
:1019B00025730D0A0000000000280040480900209F
:1019C00010B57D20C00009F0B1FD04A1044804F069
:1019D00009F8FF20F53009F0A9FD10BD2B2B2B00D5
:1019E000002800401CB50420009000216846417189
:1019F00005210171002181716946002000F0DCFCA5
:101A000005200090002168464171052101710021E7
:101A100081716946002000F0CFFC1CBD10B5FFF7B6
:101A2000E1FF00F043F900220521104600F002FE1C
:101A30001E2009F07BFD01220521002000F0FAFDA7
:101A400001220421002000F0F5FD002010BD00005F
:101A500010B5FF23F533002202A104A0FFF752FFC7
:101A600010BD00002B43494653523A0041542B43CA
:101A7000494653520000000030B59FB004460D4661
:101A80002B46224605A101A804F086F8084B002247
:101A900008A101A8FFF736FF1FB030BD41542B430A
:101AA000574A41503D222573222C222573220000E3
:101AB000881300004F4B0000F0B5B9B006460F4642
:101AC00014461D46642120A8FEF705FC002E02D016
:101AD000012E10D107E03B4613A214A120A80094C8
:101AE00004F05AF808E03B4614A210A120A8009484
:101AF00004F052F800E000BF00BF052D06DA20AB6D
:101B00002A460FA102A804F047F804E020AA11A178
:101B100002A804F041F87D235B0112A215A102A8DE
:101B2000FFF7F0FE39B0F0BD544350002225732278
:101B30002C222573222C25730000000055445000F0
:101B400041542B43495053544152543D25642C2554
:101B50007300000041542B43495053544152543DAB
:101B600025730000414C5245415920434F4E4E458C
:101B7000435400004F4B000010B50446002C04D025
:101B8000012C09D0022C15D10DE00B4B0BA20EA19C
:101B90000EA0FFF7B7FE10BD074B08A20AA10EA0CA
:101BA000FFF7B0FEF7E7044B04A207A10DA0FFF773
:101BB000A9FEF0E70020EEE7C40900006E6F206385
:101BC00068616E67650000004F4B000041542B4375
:101BD000574D4F44453D310041542B43574D4F44E1
:101BE000453D320041542B43574D4F44453D330052
:101BF00010B500220521104600F01CFDFF20F53035
:101C000009F094FC01220521002000F013FD10BD15
:101C1000F0B587B007460C4615461E4600200190D9
:101C2000002F07D0224613A1134803F0DBFE01204A
:101C300001901CE0052E06DAAB1C32460FA102A86B
:101C400003F0AAFF04E0AA1C11A102A803F0A4FF5C
:101C50007D23DB00002212A102A8FFF753FE7D23A3
:101C6000DB0000220FA12046FFF74CFE01900198F7
:101C700007B0F0BD257300000028004041542B43FD
:101C8000495053454E443D25642C25640000000016
:101C900041542B43495053454E443D2564000000B8
:101CA0003E20000053454E44204F4B0000B58DB000
:101CB0000A2001218140214A116000BF012120201A
:101CC00002F0E0F8012002F051FB0121942002F023
:101CD0000BFB02200B90002108A841740121017424
:101CE000002181740BA9002000F066FB03200B90FB
:101CF0000BA9002000F060FB114803F089FA01A84D
:101D000003F05AFE01A90E4803F072FC01210C48B1
:101D100003F03AFA01221105094803F0DDFB142112
:101D2000074803F091FD01220649054803F0D4FB62
:101D30000121034803F028FA0DB000BD00E100E0E6
:101D4000002800400000108010B5FF23F53300226A
:101D500007A108A0FFF7D6FD002800D110BDFF2382
:101D6000F53308A202A108A0FFF7CCFDF6E70000BA
:101D70004F4B000041542B4349504D4F44453D319A
:101D8000000000003E00000041542B4349505345E1
:101D90004E4400001CB500200090002168464171AF
:101DA00004210171012181716946012000F004FBC9
:101DB000122001218140054A116000BF01231A460B
:101DC0000021184600F070F91CBD000000E100E0A1
:101DD00008B501200090002100F0DCF8012809D1AD
:101DE000012269460448006808F05AFE00210120DB
:101DF00000F06CF808BD000008070020F8B50546A3
:101E00000C461746002D0BD0012D09D0022D07D00E
:101E1000032D05D0042D03D0052D01D0062D00D1B2
:101E200003E0872118A004F00DFD002C0DD0012C3B
:101E30000BD0022C09D0032C07D0042C05D0052C84
:101E400003D0062C01D0072C00D103E088210EA07E
:101E500004F0F8FC002F01D0012F00D103E089210C
:101E600009A004F0EFFCE8000019800016494618AC
:101E7000002F04D0306820210843306003E0306830
:101E8000202188433060F8BD2E2E5C2E2E5C2E2E35
:101E90005C4C69627261726965735C56544D30378F
:101EA00031785F5374645065726970685F44726919
:101EB0007665725C7372635C56544D303731785F6F
:101EC0006770696F2E6300000010004070B5054612
:101ED0000C46002D0BD0012D09D0022D07D0032D6B
:101EE00005D0042D03D0052D01D0062D00D103E02F
:101EF000154916A004F0A6FC002C0DD0012C0BD027
:101F0000022C09D0032C07D0042C05D0052C03D0BB
:101F1000062C01D0072C00D104E00B49491C0BA072
:101F200004F090FC032D07D9281FC00001190120DF
:101F300088401649486305E0E800011901208840FF
:101F40001349486370BD0000060200002E2E5C2E6F
:101F50002E5C2E2E5C4C69627261726965735C56F0
:101F6000544D303731785F537464506572697068CE
:101F70005F4472697665725C7372635C56544D306F
:101F80003731785F6770696F2E63000040800340CF
:101F900040800240F8B504460D4600270026002C7C
:101FA0000BD0012C09D0022C07D0032C05D0042C17
:101FB00003D0052C01D0062C00D104E0FF21E03134
:101FC00027A004F03FFC002D0DD0012D0BD0022DD9
:101FD00009D0032D07D0042D05D0052D03D0062DE3
:101FE00001D0072D00D104E0FF21E1311CA004F055
:101FF00029FC032C09D92A480068211FC9004A1965
:10200000012191400840064607E026480068E100AB
:102010004A190121914008400646032C0FD9204857
:102020000069211FC9004A19012191400840002878
:1020300003D0002E01D001270FE000270DE0194842
:102040000069E1004A19012191400840002803D0AD
:10205000002E01D0012700E000273846F8BD00001F
:102060002E2E5C2E2E5C2E2E5C4C69627261726983
:1020700065735C56544D303731785F5374645065E6
:10208000726970685F4472697665725C7372635CD2
:1020900056544D303731785F6770696F2E6300009A
:1020A0004080034040800240F8B504460D46164685
:1020B0001F46002F01D0012F00D104E0FF216F3116
:1020C000ABA004F0BFFB002C0BD0012C09D0022CDC
:1020D00007D0032C05D0042C03D0052C01D0062CEE
:1020E00000D104E0FF217031A1A004F0ABFB002D72
:1020F0000DD0012D0BD0022D09D0032D07D0042DBA
:1021000005D0052D03D0062D01D0072D00D104E008
:10211000FF21713196A004F095FB002E07D0012E0F
:1021200005D0022E03D0032E01D0042E00D104E0EE
:10213000FF2172318EA004F085FB002F77D0002E96
:1021400039D1032C1DD9201FC0004119012088401E
:1021500097498861201FC000411901208840944997
:102160008862201FC000411901208840904988637F
:10217000201FC0004119012088408D49403148602E
:10218000F5E0E0004119012088408A498861E000BB
:1021900041190120884087498862E00041190120E7
:1021A000884084498863E0004119012088408149C2
:1021B00040314860DBE0012E3AD1032C1DD9201FAD
:1021C000C00041190120884079498861201FC00062
:1021D00041190120884076498862201FC0004119BA
:1021E0000120884072494863201FC0004119012026
:1021F00088406F4940314860B9E0E0004119012052
:1022000088406C498861E000411901208840694993
:102210008862E00041190120884066494863E00077
:102220004119012088406349403148609FE08CE0BB
:10223000022E2CD1032C16D9201FC00041190120D9
:1022400088405B498861201FC000411901208840F7
:1022500057494862201FC000411901208840544955
:102260004031486083E0E000411901208840514935
:102270008861E0004119012088404E494862E00031
:102280004119012088404B49403148606FE0032EDE
:102290002CD1032C16D9201FC000411901208840E1
:1022A00043494861201FC00041190120884040492E
:1022B0008863201FC0004119012088403C494031FB
:1022C000486054E0E00041190120884039494861E4
:1022D000E00041190120884036498863E000411937
:1022E0000120884033494031486040E0042E3ED10F
:1022F000032C16D9201FC0004119012088402C4909
:102300004861201FC00041190120884028494863C6
:10231000201FC000411901208840254940314860F4
:1023200025E0E00041190120884022494861E00091
:102330004119012088401F494863E00041190120EC
:1023400088401C494031486011E0032C08D9201F07
:10235000C00041190120884015494031886006E0DD
:10236000E000411901208840124940318860F8BDE1
:102370002E2E5C2E2E5C2E2E5C4C69627261726970
:1023800065735C56544D303731785F5374645065D3
:10239000726970685F4472697665725C7372635CBF
:1023A00056544D303731785F6770696F2E63000087
:1023B0000080034000800240F8B505460C46002D21
:1023C0000BD0012D09D0022D07D0032D05D0042DEF
:1023D00003D0052D01D0062D00D103E04B214EA0E6
:1023E00004F030FA207904280ED0207905280BD08B
:1023F0002079012808D02079022805D020790328E7
:1024000002D02079002800D103E04C2142A004F042
:1024100019FA2068002814D02068012811D02068FB
:1024200002280ED0206803280BD02068042808D08A
:102430002068052805D02068062802D020680728D3
:1024400000D103E04D2134A004F0FCF960790128AB
:1024500002D06079002800D103E04E212EA004F0C4
:10246000F1F9A079002805D0A079022802D0A0793E
:10247000012800D103E04F2127A004F0E3F9E80090
:10248000216840188000344947183E6820790028A8
:1024900001D1202635E02079042815D1B608B600F0
:1024A000032D08D9281FC000217841180120884039
:1024B0002A49886025E02846C0002178411801207B
:1024C0008840274988601CE02079052815D1B60886
:1024D000B600032D08D9281FC0002178411801201B
:1024E00088401E4948600CE02846C0002178411809
:1024F000012088401A49486003E0B608B6002079F8
:102500000643607940020643A079C000064380205C
:1025100006433E60F8BD00002E2E5C2E2E5C2E2E53
:102520005C4C69627261726965735C56544D3037F8
:1025300031785F5374645065726970685F44726982
:102540007665725C7372635C56544D303731785FD8
:102550006770696F2E630000001000400080034028
:1025600000800240F8B504460D460027002C0BD031
:10257000012C09D0022C07D0032C05D0042C03D049
:10258000052C01D0062C00D103E0BF2117A004F0D8
:1025900059F9002D0DD0012D0BD0022D09D0032D9E
:1025A00007D0042D05D0052D03D0062D01D0072D11
:1025B00000D103E0C0210DA004F044F9032C09D997
:1025C0001A480668201FC00041193046C840C70796
:1025D000FF0F08E0164806682046C0004119304643
:1025E000C840C707FF0F3846F8BD00002E2E5C2EEE
:1025F0002E5C2E2E5C4C69627261726965735C564A
:10260000544D303731785F53746450657269706827
:102610005F4472697665725C7372635C56544D30C8
:102620003731785F6770696F2E63000000000340E8
:102630000000024070B504460D461646002C0BD033
:10264000012C09D0022C07D0032C05D0042C03D078
:10265000052C01D0062C00D103E0DE2123A004F0DC
:10266000F1F8002D0DD0012D0BD0022D09D0032D36
:1026700007D0042D05D0052D03D0062D01D0072D40
:1026800000D103E0DF2119A004F0DCF8002E01D016
:10269000012E00D103E0E02114A004F0D3F8002EB5
:1026A00011D0032C07D9201FC000411901208840F8
:1026B0001E49486018E02046C000411901208840AA
:1026C0001B49486010E0032C07D9201FC0004119A6
:1026D000012088401549886006E02046C000411965
:1026E000012088401249886070BD00002E2E5C2EAB
:1026F0002E5C2E2E5C4C69627261726965735C5649
:10270000544D303731785F53746450657269706826
:102710005F4472697665725C7372635C56544D30C7
:102720003731785F6770696F2E63000000000340E7
:10273000000002401CB500240020FEF777FF694628
:1027400008706846017834A007F0DEFE0320FEF72B
:102750006DFF014668464170417835A007F0D4FE10
:102760004120FEF763FF014668468170817839A0F9
:1027700007F0CAFE4320FEF759FF01466846C170C4
:10278000C1783FA007F0C0FE2020FEF74FFF0146B2
:10279000684601712120FEF749FF014668464171F4
:1027A000047924024079001984B26846427901799B
:1027B0003EA007F0A9FE0120C003844218DD201AC4
:1027C00084B22046E117C90D09184C12292C07DDE7
:1027D0002046293884B2214640A007F095FE14E037
:1027E0002920001B84B2214648A007F08DFE0CE092
:1027F0002046E117C90D0918C9010C0C20461730F5
:1028000084B221464DA007F07FFE04F08DFF05F055
:102810006FF800201CBD0000B6C1C8A14944626D1C
:10282000693136305F6964203D202578200A0A002E
:10283000B6C1C8A1C9E8B1B8D7B4CCAC626D693132
:1028400036305F737461747573203D202578200ADB
:102850000A000000B6C1C8A1BCD3CBD9B6C8B9A480
:10286000D7F7D7B4CCAC626D693136305F61636342
:102870005F72616E6765203D202578200A0A00009E
:10288000B6C1C8A1BDC7CBD9B6C8B9A4D7F7D7B40C
:10289000CCAC626D693136305F6779725F72616EA0
:1028A0006765203D202578200A0A0000B6C1C8A12E
:1028B000CDD3C2DDD2C7CEC2B6C8CAFDBEDD20743C
:1028C000656D70657261747572655F6461746120B5
:1028D0003D2025785F2578200A0A0000B6C1C8A1EE
:1028E000CDD3C2DDD2C7CEC2B6C8CAFDBEDD31204F
:1028F00074656D70657261747572655F6461746131
:10290000203D202564200A0A00000000B6C1C8A1AD
:10291000CDD3C2DDD2C7CEC2B6C8CAFDBEDD31201E
:1029200074656D70657261747572655F6461746100
:10293000203D202D2564200A0A000000B6C1C8A150
:10294000CDD3C2DDD2C7CEC2B6C8CAFDBEDD3220ED
:1029500074656D70657261747572655F64617461D0
:10296000203D202564200A0A0000000010B5052340
:1029700014A215A10020FFF79FF8FFF7E5F916490B
:10298000164803F02FF816480088C00BC0031449FE
:1029900008807D20000108F0C9FD00211048008852
:1029A0004004400C0F4A1154C82008F0BFFD0E49E6
:1029B0000C4804F083F9FFF703F8FEF791FF0020BD
:1029C00010BD0000383000003131362E36322E383E
:1029D000312E313338000000ACEE000000280040FA
:1029E000480B002048090020680B002070B5A8B0F3
:1029F000A32069460873012404E0002003A90855B8
:102A0000601CC4B2302CF8DB052347A247A101208B
:102A1000FFF752F8FF202D3008F088FDFFF794F9FA
:102A2000002406E003A8015D444803F095F8601C0B
:102A3000C4B2302CF6DB42480088C00BC0034049CA
:102A400008807D20C00008F071FD30223D491CA89F
:102A500007F0B6FEFEF7B4FFFEF742FF3AA007F01C
:102A600053FD42A007F050FD002417E02046E11777
:102A7000090F091809110901611A08D142A007F0CC
:102A800043FD1CA8015D41A007F03EFD04E01CA829
:102A9000015D3EA007F038FD601CC4B2302CE5DBC0
:102AA0003CA007F031FD20A9087E0006497E0904FC
:102AB000084320A9897E0902084320A9C97E08434A
:102AC00019903E491998401A1B903D491B9840188F
:102AD0001B901BA8FDF7AAFB05466A68A968286831
:102AE0000192009102902869421C364E6869811952
:102AF00035A0EB6807F008FDA88A314640183D492B
:102B00000880287C401C3C490870287B3B490870A1
:102B1000287A3B49087028793A49087028783A4958
:102B20000870002028B070BD31323300636E2E6E05
:102B300074702E6F72672E636E00000000280040D4
:102B4000480B0020480900202F2A2A2A2A2A2A2A4C
:102B50002A2A2A2A2A2A2A2A2A2A2A2A2A2A2A2AD5
:102B60002A2A2A2A2A2A2A2A2F0D0A005265636550
:102B7000697665204E5450205061636B657420283F
:102B8000486578293A0000000D0A000025303258C7
:102B9000200000000D0A2F2A2A2A2A2A2A2A2A2A55
:102BA0002A2A2A2A2A2A2A2A2A2A2A2A2A2A2A2A85
:102BB0002A2A2A2A2A2A2F0D0A000000807EAA83A8
:102BC000807000006C0700004E54502054696D6501
:102BD0003A253034642D253032642D25303264207E
:102BE000253032643A253032643A253032640D0A99
:102BF000000000004007002042070020430700209B
:102C000044070020450700204607002070B5002437
:102C10004021604800F070F9012874D15D4800F04F
:102C2000CDF9044654215B4800F0C0F80120C002F1
:102C30002040002803D0092057490860A5E0012062
:102C400080022040002803D00920534908609CE0FE
:102C5000012040022040002803D009204E4908608E
:102C600093E0FF2001302040002803D009204A498A
:102C700008608AE080202040002803D009204649CF
:102C8000086082E040202040002803D0092042490B
:102C900008607AE020202040002803D009203E4927
:102CA000086072E010202040002803D008203A4934
:102CB000086069E008202040002803D00820364939
:102CC000086061E002202040002803D0082032493B
:102CD000086059E004202040002803D008202E4935
:102CE000086051E004202040002803D008202A4931
:102CF000086049E0E007C00F002804D008202649FA
:102D0000086041E0FFE70421224800F0F5F80128BF
:102D100039D121480068052835D12048006820496C
:102D20000968401A06280BD91A4800F07DF91C4999
:102D30000E68711C1A4A11601A49096888550FE01B
:102D400000250BE0134800F06FF915490E68711C5F
:102D5000134A11601349096888556D1C062DF1DB73
:102D60000F4800680D49096888420CD10E48006878
:102D70000A490968884203D106200749086002E031
:102D800007200549086070BDFDE7024800F06CF8B7
:102D900000BFF8E700480040C8070020C407002033
:102DA000BC070020B8070020C007002038B5054642
:102DB0000C46002000901948854202D018488542F0
:102DC00000D103E0174918A003F03CFD402C13D0BC
:102DD000442C11D0482C0FD04C2C0DD0502C0BD0A3
:102DE000542C09D0582C07D05C2C05D0602C03D073
:102DF000642C01D0682C00D104E00A49491C0AA0C7
:102E000003F020FD0548854203D12018006800909A
:102E100003E0034820180068009038BD00400040DF
:102E200000480040710200002E2E5C2E2E5C2E2EDB
:102E30005C4C69627261726965735C56544D3037DF
:102E400031785F5374645065726970685F44726969
:102E50007665725C7372635C56544D303731785FBF
:102E60006932632E6300000010B5044610488442A6
:102E700002D01048844200D103E040210EA003F0AC
:102E8000E1FC0B48844208D10121802001F052F876
:102E90000021802001F04EF808E00121080601F031
:102EA00049F800210120000601F044F810BD00009F
:102EB00000400040004800402E2E5C2E2E5C2E2E3E
:102EC0005C4C69627261726965735C56544D30374F
:102ED00031785F5374645065726970685F447269D9
:102EE0007665725C7372635C56544D303731785F2F
:102EF0006932632E6300000070B505460C4600265B
:102F00001B48854202D01B48854200D103E01A4984
:102F10001AA003F097FC012C1AD0022C18D0042C14
:102F200016D0082C14D0102C12D0202C10D0402CED
:102F30000ED0802C0CD0FF200130844208D04000FD
:102F4000844205D04000844202D04000844200D137
:102F500004E04321C90009A003F074FCE86A2040A2
:102F6000002801D0012600E00026304670BD000098
:102F70000040004000480040170200002E2E5C2E4A
:102F80002E5C2E2E5C4C69627261726965735C56B0
:102F9000544D303731785F5374645065726970688E
:102FA0005F4472697665725C7372635C56544D302F
:102FB0003731785F6932632E6300000010B5044634
:102FC0000648844202D00648844200D103E0054905
:102FD00005A003F037FC8020005910BD00400040E0
:102FE00000480040550200002E2E5C2E2E5C2E2E36
:102FF0005C4C69627261726965735C56544D30371E
:1030000031785F5374645065726970685F447269A7
:103010007665725C7372635C56544D303731785FFD
:103020006932632E6300000010B5044607488442ED
:1030300002D00748844200D104E0FF21573105A0A7
:1030400003F000FC2069C0B210BD00000040004049
:10305000004800402E2E5C2E2E5C2E2E5C4C6962A9
:103060007261726965735C56544D303731785F53C5
:1030700074645065726970685F4472697665725CE9
:103080007372635C56544D303731785F6932632E0A
:103090006300000010B5012207210220FFF7CAFAE1
:1030A000012206210220FFF7C5FA00220721022093
:1030B000FFF7C0FA002206210220FFF7BBFA10BD7D
:1030C00010B5012206210220FFF7B4FA00220721E1
:1030D0000220FFF7AFFA012207210220FFF7AAFA28
:1030E00010BD10B5012206210220FFF7A3FA00222D
:1030F00006210220FFF79EFA10BD10B504210846F4
:10310000FFF730FA002801D0002010BD0120FCE7B5
:1031100010B505210420FFF725FA002801D0002072
:1031200010BD0120FCE710B500210220FFF71AFABC
:10313000002801D0002010BD0120FCE71CB50220B2
:1031400000900021684641710521017102218171C1
:1031500069460320FFF730F90320009000216846FC
:103160004171052101710221817169460320FFF738
:1031700023F91CBD1CB5012080061149886003207D
:103180000090002168464171052101710221817181
:1031900069460320FFF710F90120C006084988603E
:1031A000022007F00BF90120800605494860022043
:1031B00007F004F901208006014988601CBD000069
:1031C000000002401CB501208006114988600320E0
:1031D0000090002168464171052101710221817131
:1031E00069460320FFF7E8F80120C0060849486057
:1031F000022007F0E3F8012080060549486002201C
:1032000007F0DCF801208006014988601CBD000041
:10321000000002407CB505460024032000900021F8
:1032200068464171042101710221817169460320C0
:10323000FFF7C2F8002619E00120800611498860D6
:10324000022007F0BBF8012080060E4948606006A6
:10325000040E03210846FFF785F9012801D1601CFF
:10326000C4B2012007F0AAF8701CC6B2082EE3DB36
:10327000002D02D1FFF7A6FF01E0FFF77BFF2046FC
:103280007CBD0000000002407CB504460320009095
:103290000021684641710521017102218171694651
:1032A0000320FFF789F80120800615498860002572
:1032B00022E080202040C011002804D00120C00658
:1032C0000F49486003E00120C0060D498860600690
:1032D000040E022007F072F80120800608494860B9
:1032E000022007F06BF80120800605498860022063
:1032F00007F064F8681CC5B2082DDADB7CBD00005D
:103300000000024010B50120C00609494860401085
:103310004860042007F052F80120C0060449886084
:10332000042007F04BF8012080060149886010BD99
:10333000000002401CB50320009000216846417146
:10334000052101710221817169460320FFF734F8DC
:10335000012080060849886040008860042007F04A
:103360002DF8012080060449486040004860042090
:1033700007F024F81CBD0000000002401CB500242A
:10338000032000900021684641710421017102214F
:10339000817169460320FFF70FF80120C00610492C
:1033A0004860012007F00AF8012080060C494860B7
:1033B000012007F003F807E0601CC4B2FA2C03DD1B
:1033C000FFF7B8FF01201CBD03210846FFF7CAF82C
:1033D0000028F1D101208006014988600020F2E731
:1033E0000000024070B505460C46002D0DD1002CA2
:1033F00005D1012204210620FFF71CF912E000226A
:1034000004210620FFF716F90CE0002C05D101225B
:1034100005210620FFF70EF904E000220521062011
:10342000FFF708F970BD1CB5042000900021684624
:103430004171052101710021817169460620FEF765
:10344000BBFF0520009069460620FEF7B5FF01226C
:1034500004210620FFF7EEF8012205210620FFF7E0
:10346000E9F81CBD70B504460025A078002802D0FC
:10347000A078012800D103E04C211FA003F0E2F95D
:103480006078042800DA03E04D211BA003F0DAF98C
:10349000A078002827D02648032109024018217867
:1034A00089108900455820788007C10EFF20884088
:1034B000294681430D4660788007000E21788907F0
:1034C000C90E884005431A48032109024018217893
:1034D0008910890045502078C106C90E0120884016
:1034E0001349086007E02078C106C90E0120884012
:1034F0000F498031086070BD2E2E5C2E2E5C2E2E62
:103500005C4C69627261726965735C56544D303708
:1035100031785F5374645065726970685F44726992
:103520007665725C7372635C6D6973632E63000011
:1035300000E100E010B5002819DA1A4A03071B0F52
:10354000083B9B089B00D2588307DC0EFF23A34057
:103550009A438B071B0E8407E40EA3401A43114BBA
:103560000407240F083CA408A4001A5118E00E4ACE
:1035700003231B02D21883089B00D2588307DC0E5A
:10358000FF23A3409A438B071B0E8407E40EA3403E
:103590001A43054B032424021B198408A4001A5162
:1035A00010BD00001CED00E000E100E070B500245B
:1035B0000CE0002506E00020E900074A89180855BC
:1035C000681CC5B2802DF6DB601CC4B2082CF0DB91
:1035D00000F0F8F870BD0000E80B0020F0B50B46D5
:1035E000CE17760FF6187605320ECE17760FF61830
:1035F000F610F6008E1BF4B20123A340DDB2C30027
:103600000C4E9B199B5CDB43C6000A4FF619B35462
:10361000C3003E469B199B5C2B43C600F619B3546E
:10362000C3003E469B199B5CDB43C600F619B354AE
:10363000F0BD0000E80B0020F0B50A46CE17760F6B
:10364000B6187605330ECE17760FB618F610F600BC
:103650008E1BF4B20122A240D5B2C200044E9219D0
:10366000D25C2A43C600024FF619F254F0BD0000A6
:10367000E80B00201CB5062000900021684641712F
:10368000052101710021817169460220FEF794FE37
:103690000720009000216846417105210171002139
:1036A000817169460220FEF787FE3CA006F02CFFE0
:1036B000C82007F03BFF0021AE2000F0C5FB002131
:1036C000084600F0C1FB0021102000F0BDFB0021E6
:1036D000402000F0B9FB0021812000F0B5FB002163
:1036E000FF2000F0B1FB0021A12000F0ADFB002184
:1036F000C82000F0A9FB0021A62000F0A5FB0021B6
:10370000A82000F0A1FB00213F2000F09DFB00213C
:10371000D32000F099FB0021084600F095FB002122
:10372000D52000F091FB0021802000F08DFB0021CE
:10373000D92000F089FB0021F12000F085FB002159
:10374000DA2000F081FB0021122000F07DFB002137
:10375000DB2000F079FB0021402000F075FB002108
:10376000202000F071FB0021022000F06DFB002101
:103770008D2000F069FB0021142000F065FB002182
:10378000A42000F061FB0021A62000F05DFBFFF704
:103790000DFF0021AF2000F057FB1CBD4F4C4544EE
:1037A0002D73746172740A0010B50246012002E0A4
:1037B0000346534318460B464C1EE1B2002BF7D18B
:1037C00010BD000070B502241CE02146B031C8B223
:1037D000002100F039FB0021084600F035FB0021F4
:1037E000102000F031FB002508E0E900074A8918A5
:1037F000085D012100F028FB681CC5B2802DF4DBB8
:10380000601CC4B2082CE0DB70BD0000E80B002097
:10381000FFB585B00E461C4601962046E217520FB2
:103820001218D210E3175B0F1B18DB10DB0000949B
:10383000E31A01D0012300E00023D2182146E30F50
:103840005B185B105A43D2B2039207982038C0B27B
:103850000290002543E00C2C06D10C21029848432D
:1038600021494018475D12E0102C05D10298000153
:103870001E494018475D0AE0182C06D12421029801
:1038800048431B494018475D01E009B0F0BD0020E6
:1038900004901EE080203840002804D0314605986E
:1038A000FFF7CAFE03E031460598FFF797FE78065A
:1038B000070E701CC6B20198301AA04205D1019EB5
:1038C0000598401CC0B2059006E00498401CC0B2A8
:1038D000049004980828DDDB00BF681CC5B203987B
:1038E0008542B8DB00BFD0E79FBE000013C30000D5
:1038F00003C90000FFB586B007461C4600200490AF
:103900000297079801902046E117490F09184905C9
:10391000090E009162E0089961430846C917490FF2
:103920000918CA1004995118CEB20498401CC0B2AC
:103930000490002550E0102C05D130012B4940188F
:10394000405D03901AE0182C06D1482070432849A6
:103950004018405D039011E0202C05D1F00125496D
:103960004018405D039009E0402C05D170022249C7
:103970004018405D039001E00AB0F0BD00200590C2
:1039800018E00398C007C00F002804D038460799F4
:10399000FFF752FE03E038460799FFF71FFE039832
:1039A000401003900798401CC0B207900598401C37
:1039B000C0B2059005980828E3DB781CC7B20298CE
:1039C000381AA04204D1029F01980830C0B2019079
:1039D00001980790681CC5B2A542ACDB0098411E57
:1039E000C9B20091002896D100BFC5E75FD600009C
:1039F0009FD9000077DA000077DC0000FFB586B0C1
:103A000007461E4600200490029707980190304612
:103A1000F117490F09184905090E0091F1E00899BD
:103A200071430846C917490F0918CA10049951185B
:103A3000CDB20498401CC0B204900024DEE0102EE9
:103A400074D174484078002865D0724800783038C6
:103A50000A2148436F49497830394018042805DA6B
:103A600028016D494018005D039099E0694800788D
:103A700030380A21484367494978303940180928C5
:103A800005DA280165494018005D039088E0614827
:103A9000007830380A2148435E4949783039401867
:103AA0000A2805DA28015E494018005D039077E096
:103AB0005848007830380A21484356494978303907
:103AC0004018142805DA280156494018005D039073
:103AD00066E05048007830380A2148434D4949781B
:103AE000303940181A2805DA28014F494018005D7E
:103AF000039055E04748007830380A21484345494B
:103B00004978303940181A284ADD280147494018B9
:103B1000005D039044E03F4800783038042806DA1E
:103B200028013D494018005D039039E036E03948EE
:103B300000783038092805DA280138494018005D36
:103B400003902DE03348007830380A2805DA280140
:103B500033494018005D039022E02E480078303849
:103B6000142805DA28012F494018005D039017E05A
:103B70002848007830381A2805DA28012A494018E0
:103B8000005D03900CE02348007830381A2807DDE8
:103B9000280126494018005D039001E00AB0F0BDFD
:103BA0000020059018E00398C007C00F002804D03B
:103BB00038460799FFF740FD03E038460799FFF7BD
:103BC0000DFD0398401003900798401CC0B2079069
:103BD0000598401CC0B2059005980828E3DB781CC6
:103BE000C7B20298381AB04204D1029F0198083037
:103BF000C0B2019001980790601CC4B2B44200DAD0
:103C00001DE70098411EC9B20091002800D006E7C8
:103C100000BFC3E7A80B0020BFD70000FFD70000FC
:103C20003FD800007FD80000BFD80000FFD80000B8
:103C3000FFB587B005460E461C460020059002954C
:103C400001962046E117490F09184905090E009110
:103C500048E0099961430846C917490F0918CA1075
:103C600005995118C9B203910598401CC0B205903E
:103C7000002735E0102C06D1039800011D4940189B
:103C8000C05D049001E00BB0F0BD0020069016E08E
:103C90000498C007C00F002804D031462846FFF71B
:103CA000CBFC03E031462846FFF798FC049840100F
:103CB0000490701CC6B20698401CC0B206900698CC
:103CC0000828E5DB681CC5B20298281AA04204D176
:103CD000029D01980830C0B20190019E781CC7B2C5
:103CE000A742C7DB0098411EC9B200910028B0D19D
:103CF00000BFC8E73FD90000FFB583B007460C9C62
:103D0000002532E00698401B401EC1B20A20FFF792
:103D10004BFD014601900598FCF758FA0A210290E4
:103D2000FCF754FA0E46002E0DD1E00F001940109A
:103D30006843C019C0B2234630220294019004990E
:103D4000FFF766FD0FE0E00F001940106843C0194F
:103D5000C0B20294019030463030C2B2234604997A
:103D60000198FFF755FD681CC5B206988542C9DB6E
:103D700007B0F0BDFFB583B0054616461F460020CC
:103D80000290019000242046E117490F0918C9103C
:103D9000C900611A00D101E0601CC4B2049C17E0A4
:103DA0002146284600F039F801950CE0029A0C995A
:103DB000885C012100F048F80298401C02900198AC
:103DC000401CC0B201900198B042EFDB601CC4B24D
:103DD000BC42E5DB07B0F0BDF0B506460F46144621
:103DE0001D4613E022782B4639463046FFF710FD7A
:103DF0002846E90F091849108919CEB28020401BC6
:103E0000B04202DA0026B81CC7B2641C2078202811
:103E100002DB20787E28E5DDF0BD70B504460D4656
:103E20002946B031C8B2002100F00EF8F02121403F
:103E3000091108461030002100F006F82007000F95
:103E4000002100F001F870BD70B505460C46FFF783
:103E500021F9782000F00DFEFFF743F9002C03D084
:103E6000402000F006FE02E0002000F002FEFFF716
:103E700038F9284600F0FDFDFFF733F9FFF720F988
:103E800070BD000070B504460D461848204000285B
:103E900002D1002C00D003E0852115A002F0D2FC55
:103EA000002D01D0012D00D103E0862110A002F0E9
:103EB000C9FC002D0CD0012C03D0022C01D0042C05
:103EC00002D11B4844610FE00120800744610BE0F0
:103ED000012C03D0022C01D0042C02D1144884619F
:103EE00002E001208007846170BD00004808B23CF8
:103EF0002E2E5C2E2E5C2E2E5C4C696272617269D5
:103F000065735C56544D303731785F537464506537
:103F1000726970685F4472697665725C7372635C23
:103F200056544D303731785F7263632E6300000062
:103F30000003004070B504460D4618482040002894
:103F400002D1002C00D003E0E02115A002F07AFCA1
:103F5000002D01D0012D00D103E0E12110A002F0DD
:103F600071FC002D0CD0012C03D0022C01D0042CAC
:103F700002D11B4884600FE00120800784600BE0C1
:103F8000012C03D0022C01D0042C02D1144844602F
:103F900002E001208007446070BD00004808B23C88
:103FA0002E2E5C2E2E5C2E2E5C4C69627261726924
:103FB00065735C56544D303731785F537464506587
:103FC000726970685F4472697665725C7372635C73
:103FD00056544D303731785F7263632E63000000B2
:103FE00000030040F0B587B00446002006909148D9
:103FF0008069C0B201908F48806AC0B200908D483D
:10400000006BC6B201208007006BC006C00E001D09
:1040100089494843059089480068049085484030A4
:1040200001680498FCF7D2F80390802C05D08448EE
:10403000844202D0801C844202D103980690F7E0AB
:10404000902C01D0942C2ED10120800720180078CC
:10405000002801D107B0F0BD0198002802D00198D6
:10406000022808D101208007201801787248FCF747
:10407000C3F8074615E00198012807D180072018EA
:1040800001780598FCF7A2F807460AE00198032892
:1040900007D101208007201801786A48FCF7ACF8A6
:1040A00007460697C4E0A82C2BD162484030806AAE
:1040B000002800D1CEE70098002802D000980228FE
:1040C00007D15C484030816A5B48FCF77FF802907A
:1040D00014E00098012807D156484030816A0598BD
:1040E000FCF774F8029009E00098032806D15148C3
:1040F0004030816A5348FCF769F8029002980690B4
:1041000096E0AC2C3AD14B484030C06A002800D130
:10411000A0E7002E01D0032E07D146484030C16AE7
:104120004548FCF753F8054626E0012E07D14148E3
:104130004030C16A0598FCF749F805461CE0022E9C
:1041400007D13C484030C16A3E48FCF73FF805467D
:1041500012E0042E07D137484030C16AC013FCF783
:1041600035F8054608E0082E06D132484030C16ACD
:104170003548FCF72BF80546069559E0B02C0DD1D3
:104180002C484030006B002800D163E729484030BC
:10419000016B0598FCF71AF8069049E0A42C01D0B1
:1041A000D02C0FD10120800720180078002800D1E2
:1041B00050E701208007201801780598FCF706F8E1
:1041C000069035E0A02C16D1204800690421084053
:1041D000002802D0039806902AE016484030006A72
:1041E000002800D136E713484030016A0398FBF7F6
:1041F000EDFF06901CE0D82C0DD10E488030806970
:10420000002800D126E70B48803081690598FBF72C
:10421000DDFF06900CE00A48401E844202D10948A6
:10422000069005E00648801D844201D102480690B0
:1042300006980FE740000040001BB7000000002078
:104240000200001010270000006CDC0200E000E01B
:1042500070B504460D46002C04D0104820400028BC
:1042600000D104E0B12189000DA002F0EBFA002D8D
:1042700001D0012D00D103E0194909A002F0E2FAB2
:10428000012D05D017488068A0431649886004E0D6
:104290001448806820431349886070BD4280FFFF46
:1042A0002E2E5C2E2E5C2E2E5C4C69627261726921
:1042B00065735C56544D303731785F537464506584
:1042C000726970685F4472697665725C7372635C70
:1042D00056544D303731785F7263632E63000000AF
:1042E000C50200000002004070B504460D46802C57
:1042F00011D0902C0FD0942C0DD0A02C0BD0A42C2E
:1043000009D0A82C07D0AC2C05D0B02C03D0D02CD1
:1043100001D0D82C00D104E0FF21E73103A002F046
:1043200091FA012080072018056070BD2E2E5C2EAA
:104330002E5C2E2E5C4C69627261726965735C56EC
:10434000544D303731785F537464506572697068CA
:104350005F4472697665725C7372635C56544D306B
:104360003731785F7263632E6300000010B5044636
:10437000002C05D0012C03D0022C01D0032C00D13D
:1043800004E0FF21933105A002F05CFA1348846138
:1043900000201249C8610120C86110BD2E2E5C2E7C
:1043A0002E5C2E2E5C4C69627261726965735C567C
:1043B000544D303731785F5374645065726970685A
:1043C0005F4472697665725C7372635C56544D30FB
:1043D0003731785F7263632E630000004000004055
:1043E000F0B587B0FEF7AAFEFEF78CFF9120FEF72E
:1043F0004BFFFEF7C3FF0746002F01D1012100E06C
:1044000000210846FEF706FF0546002F01D10121D5
:1044100000E000210846FEF7FDFE2902401884B2A4
:10442000FEF788FF6411214620A006F06DF80120F8
:1044300080022040002813D0A105890DC943491CE2
:104440004842FCF7CFF90022FF239B05039102901D
:10445000FCF7D6F805910490FCF738FA064611E00F
:104460002046FCF7B8F90190FCF708FA0022FF2378
:104470009B0503910290FCF7C3F805910490FCF7AB
:1044800025FA06463046FCF7F9F902460B46059137
:1044900004900DA006F038F815493046FBF780FF70
:1044A0000590FCF7B3F980B207B0F0BD54656D70AC
:1044B0007574657261747572655F3136203D2025B3
:1044C0006420200A0A0000004C4D373542445F54F6
:1044D000656D70757465726174757265203D202517
:1044E0002E326620C9E3CACFB6C820200A0A0000CF
:1044F0000000C84270B504460025002C07D00121F9
:104500000C4800F0C3F8FF2000F08EF811E005E041
:104510006D1C01208003854200DD05E01021054867
:1045200000F044F90128F3D000BF0021014800F059
:10453000ADF870BD00D0004010B50B4800F016F883
:104540000120FFF7D7FF15217E20FDF78DF86420AD
:1045500006F0ECFF11217E20FDF786F8642006F0BE
:10456000E5FF002010BD000000D0004010B588B06D
:1045700004462C48844208D101214014FFF782FCF4
:104580000221A420FFF7B0FE07E001218805FFF714
:1045900079FC0221D020FFF7A7FE0420069000211D
:1045A00068464177052101770021817706A903201C
:1045B000FDF702FF012204210320FEF73BF806204D
:1045C000069000216846417701210177002181771B
:1045D00006A90320FDF7F0FE07200690012168469A
:1045E000017706A90320FDF7E7FE052006900121CB
:1045F0006846017706A90320FDF7DEFE204600F09D
:104600008DF8002000900190072002900020039078
:104610000490082005906946204600F015F908B07E
:1046200010BD00000080004070B50646002407E081
:10463000601C84B201208003844201DD002070BD33
:104640000121114800F0B2F80128F1D131460E489D
:1046500000F0D8F9002501E0681C85B20A2DFBDBCB
:10466000002407E0601C84B201208003844201DD45
:104670000020E4E70421044800F098F80128F1D173
:10468000014800F089F9DAE700D0004070B504462F
:104690000D461048844202D00F48844200D103E006
:1046A000B7210EA002F0CEF8002D01D0012D00D1CF
:1046B00003E0B82109A002F0C5F8002D04D060681D
:1046C00002210843606003E0606802218843606063
:1046D00070BD00000080004000D000402E2E5C2EF7
:1046E0002E5C2E2E5C4C69627261726965735C5639
:1046F000544D303731785F53746450657269706817
:104700005F4472697665725C7372635C56544D30B7
:104710003731785F7370692E6300000010B504466E
:104720001048844202D01048844200D103E039216D
:104730000EA002F087F80B48844208D101214014F2
:10474000FFF7F8FB00216014FFF7F4FB08E00121FC
:104750008805FFF7EFFB002101208005FFF7EAFB4A
:1047600010BD00000080004000D000402E2E5C2EC6
:104770002E5C2E2E5C4C69627261726965735C56A8
:10478000544D303731785F53746450657269706886
:104790005F4472697665725C7372635C56544D3027
:1047A0003731785F7370692E6300000070B505467D
:1047B0000C4600261248854202D01248854200D19C
:1047C00004E0FF215A3110A002F03CF8012C07D080
:1047D000022C05D0042C03D0082C01D0102C00D1C1
:1047E00004E0FF215B3108A002F02CF8E8682040CB
:1047F000002801D0012600E00026304670BD0000F0
:104800000080004000D000402E2E5C2E2E5C2E2E0C
:104810005C4C69627261726965735C56544D3037E5
:1048200031785F5374645065726970685F4472696F
:104830007665725C7372635C56544D303731785FC5
:104840007370692E6300000070B505460C46404841
:10485000854202D03F48854200D103E06C213EA052
:1048600001F0F0FF2068002802D02068042800D161
:1048700003E06D2138A001F0E5FF6068002805D055
:104880006068402802D06068202800D103E06E21D3
:1048900031A001F0D7FFA068032823D0A068042826
:1048A00020D0A06805281DD0A06806281AD0A068CE
:1048B000072817D0A068082814D0A068092811D0AC
:1048C000A0680A280ED0A0680B280BD0A0680C287E
:1048D00008D0A0680D2805D0A0680E2802D0A068D6
:1048E0000F2800D103E06F211BA001F0ABFFE068AF
:1048F000002802D0E068402800D103E0702116A013
:1049000001F0A0FF2069002802D02069802800D192
:1049100003E0712110A001F095FF6069FE2805D821
:10492000207DC007C00F002800D103E072210AA03B
:1049300001F088FF60692861E168A0680843216987
:1049400008432860616820680843686070BD000003
:104950000080004000D000402E2E5C2E2E5C2E2EBB
:104960005C4C69627261726965735C56544D303794
:1049700031785F5374645065726970685F4472691E
:104980007665725C7372635C56544D303731785F74
:104990007370692E6300000010B504460748844216
:1049A00002D00748844200D104E0FF21453105A030
:1049B00001F048FFA06880B210BD000000800040F8
:1049C00000D000402E2E5C2E2E5C2E2E5C4C696298
:1049D0007261726965735C56544D303731785F533C
:1049E00074645065726970685F4472697665725C60
:1049F0007372635C56544D303731785F7370692E33
:104A00006300000070B504460D460748844202D09A
:104A10000648844200D104E0FF21383104A001F0AF
:104A200011FFA56070BD00000080004000D0004074
:104A30002E2E5C2E2E5C2E2E5C4C69627261726989
:104A400065735C56544D303731785F5374645065EC
:104A5000726970685F4472697665725C7372635CD8
:104A600056544D303731785F7370692E6300000003
:104A7000704770B50446002521E00022062102207F
:104A8000FDF7D8FD80202040002805D00122072115
:104A90000220FDF7CFFD04E0002207210220FDF7F0
:104AA000C9FD012206210220FDF7C4FD00220621D6
:104AB0000220FDF7BFFD6006040E681CC5B2082D7C
:104AC000DBDB70BD08B50220054B002205490090D4
:104AD00005A006F0EDFE0A490860002008BD0000B0
:104AE000881300009118000044733138423230506E
:104AF000726F63657373536F667454696D6572008A
:104B00005007002010B504460248006806F00EFF6A
:104B100010BD00005007002010B504460248006890
:104B200006F08EFF10BD00005007002010B500F009
:104B300001F810BD10B500248120800001074861F4
:104B40004010144908600120134908601348806828
:104B5000882188431149886011484905086306E0A7
:104B60002046641C0121C903884200D304E00120CF
:104B70008007406B0128F3D100BF0A4802F060FAB9
:104B80000120054940390861002048610120486141
:104B900010BD000000B00040800000400002004056
:104BA00003000080B80B000010B500F009F8FEF714
:104BB0003AFCFCF78BFD00F09DFFFDF7EBF810BD14
:104BC00070B500258020FFF70DFA04467D21C9004D
:104BD000FBF7FCFA05462C46601E0949884200D9BD
:104BE0000CE0601E074948610321081FFEF7A2FC84
:104BF0000020044988610720086100BF70BD0000E3
:104C0000FFFFFF0000E000E010B505F0F7FB06F045
:104C100097FD05F01BFC10BD10B503480349086360
:104C2000FFF784FF10BD0000058000000001004078
:104C300010B50121054800F057F8012805D10121E0
:104C4000024800F005F8FCF7C7FD10BD00900040D9
:104C500070B504460D460F48844208D00E48844281
:104C600005D00E48844202D00D48844200D104E0B1
:104C70004B2109010BA001F0E5FDA80A80020028E4
:104C800002D1002D00D003E0164906A001F0DAFDA4
:104C9000256070BD0090004000A000400030004042
:104CA000003800402E2E5C2E2E5C2E2E5C4C69624D
:104CB0007261726965735C56544D303731785F5359
:104CC00074645065726970685F4472697665725C7D
:104CD0007372635C56544D303731785F74696D651B
:104CE000722E6300B1040000F8B505460C4600269C
:104CF00000275148854208D05048854205D0504889
:104D0000854202D04F48854200D103E04E494FA072
:104D100001F098FD012C14D0022C12D0042C10D0DC
:104D2000082C0ED0102C0CD001204002844208D058
:104D3000202C06D0402C04D0802C02D0401084427D
:104D400000D104E04049491C40A001F07BFD102C3B
:104D500007D1E020405904210840002861D00127F4
:104D60005FE001204002844207D1E0204059610009
:104D70000840002855D0012753E0012C06D190208F
:104D80004059204000284CD001274AE0022C07D18E
:104D90009020405908210840002842D0012740E0D7
:104DA000042C07D19020405940210840002838D0D9
:104DB000012736E0082C07D190204059A101084076
:104DC00000282ED001272CE0202C08D1FF20913084
:104DD0004059E1030840002823D0012721E0402C5E
:104DE00008D1FF2091304059E1030840002818D035
:104DF000012716E0802C08D1FF2091304059E103B3
:104E0000084000280DD001270BE0FF20013084422C
:104E100007D1FF2091304059E1030840002800D01D
:104E2000012728682040002803D0012F01D1012646
:104E300000E000263046F8BD0090004000A0004091
:104E400000300040003800405B0400002E2E5C2E35
:104E50002E5C2E2E5C4C69627261726965735C56C1
:104E6000544D303731785F5374645065726970689F
:104E70005F4472697665725C7372635C56544D3040
:104E80003731785F74696D65722E63007CB50024DC
:104E90000022114629A006F047F82C490860084670
:104EA0000068002802D02AA005F02EFB00230A2269
:104EB00020212FA005F0FAFC2F4908600846006861
:104EC000002802D02DA005F01FFB34E0182161431B
:104ED000314A50582FA1FBF73DFA00282AD018205C
:104EE00060432D4940184069182161432A4A8918B6
:104EF000097C182565431646AD1900910190EB68B1
:104F000018256543AD19AA6818256543AD19696868
:104F100018256543705906F038FA2049086008469C
:104F20000068002803D00846006806F05BFB601CA0
:104F3000C4B200E000E0C9E700BF7CBD75736172D8
:104F400074315F726563765F73656D0004070020DE
:104F5000D0C5BAC5C1BF7573617274315F726563C4
:104F6000765F73656DB4B4BDA8B3C9B9A60A0A006B
:104F70006D73675F6D71000008070020CFFBCFA243
:104F8000B6D3C1D06B65795F6D71B4B4BDA8B3C938
:104F9000B9A60A0A00000000100700200C07002034
:104FA00010B50024E44305F029FA1021134800F05D
:104FB000E9F9012806D001214905104800F0E2F97D
:104FC000012818D110210D4800F06CF80121490585
:104FD0000A4800F067F807E0084800F083FCC4B214
:104FE0002146074800F0B2FC01210906034800F001
:104FF00055F90028F0D005F029FA10BD0020004036
:105000000028004010B51021224800F0BBF901280B
:1050100006D0012149051F4800F0B4F9012837D115
:1050200010211C4800F03EF801214905194800F004
:1050300039F826E0174800F055FCC4B2164800883D
:105040004004400C154988420FDA13490988480486
:10505000400C11490988C90BC903421C5204520C67
:1050600011430D4A11800E490C540A2C01D0002C1A
:1050700007D1094800880121C9038843411806481F
:10508000018001210906034800F008F90028D1D069
:1050900010BD000000280040480B0020FF01000068
:1050A0004809002070B504460D462148844202D0CC
:1050B0002048844200D103E01F4920A001F0C2FB38
:1050C0002E482840002804D02D482840002800D130
:1050D00004E03521090119A001F0B4FB012000060C
:1050E000854202D04000854206D1C020005B290CD9
:1050F0000843C021085319E02248854208D1FF2007
:105100001130005910218843FF21113108510DE061
:1051100001204005854208D1FF2021300059294651
:105120008843FF212131085100E0A56470BD0000D3
:1051300000200040002800404F0300002E2E5C2E6F
:105140002E5C2E2E5C4C69627261726965735C56CE
:10515000544D303731785F537464506572697068AC
:105160005F4472697665725C7372635C56544D304D
:105170003731785F75736172742E6300F23F2030AF
:105180000DC0DF8F1000004070B504460D460E487C
:10519000844202D00D48844200D103E0B5210CA026
:1051A00001F050FB002D01D0012D00D103E0B6210C
:1051B00007A001F047FB002D02D00120606201E052
:1051C0000120A06270BD00000020004000280040C7
:1051D0002E2E5C2E2E5C2E2E5C4C696272617269E2
:1051E00065735C56544D303731785F537464506545
:1051F000726970685F4472697665725C7372635C31
:1052000056544D303731785F75736172742E630078
:1052100010B504460F48844202D00F48844200D1A2
:1052200003E050210DA001F00DFB0A48844208D193
:1052300001211020FEF77EFE00211020FEF77AFEED
:1052400007E001212020FEF775FE00212020FEF757
:1052500071FE10BD00200040002800402E2E5C2E64
:105260002E5C2E2E5C4C69627261726965735C56AD
:10527000544D303731785F5374645065726970688B
:105280005F4472697665725C7372635C56544D302C
:105290003731785F75736172742E630070B505469F
:1052A0000C4600262448854202D02448854200D17D
:1052B00003E0234923A001F0C5FA01200004844241
:1052C0001AD04000844217D04000844214D04000DD
:1052D000844211D0400184420ED0400084420BD061
:1052E0004000844208D04000844205D040008442FF
:1052F00002D04000844200D104E01149491C11A0B1
:1053000001F0A0FA0120000784420BD10A4885422F
:1053100002D00A48854200D104E00B21890109A08E
:1053200001F090FA286E2040002801D0012600E00C
:105330000026304670BD00000020004000280040DC
:10534000BA0200002E2E5C2E2E5C2E2E5C4C696262
:105350007261726965735C56544D303731785F53B2
:1053600074645065726970685F4472697665725CD6
:105370007372635C56544D303731785F7573617268
:10538000742E6300F8B505460C46002700263E48FB
:10539000854202D03D48854200D104E00321090244
:1053A0003BA001F04FFA102C1ED0202C1CD0022C58
:1053B0001AD0802C18D0FF200130844214D0400035
:1053C000844211D0400084420ED0400084420BD071
:1053D0004000844208D04000844205D03C488442CA
:1053E00002D04012844200D103E03A4928A001F0E3
:1053F00029FA3748844208D1FF201130405908214A
:105400000840002814D0012612E001204005844203
:1054100008D1FF202130405961100840002807D0F2
:10542000012605E0286C21040840002800D0012650
:10543000274884420CD1002E08D0FF20113040595B
:1054400010210840002801D001271BE0002719E0A7
:105450000120400584420CD1002E08D0FF202130CD
:10546000405921460840002801D001270AE00027C2
:1054700008E0002E05D0286C2040002801D001272C
:1054800000E000273846F8BD00200040002800401A
:105490002E2E5C2E2E5C2E2E5C4C6962726172691F
:1054A00065735C56544D303731785F537464506582
:1054B000726970685F4472697665725C7372635C6E
:1054C00056544D303731785F75736172742E6300B6
:1054D000100000400103000070B504460D4616465A
:1054E0002E48844202D02E48844200D104E0FF219D
:1054F000C0312CA001F0A6F93A482840002803D07A
:1055000039482840002802D03848854200D104E0BC
:10551000FF21C13123A001F095F9002E01D0012E09
:1055200000D104E0FF21C2311EA001F08BF9002E52
:1055300019D0082D08D1FF20113000590821084347
:10554000FF211131085127E02848854209D1FF2069
:1055500021300059012109050843FF21213108515B
:105560001AE0656418E0082D08D1FF2011300059B9
:1055700008218843FF21113108510DE01B48854265
:1055800009D1FF2021300059012109058843FF215D
:105590002131085100E0A56470BD000000200040EA
:1055A000002800402E2E5C2E2E5C2E2E5C4C696254
:1055B0007261726965735C56544D303731785F5350
:1055C00074645065726970685F4472697665725C74
:1055D0007372635C56544D303731785F7573617206
:1055E000742E63000800B03FFFFF4F4000001080A2
:1055F000FEB505460C460026002002907D488542F7
:1056000002D07D48854200D103E06E217BA001F0ED
:1056100019F9E068002804D08849E068884200D27F
:1056200003E06F2175A001F00DF92069002808D072
:105630002069202805D02069402802D020696028F0
:1056400000D103E070216DA001F0FCF86069002832
:1056500002D06069082800D103E0712167A001F041
:10566000F1F8A06900280BD0A069062808D0A0692D
:10567000022805D0A069862802D0A069822800D11E
:1056800003E072215DA001F0DDF8FF210131E06946
:10569000884208D04900E069884204D00321090209
:1056A000E069884200D103E0732154A001F0CAF8F8
:1056B000206A00280DD001218903206A884208D081
:1056C0004900206A884204D003218903206A884265
:1056D00000D103E0742149A001F0B4F8606A002809
:1056E00004D00121C902606A884200D103E075211B
:1056F00042A001F0A7F82068002812D00121090477
:10570000206888420DD049002068884209D00321D2
:1057100009042068884204D0012189042068884255
:1057200000D103E0762135A001F08CF860680028F4
:1057300012D001210905606888420DD049006068D7
:10574000884209D0032109056068884204D00121FC
:1057500089056068884200D103E0772127A001F025
:1057600071F8A068102802D0A068002800D103E0DA
:10577000782122A001F066F82E6B314806401D48C2
:10578000854204D19020FEF72DFC029006E01A48D5
:10579000854203D19420FEF725FC0290E168029A2D
:1057A0009000FAF713FD0746B806810C01913846C0
:1057B0003F21C943084080090004009001990098E6
:1057C00008432169084361690843A1690843A16846
:1057D000084306432E632E6A1A4806406168206813
:1057E0000843E1690843216A0843616A08430643A4
:1057F0002E62FEBD00200040002800402E2E5C2EB0
:105800002E5C2E2E5C4C69627261726965735C5607
:10581000544D303731785F537464506572697068E5
:105820005F4472697665725C7372635C56544D3086
:105830003731785F75736172742E630061E316000F
:1058400001C00000FF3488FF70B504460D461348C0
:10585000844202D01248844200D104E0FF219D31ED
:1058600010A000F0EFFF280D0005002804D1280348
:10587000000B002800D004E0FF219E3109A000F0B9
:10588000E1FFFF2021300659360D3605304628430A
:105890000646FF202130065170BD00000020004068
:1058A000002800402E2E5C2E2E5C2E2E5C4C696251
:1058B0007261726965735C56544D303731785F534D
:1058C00074645065726970685F4472697665725C71
:1058D0007372635C56544D303731785F7573617203
:1058E000742E630010B504460648844202D0064870
:1058F000844200D104E0FF21F53104A000F0A2FFB2
:10590000206D10BD00200040002800402E2E5C2E8F
:105910002E5C2E2E5C4C69627261726965735C56F6
:10592000544D303731785F537464506572697068D4
:105930005F4472697665725C7372635C56544D3075
:105940003731785F75736172742E630070B50446E9
:105950000D460748844202D00648844200D104E044
:10596000FF21E53104A000F06DFF256570BD00004A
:1059700000200040002800402E2E5C2E2E5C2E2E93
:105980005C4C69627261726965735C56544D303764
:1059900031785F5374645065726970685F447269EE
:1059A0007665725C7372635C56544D303731785F44
:1059B00075736172742E630001214904016009014D
:1059C000416010218160E1214902C16060210161D3
:1059D00000214161816103210902C161002101624D
:1059E000416270470FB470B586B006460CA80190AE
:1059F00076E00B9800785C281CD10B98401C0B902B
:105A000000786E2809D072280FD10D213046FFF79B
:105A10009DFF0B98401C0B900BE00A213046FFF7CE
:105A200095FF0B98401C0B9003E00B98401C0B90CB
:105A300000BF4DE00B980078252842D10B98401C00
:105A40000B900078642819D0732835D1019810C8BC
:105A500001900CE021783046FFF778FF00BF01216C
:105A6000C9063046FFF71AFC0028F8D0641C2078DD
:105A70000028EFD10B98401C0B9021E0019820C822
:105A800001900A2202A9284602F01EF802AC0CE09E
:105A900021783046FFF75AFF00BF0121C906304682
:105AA000FFF7FCFB0028F8D0641C20780028EFD119
:105AB0000B98401C0B9003E00B98401C0B9000BF10
:105AC00006E00B980178401C0B903046FFF73EFF34
:105AD00000BF0121C9063046FFF7E0FB0028F8D0DF
