:020000040000FA
:10000000C0090020D9000000CF0B0000950B0000B4
:1000100000000000000000000000000000000000E0
:10002000000000000000000000000000350D00008E
:100030000000000000000000B90C000041100000AA
:1000400000000000000000000000000000000000B0
:1000500000000000EB000000411E0000EB0000006B
:10006000EB000000EB000000EB000000EB000000E4
:1000700000000000EB000000EB000000EB000000BF
:10008000EB000000EB000000EB000000EB000000C4
:10009000EB000000EB000000EB000000EB000000B4
:1000A000EB000000EB000000EB000000EB000000A4
:1000B00000000000EB000000EB000000EB0000007F
:1000C0000448854600F040F8004800477D1F0000C6
:1000D000C046C046C0090020044880470448004785
:1000E000FEE7FEE7FEE7FEE7FEE7FEE7C9100000D9
:1000F000C100000030B50B4601460020202201243B
:1001000009E00D46D5409D4205D31D469540491B4B
:100110002546954040191546521E002DF1DC30BD94
:100120000321001D401E037812021A43491EF9D50F
:1001300010467047034603220870000A491C521EED
:10014000FAD5184670470000064C0125064E05E01A
:10015000E36807CC2B430C3C98471034B442F7D3E8
:10016000FFF7B2FF14200000342000000348407C59
:10017000042188430149487470470000000006408C
:100180000348407C802108430149487470470000BF
:1001900000000640002806D10649497C4022114350
:1001A000044A517405E00349097D49084900014AA0
:1001B00011757047000006400348007D8021084308
:1001C0000149087570470000000006400348007DA3
:1001D000042188430149087570470000000006406B
:1001E0000348007D4021884301490875704700009D
:1001F000000006400348407C402108430149487400
:1002000070470000000006400348807C08218843B6
:100210000149887470470000000006400348407C94
:1002200010218843014948747047000000000640CF
:100230000348407C202188430149487470470000EE
:10024000000006400348407C04218843014948746B
:10025000704700000000064070B503469D00054E43
:10026000AC19002002E025780D54401C9042FAD3CE
:1002700070BD00002000064070B503469D00054E8D
:10028000AC19002002E00D5C2570401C9042FAD3AE
:1002900070BD00002000064001214170704770B51C
:1002A00005460C4680202040802805D100221146BA
:1002B000104600F0BDFD04E000221146104600F09B
:1002C00053FD002070BD70B506460C466006400E1A
:1002D000002800D170BD8020204080280DD160060C
:1002E000400E24214843314618314518FFF78CFF52
:1002F000FFF794FF002068700AE024206043314635
:1003000060314518FFF758FFFFF76AFF002068705B
:100310000020DFE7FFB583B006460D461746802074
:100320002840802807D16806400E242148433146E2
:100330001831441806E06806400E2421484331462F
:1003400060314418214608313846FFF7F3FE06981D
:10035000A0706806400E20702078002808D1214641
:100360001C31FFF7E7FE214618310020FFF7E2FEBF
:1003700021460C310020FFF7DDFE21461031002020
:10038000FFF7D8FE214614310020FFF7D3FE0020EE
:100390006070207800F0E2FD80202840002837D0EF
:1003A00020460830FFF7BCFE80B20290201DFFF708
:1003B000B7FE80B20190E278029900F039FD207812
:1003C000002821D020460830FFF7AAFEC0B20290D4
:1003D00000F07AFD227801219140C8B200F0CCFDF6
:1003E000012000F077FDA07800F090FD00F094FB74
:1003F000002806D000F04EFBE078002801D000F085
:1004000049FBFFF7F7FE37E0012000F0B5FD33E0D0
:1004100020460830FFF784FE80B20290201DFFF7CF
:100420007FFE80B20190E278029900F09DFC207876
:1004300000281ED020460830FFF772FEC0B202909E
:1004400000F0D4FC227801219140C8B200F08CFD6C
:10045000FFF7B2FEA07800F0D9FC00F045FB0028C1
:100460000AD000F00DFBE078002805D000F008FB72
:1004700002E0012000F080FD002007B0F0BDFFB5D4
:1004800081B005460E46002000907006400E2421E3
:10049000484329466031441821460C310398FFF740
:1004A00049FE214610310498FFF744FE21461431DD
:1004B0000020FFF73FFE20461030FFF731FE0746D1
:1004C00020460830FFF72CFE874210D9204608301E
:1004D000FFF726FE009020461030FFF721FE00991E
:1004E000471A214610313846FFF724FE09E020461E
:1004F0001030FFF715FE0090214610310020FFF765
:1005000019FE002005B0F0BD70B505460C46EC7034
:10051000204600F01BFD70BD70B506460C468020DD
:100520002040802807D16006400E242148433146F0
:100530001831451804E024206043314660314518E5
:100540006006400E00F00AFD01206870287800283F
:1005500002D100F0FFFB08E080202040002802D0FC
:1005600000F0CAFC01E000F047FC002070BDFFB5C0
:1005700081B005460E46002000907006400E2421F2
:100580004843294618314418207800F0E7FC2146FA
:100590000C310398FFF7CEFD214610310498FFF788
:1005A000C9FD20461030FFF7BBFD07462046083046
:1005B000FFF7B6FD874210D320460830FFF7B0FDA5
:1005C000009020461030FFF7ABFD0099471A2146F6
:1005D00010313846FFF7AEFD09E020461030FFF736
:1005E0009FFD0090214610310020FFF7A3FD20461B
:1005F0000C30FFF795FD074620783946009AFFF743
:100600003BFE207800F00AFD2078002816D1204615
:100610000830FFF785FD009988420FD900F08CFB68
:1006200021461C310020FFF785FD214618310020AE
:10063000FFF780FD291D0020FFF77CFD21462031BA
:100640000120FFF777FD20460C30FFF769FD009988
:10065000471821460C313846FFF76CFD002005B0E5
:10066000F0BD000010B50446211D0020FFF762FD1B
:10067000012060700020E07021460831FFF75AFD2C
:1006800021460C310120FFF755FD002000F082FCCF
:1006900000F05AFA00F04CFA00F050FA2F2003490B
:1006A0000860087800F070FC10BD00009400002085
:1006B000FFB581B006460C461746802020408028B2
:1006C00007D16006400E24214843314618314518B1
:1006D00006E06006400E242148433146603145184B
:1006E000EF70291D0498FFF725FD002005B0F0BD2F
:1006F00070B504460D46E807C00F00281BD00E4C0D
:1007000000F0D8F9064621461431FFF713FD2046C4
:100710001430FFF705FD06463246214650390020C9
:10072000FFF79AFD0020FFF735FD04480068816857
:1007300020466038884770BD24010020B4000020A6
:10074000F8B500F0B1F90546E807C00F002835D02C
:100750001B4C00F0AFF9064621461431FFF7EAFCC6
:1007600020461430FFF7DCFC00281DD02046143052
:10077000FFF7D6FC064620460C30FFF7D1FC0746B3
:10078000324639460020FFF767FD20460C30FFF760
:10079000C7FC074620461430FFF7C2FC3E1821462E
:1007A0000C313046FFF7C6FC0020FFF7F3FC05488C
:1007B000006800210268024860389047F8BD0000D8
:1007C00024010020B400002010B503480068002177
:1007D00042680248904710BDB4000020C4000020C9
:1007E000F3B587B0A34D079805900898049000BF13
:1007F0000598C007C00F002843D0002000F0AEFBD2
:100800009C4C603400F050F9074604203840002822
:1008100006D0FFF7ABFC00206070291DFFF78AFCB3
:1008200010203840002814D0FFF7AAFC687802286E
:100830000BD191480068002807D08F4801788D4877
:10084000FFF762FE00208C490860291D0020FFF799
:1008500071FC281DFFF764FC002803D139462046AF
:10086000FFF746FF281DFFF75BFC022801D1FFF7C9
:10087000ABFF281DFFF754FC032801D1FFF760FFF1
:1008800000BFFE210498084000287AD001260FE01E
:100890000498401004900498C007C00F002805D0A9
:1008A000F0B20690069800F059FB03E0701C86B287
:1008B000082EEDDB00BF2421069848436D496031C6
:1008C0004418214620310020FFF734FC00F0F8F8EE
:1008D0000290402102980840002805D0FFF780FCD4
:1008E000FFF76AFC0020607004210298084000288D
:1008F00001D0FFF76BFC0298C007C00F002851D051
:1009000000F0E4F80390039800281FD020460C3034
:10091000FFF706FC07463946039A0698FFF79CFC4A
:1009200020461430FFF7FCFB039947182146143189
:100930003846FFF7FFFB20460C30FFF7F1FB039929
:10094000471821460C313846FFF7F4FB0698FFF7AD
:1009500021FC20461030FFF7E3FB00280AD0204698
:100960001430FFF7DDFB074620460830FFF7D8FBC1
:10097000874207D24148006802683E48069990477E
:1009800010E010E020461030FFF7CAFB87B2204687
:100990000C30FFF7C5FB019021783B4602463548F5
:1009A000FFF76DFD00BFFE2105980840002853D0D9
:1009B00000F0A6F8074600F0A9F8029001260FE023
:1009C0000598401005900598C007C00F002805D075
:1009D000F0B20690069800F0C1FA03E0701C86B2EF
:1009E000082EEDDB00BF2421069848432149183129
:1009F0004418214620310020FFF79CFB202038407E
:100A0000002805D0FFF714FCFFF7F4FB002060700E
:100A100004203840002801D0FFF714FC2046103095
:100A2000FFF77EFB002806D1144800684268114891
:100A3000069990470FE020461030FFF771FB0190B8
:100A400020460C30FFF76CFB0090217802460948E5
:100A5000019BFFF78CFD00BF00F070F80746059082
:100A600000F066F807430490002F00D0C0E609B0FC
:100A7000F0BD0000C4000020B8000020B400002039
:100A80000348007D102108430149087570470000A4
:100A9000000006400348407C08210843014948748F
:100AA00070470000000006400148407C704700008D
:100AB000000006400148807D7047000000000640AD
:100AC0000148007D70470000000006400548C07DD9
:100AD0004107490F0802034A927D10430146C8B2FC
:100AE00070470000000006400448007D02210840D5
:100AF000002801D0012070470020FCE700000640DC
:100B00000148407C70470000000006400148807C9E
:100B100070470000000006400448407C0221084065
:100B2000002801D0012070470020FCE700000640AB
:100B300001480079704700000000064001488078B5
:100B400070470000000006400148807970470000AF
:100B50000000064001484078704700000000064051
:100B600070B50A48846BC56B084840300668A41904
:100B7000002C0AD008220649204600F00DF8042275
:100B800003491031284600F007F870BD00B000405E
:100B90002E00002000BFFEE730B50B46002100BF4D
:100BA00012E0040F0A2C04D2040F30344D005C55BF
:100BB00003E0040F37344D005C55000100254C0064
:100BC000641C1D554C1CE1B29142EADB30BD7047FC
:100BD00000218278002A27D0184A03231B02D2184A
:100BE00003789B109B00D15802789207D30EFF2206
:100BF0009A400B469343194642789207120E0378A7
:100C00009B07DB0E9A4011430C4A03231B02D218A8
:100C100003789B109B00D1500278D306DB0E012293
:100C20009A40064B1A6007E00278D306DB0E0122D9
:100C30009A40024B80331A607047000000E100E0E8
:100C400010B5002819DA1A4A03071B0F083B9B0846
:100C50009B00D2588307DC0EFF23A3409A438B07E7
:100C60001B0E8407E40EA3401A43114B0407240F04
:100C7000083CA408A4001A5118E00E4A03231B02E2
:100C8000D21883089B00D2588307DC0EFF23A340B1
:100C90009A438B071B0E8407E40EA3401A43054BAF
:100CA000032424021B198408A4001A5110BD00005B
:100CB0001CED00E000E100E07047000000290CD0CE
:100CC000012803D0022801D0042802D1094A50612A
:100CD0000FE00122920750610BE0012803D00228A7
:100CE00001D0042802D1034A906102E00122920758
:100CF000906170470003004000290CD0012803D008
:100D0000022801D0042802D1094A90600FE0012294
:100D1000920790600BE0012803D0022801D004283C
:100D200002D1034A506002E00122920750607047EE
:100D300000030040704700000548407C082108403F
:100D4000002804D10248407C084301494874704798
:100D5000000006400348407C2021084301494874B4
:100D6000704700000000064070B503460C46802C1A
:100D70001FD008DC082C14D0102C14D0202C14D038
:100D8000402C1ED113E0E51FF93D002D13D0FF3D8F
:100D9000013D002D11D0FF3DFF3D023D002D10D142
:100DA0000DE000200FE020200DE040200BE060204F
:100DB00009E0802007E0A02005E0C02003E0E0205B
:100DC00001E0602000BF00BFD910074EB1770D05CC
:100DD000290F002A01D0102529430D460543294635
:100DE000014EF17770BD0000000006400149C87453
:100DF00070470000000006400348007D20210843A2
:100E0000014908757047000000000640012806D11E
:100E10000649497D40221143044A517505E00349C2
:100E2000497D40229143014A5175704700000640B8
:100E300070B503460C46802C1FD008DC082C14D05B
:100E4000102C14D0202C14D0402C1ED113E0E51F00
:100E5000F93D002D13D0FF3D013D002D11D0FF3D88
:100E6000FF3D023D002D10D10DE000200FE02020BD
:100E70000DE040200BE0602009E0802007E0A0208A
:100E800005E0C02003E0E02001E0602000BF00BFDB
:100E9000D910074E31770D05290F002A01D01025F2
:100EA00029430D4605432946014E717770BD000068
:100EB000000006400348807C0821084301498874EB
:100EC00070470000000006400149087470470000A8
:100ED00000000640002806D00649897C20221143E4
:100EE000044A917405E00349897C20229143014A18
:100EF00091747047000006400348407C102108436D
:100F000001494874704700000000064000B50246E1
:100F1000012A06D10C48807C402108430A49887484
:100F200005E00948807C4021884307498874022AEB
:100F300001D0012A02D1FFF767F903E0032A01D1AA
:100F4000FFF7B8FF00BD0000000006404106490E53
:100F5000014A117070470000000006400149887383
:100F600070470000000006400249497A0143014AE7
:100F700051727047000006400249C9790143014A95
:100F8000D1717047000006400149C87270470000E7
:100F9000000006400149487070470000000006400C
:100FA00010B500F001F810BD10B5002481208000BC
:100FB0000107486140101449086001201349086086
:100FC0001348806888218843114988601148490581
:100FD000086306E02046641C0121C903884200D34F
:100FE00004E001208007406B0128F3D100BF0A48CC
:100FF00000F0BAFF0120054940390861002048612E
:101000000120486110BD000000B000408000004099
:101010000002004003000080B80B0000002806D149
:101020000649497C02221143044A517405E00349F0
:10103000497C01221143014A517470470000064067
:1010400070B51D4C1D480068401C1C4908600020FC
:1010500020706070A070E07019480078002801D1FD
:10106000012000E00020164908700846007800289A
:1010700003D06078001D607002E06078001F60702F
:101080002078002805D16078002802D1A0780028B7
:1010900010D0042221460B4800F0E3FA0546012D4A
:1010A00008D107480078002801D1012000E0002085
:1010B0000349087070BD00000400002008000020F3
:1010C0000C000020C400002010B503480349086349
:1010D000FFF766FF10BD0000058000000001004022
:1010E00070B504460D462046A830FFF719F829468A
:1010F00046682046B047002070BD70B504460D46D6
:101100006078022802D0032815D100E000BF68886B
:1011100001280FD1214608310020FFF70BF82046A7
:10112000A830FEF7FDFF294686682046B0472046D6
:1011300000F044F804E02946204600F01DF800BF06
:1011400000BF70BDF8B506460C46154600272B4675
:10115000224600213046FFF792F93846F8BDF8B52F
:1011600006460C46154600272B46224600213046EF
:10117000FFF7FDF93846F8BD70B504460D4600216D
:101180002046FFF7C9F970BDF8B504460D4616466E
:101190000027214630313046FEF7CCFF214624316E
:1011A0002846FEF7C7FF214628313046FEF7C2FF2A
:1011B000211D0220FEF7BEFF3846F8BD70B505467A
:1011C0000024FFF7B9FD204670BDF8B505460E4670
:1011D000002E59D12C461834281DFEF7A1FF0228F5
:1011E00064D120461030FEF79BFF00280FD0204628
:1011F0001030FEF795FF87B220460C30FEF790FFC7
:101200003A46014600902846FFF7A9FF4EE02046E7
:101210000830FEF785FF074620461830FEF780FFAE
:1012200039460090FEF766FF00291BD12046183092
:10123000FEF776FF074620460830FEF771FF87422B
:1012400010D320461830FEF76BFF074620461C30AF
:10125000FEF766FF874205D2002211462846FFF7B7
:101260007EFF23E02846A830FEF75AFFC06800281A
:101270001CD06878032819D12846A830FEF750FF03
:10128000C7682846B84711E02846A830FEF748FF4F
:10129000406900280AD06878032807D12846A8307A
:1012A000FEF73EFF314647692846B8470020F8BDA3
:1012B000F8B504460E46002E3CD125466035201D6B
:1012C000FEF72EFF032847D128461030FEF728FFEF
:1012D000074628460830FEF723FF87420FD92846E5
:1012E0001030FEF71DFF87B228460C30FEF718FFBE
:1012F0003A46014600902046FFF724FF2CE029469D
:1013000010310020FEF716FF2046A830FEF708FF38
:101310000069002809D06078032806D12046A8304B
:10132000FEF7FEFE07692046B847211D0020FEF7A4
:1013300001FF11E02046A830FEF7F2FE8069002888
:101340000AD06078032807D12046A830FEF7E8FECF
:10135000314687692046B8470020F8BD0146002085
:10136000704738B504460D4600200090E8880128F3
:1013700004D029462046FFF7FFFE17E060780228D8
:1013800002D003280CD105E0012269462046FFF770
:10139000FBFE0AE0012221462046FFF7F5FE04E0AD
:1013A00029462046FFF7E8FE00BF00BF38BDFEB566
:1013B00004460E4670880012030000F0B1FD08BA22
:1013C000051B31BABAB0B5BA20460C30FEF7A8FEFC
:1013D000C7B22046B030FEF7A3FE006802A9019014
:1013E0003846019A90470546F088402801D10820E8
:1013F0000290A3E020460C30FEF792FEC7B22046D2
:10140000A830FEF78DFE006A02A901903846019AC5
:10141000904705462146B4312846FEF78BFE8DE005
:10142000B078030000F07CFD0604152636465666AB
:1014300020460C30FEF774FEC7B22046B030FEF7EF
:101440006FFE406802A901903846019A9047054610
:1014500063E020460C30FEF763FEC7B22046B03092
:10146000FEF75EFE806802A901903846019A904717
:10147000054652E020460C30FEF752FEC0B2019005
:101480002046B030FEF74CFE02A9C7680198B84765
:10149000054642E020460C30FEF742FEC0B2019005
:1014A0002046B030FEF73CFE02A907690198B84714
:1014B000054632E020460C30FEF732FEC0B2019005
:1014C0002046B030FEF72CFE02A947690198B847C4
:1014D000054622E020460C30FEF722FEC0B2019005
:1014E0002046B030FEF71CFE02A987690198B84774
:1014F000054612E020460C30FEF712FEC0B2019005
:101500002046A830FEF70CFE876AB07802AA014692
:1015100000900198B847054600BF00BF0EE0314675
:101520002046FFF729FEFEBD31462046FFF724FE88
:10153000F9E731462046FFF71FFEF4E700BF684693
:101540000089002812D0F08800280FD0F088694662
:101550000989884202DD6846008900E0F08802902F
:1015600069460A8929462046FFF70EFE00BFDAE7E2
:101570000146002002E0421CD0B2491C0A78002A31
:10158000F9D1704738B504460D46002000906078C8
:10159000022802D0032813D100E000BF01200090F0
:1015A00020460830FEF7BCFD002803D00221009839
:1015B00008430090022269462046FFF7E5FD04E05B
:1015C00029462046FFF7D8FD00BF00BF38BDF8B55B
:1015D00004460D4617460026002C1ED02046FFF775
:1015E000C7FF4000801C38803A783046711CCEB26C
:1015F0002A5403223046711CCEB22A540AE02278C3
:101600003046711CCEB22A54641C00223046711C34
:10161000CEB22A5420780028F1D1F8BD70B5044626
:101620000D4681212046FEF73AFE002070BD0000E5
:10163000024622200880014870470000BC1F0000BD
:1016400070B504460D468023012281212046FFF714
:101650002FF80323042281212046FEF75BFE0020A1
:1016600070BDF8B504460D46164627463C37384649
:101670002030FEF755FD00280BD16078032806D1F5
:1016800000BF33462A4681212046FEF770FF002026
:10169000F8BD0120FCE70000F8B505460C46002621
:1016A0000027207860210840002827D0202857D123
:1016B0006078022814D0032807D00A280BD00B2802
:1016C00014D1A0782849086016E00122264928464E
:1016D000FFF75AFD10E060880012244908600BE013
:1016E000012222492846FFF74FFD05E02146284602
:1016F000FFF742FD0220F8BD00BF31E06078062808
:1017000004D00A2821D00B2829D124E060880012B7
:10171000222808D1E088342801DD342000E0E08868
:101720000646134F0BE060880012212807D1114FA5
:10173000E088092801DD092000E0E08806463246FD
:1017400039462846FFF720FD09E001220A492846CC
:10175000FFF71AFD03E0A0780749086000BF00BF4B
:1017600000BF0020C7E700008C0000209000002090
:10177000DE1F0000CE1F00008800002010B50A4CBC
:1017800020462030FEF7CCFC01280BD12146203129
:101790000020FEF7CFFCFFF77DF9E078002801D0AC
:1017A000FFF778F9002010BD00010020F8B50446CD
:1017B0000D4616461F46204600F024FB2046FFF744
:1017C000CDFD2146A8313046FEF7B4FC2146AC31B0
:1017D0003846FEF7AFFC2146B0312846FEF7AAFC9A
:1017E000FFF7BEF92046FEF73DFF2046AC30FEF77E
:1017F00097FC006800908047204600F0F7FA2046EA
:10180000FEF74AFDF8BD70B504460D46207C2870F1
:10181000607C6870A17CE07C000208186880217DF3
:10182000607D00020818A880A17DE07D00020818F4
:10183000E880E88821463431FEF77CFC70BD70B545
:10184000044600231A4619462046FEF731FF40237E
:10185000002280212046FEF72BFF0023402219465C
:101860002046FEF757FD0023402280212046FEF748
:1018700051FD211D0020FEF75DFC01206070204617
:101880000C30FEF74DFCC5B22046AC30FEF748FCEC
:1018900046682846B047002070BD70B50446204613
:1018A000AC30FEF73DFC0569A847A07860700020C9
:1018B00070BD70B504462046A830FEF731FCC06903
:1018C000002806D02046A830FEF72AFCC56920462D
:1018D000A847002070BD000070B504460D46A888DA
:1018E000002818D1E888002815D1A8784606760E79
:1018F0006078032804D129462046FFF73DFC0EE01E
:10190000E67007480660002E02D00220607006E0F4
:101910000120607003E029462046FFF72DFC70BDD2
:10192000B800002070B504460D462046A830FEF7EA
:10193000F7FB294606682046B0472046AC30FEF744
:10194000EFFB8668B047002070BD000070B504460C
:101950000D46A8782C49087008460078012804DD57
:1019600029462046FFF708FC4CE06078022802D0A8
:10197000032841D115E02448007800280DD02248E2
:1019800000782070032060701F4801782046FFF720
:10199000C9FF2046FFF712FC02E02046FFF70EFCCD
:1019A0002FE01948007800280DD1022060701648F9
:1019B00000782070144801782046FFF791FB2046FC
:1019C000FFF7FCFB17E020780F49097888420FD019
:1019D00021782046FFF784FB0B48007820700A48E6
:1019E00001782046FFF79EFF2046FFF7E7FB02E065
:1019F0002046FFF7E3FB04E029462046FFF7BCFB47
:101A000000BF00BF70BD0000BC00002070B50446E0
:101A10000D46688801280ED121460831FEF78AFB61
:101A20002046A830FEF77CFB294686682046B04752
:101A30002046FFF7C3FB70BD1CB50446694620462F
:101A4000FFF7E1FE68460078C006C00E002804D00B
:101A5000012807D002280FD109E06946204600F08E
:101A600017F812E06946204600F0F9F80DE06946E3
:101A7000204600F046F808E06846007880221040D2
:101A800001462046FEF748FD00BF00BF00201CBDF8
:101A900070B505460C4600266078030000F040FA59
:101AA0000A1A24291F290B06291510292146284620
:101AB000FFF77DFC22E021462846FFF70DFF1DE0E1
:101AC00021462846FFF742FF18E021462846FFF747
:101AD00048FC13E021462846FFF754FD0EE021465E
:101AE0002846FFF793FF09E021462846FFF705FB4C
:101AF00004E021462846FFF73FFB00BF00BF304609
:101B000070BDFEB505460E46002001900090347968
:101B1000707800285DD001282ED0032879D168780C
:101B2000022802D0032820D108E0002C05D0802C08
:101B300003D021462846FEF7EFFC1BE07088002802
:101B400007D1002C05D0802C03D021462846FEF773
:101B5000E3FC2846A830FEF7E3FA314687682846BA
:101B6000B8472846FFF72AFB04E031462846FFF72E
:101B700003FB00BF00BF6FE06878022802D0032893
:101B800020D108E0002C05D0802C03D02146284627
:101B9000FEF7C2FC1BE07088002807D1002C05D09E
:101BA000802C03D021462846FEF78DFB2846A8301E
:101BB000FEF7B6FA314687682846B8472846FFF749
:101BC000FDFA04E031462846FFF7D6FA00BF00BF11
:101BD00042E06878022802D0032835D108E0002CC2
:101BE00005D0802C03D021462846FEF795FC30E036
:101BF00080202040802810D16006400E24214843D8
:101C00002946183140184078002803D0012001905F
:101C100014E020E00020019010E080202040002807
:101C20000CD12420604329466031401840780028B8
:101C300002D00120019001E000200190022201A9C0
:101C40002846FFF7A1FA04E031462846FFF794FA48
:101C500000BF00BF00E000BF00BF0098FEBDF8B5A8
:101C600004460D4600266078032811D12879012802
:101C700009DC2046A830FEF753FA2946876820463B
:101C8000B847064603E029462046FFF775FA04E008
:101C900029462046FFF770FA00BF00BF3046F8BD66
:101CA00070B504466078A070042060702046AC30A7
:101CB000FEF736FAC568A8472046A830FEF730FA86
:101CC000406A002805D02046A830FEF729FA456A68
:101CD000A847002070BD000070B505460C4622469E
:101CE000024903A0FFF773FC004870BD7C0100208F
:101CF00048494420436F6E666967000070470000E2
:101D00000246122008800148704700009C1F000016
:101D1000704770477047000010B57D21C9000C481E
:101D20000068FEF7E7F90446601E0A49884200D9B8
:101D30000CE0601E084948610321081FFEF780FF80
:101D40000020054988610720086100BF10BD000020
:101D5000C0000020FFFFFF0000E000E070B5054676
:101D60000C462246024903A0FFF731FC004870BD33
:101D70007C01002048494420496E746572666163A5
:101D800065000000024604200880014870470000FA
:101D9000B81F000070B505460C462246024903A054
:101DA000FFF715FC004870BD7C0100204D49430041
:101DB00070B505460C462246024903A0FFF707FC12
:101DC000004870BD7C0100204A6F79737469636BB1
:101DD00020696E204653204D6F64650002461A202C
:101DE00008800148704700002C00002038B50446E8
:101DF000062168460170012141708170FEF7E8FEFE
:101E000038BD000010B504460B48806801218902E6
:101E10008843094988600121C807FEF74FFF012167
:101E2000C807FEF769FF054800F097F80021012078
:101E3000C007FEF761FF10BD00020040E093040000
:101E400010B500F001F810BD3EB5FEF777FE019029
:101E5000FEF76EFE0090FEF777FE02906846007A6D
:101E6000022108402B490968084000280BD0FEF7E2
:101E700071FE012108430446FFF78CF826480068EC
:101E80008169264888476946087909780843002807
:101E900004D0684601780079FEF7A2FC6846007A13
:101EA000042108401B4909680840002813D01A483B
:101EB000006801691948884700211848FEF724FB8B
:101EC00014490878FFF760F8FEF744FE0121084343
:101ED0000446FFF75FF86846007A082108400D497C
:101EE00009680840002804D00B480068C1680B4806
:101EF00088476846007A6846007AC007C00F0549DF
:101F000009680840002804D0034800684169034874
:101F100088473EBD94000020B4000020C40000208B
:101F200030B47446641E2578641CAB4204D3635DF0
:101F30005B00E31830BC18471D46F8E702E008C80C
:101F4000121F08C1002AFAD170477047002001E033
:101F500001C1121F002AFBD17047002101E000BF20
:101F6000491C8142FBD3704708B5009000E000BFD8
:101F700000994A1E00920029F9D108BD034B044A7A
:101F800004490548FFF712FC00BFFEE748000020A7
:101F90005C00002010000020C4000020120110018D
:101FA00000000040180901710002010203010A0645
:101FB000000200000040010004030904090222009D
:101FC000010100A0320904000001030102000921FF
:101FD00011012101223400070581030400010501DC
:101FE0000902A1010901A100950375010509190163
:101FF00029031500250181029501750581039503CB
:10200000750805010930093109381581257F8106D8
:10201000C0C000003420000000000020C400000008
:102020003C1F0000F8200000C4000020FC08000055
:102030004C1F000000000000000000000000000035
:1020400000000000011D0000851D0000951D00001E
:10205000B11D0000DD1D0000D91C00005D1D000049
:102060001A03000000000000000000000000000053
:10207000000000000000000000000000191D00002A
:10208000111D0000FD1C0000151D0000131D0000A7
:10209000411600001D160000991600000000000007
:1020A0000000000000000000000000000000000030
:1020B000311600007D170000000000000000000045
:1020C000000000000000000000000000B11200004D
:1020D000CB110000391A0000B31800003F180000AF
:1020E000A11C00009B1800009800002000000000C8
:0820F0000000000000BD010525
:04000005000000C136
:00000001FF
