:020000040000FA
:1000000048310020D9000000E1000000A1010000FB
:1000100000000000000000000000000000000000E0
:100020000000000000000000000000007D22000031
:1000300000000000000000001F0100005D23000020
:1000400000000000000000000000000000000000B0
:1000500000000000EB000000EB000000EB000000DF
:10006000EB000000852E0000E92E0000EB000000F0
:1000700000000000EB00000085230000EB00000002
:10008000EB000000EB000000810D00007106000095
:10009000EB000000EB000000EB000000EB000000B4
:1000A000EB000000E5160000EB000000EB00000094
:1000B00000000000EB000000EB000000EB0000007F
:1000C0000448854600F02AF90048004797030000DD
:1000D000C046C046483100200448804704480047D5
:1000E000FEE7FEE7FEE7FEE7FEE7FEE76D23000022
:1000F000C1000000EFF3108072B6704780F31088E3
:1001000070472A4A1368012B03D001231360284A41
:100110001060284A11602848284901607047EFF3B1
:10012000108272B62148016800291DD000210160AB
:100130001F48016800290AD0EFF3098120390068BF
:100140000160F0C144464D4656465F46F0C119492C
:1001500009680968F0C9F0B4F0C9A046A946B246DA
:10016000BB46F0BC81F3098882F31088042040422A
:100170000047104908600E49002008600B49012023
:1001800008600F480F490268114301600A480B4993
:1001900001600D480068006880F3088862B6704707
:1001A000EFF3098000B505F08DFE00BD14010020BD
:1001B0000C0100201001002004ED00E00000001000
:1001C00020ED00E00000FFFF08ED00E030B50B4639
:1001D000014600202022012409E00D46D5409D4221
:1001E00005D31D469540491B2546954040191546A7
:1001F000521E002DF1DC30BD70B5002425460028CC
:1002000001DA01244042002901DA01254942FFF7C1
:10021000DDFFAC4200D04042002C00D0494270BD0E
:1002200003460B439B0703D009E008C9121F08C00F
:10023000042AFAD203E00B780370401C491C521EBA
:10024000F9D27047D2B201E00270401C491EFBD2C5
:1002500070470022F6E710B513460A4604461946D1
:10026000FFF7F0FF204610BD421E5378521C002BB2
:10027000FBD10B781370491C521C002BF9D170472D
:1002800030B505462A460B4610781C78521C5B1C7C
:10029000002801D0A042F7D0002C03D0002802D0C3
:1002A0006D1CEFE7284630BD10B5044605E00B781D
:1002B0000370401C002B00D0491C521EF7D2204670
:1002C00010BD421C0178401C0029FBD1801A7047E8
:1002D00010B5002200E0521C835C8C5CA34201D16B
:1002E000002BF8D1D8B2E1B2401A10BD03460A780B
:1002F0000270401C491C002AF9D11846704730B5DD
:1003000005460020034600E05B1C934205D2EC5CEE
:10031000C85C201A01D1002CF6D130BD064C012555
:10032000064E05E0E36807CC2B430C3C984710349D
:10033000B442F7D3FFF7C8FE3C8500005C8500009F
:1003400070B58C180578401C6B075B0F01D10378E2
:10035000401C2A1106D10278401C03E006780E707A
:10036000401C491C5B1EF9D12B0705D40023521EEB
:100370000DD40B70491CFAE70378401CCB1A921C71
:1003800003E01D780D70491C5B1C521EF9D5A1427B
:10039000D8D3002070BD10B507F02AFB002010BD97
:1003A00008B500F089F802207D231B0100220449D2
:1003B000009004A007F06AF807490860002008BD13
:1003C000DD03000041444350726F63657373536FE4
:1003D000667454696D6572008800002070470000E3
:1003E00010B50446002C04D0200C0004002800D1D5
:1003F00004E0FF21DC3104A003F0D2FC1248806A43
:1004000020431149886210BD2E2E5C2E2E5C2E2EAC
:100410005C4C69627261726965735C56544D303729
:1004200031785F5374645065726970685F447269B3
:100430007665725C7372635C56544D303731785F09
:100440006164632E630000000050004010B5044654
:10045000002C05D09C2120468843002800D103E0D1
:10046000034904A003F09CFC1248046010BD000086
:10047000F70200002E2E5C2E2E5C2E2E5C4C696244
:100480007261726965735C56544D303731785F53D1
:1004900074645065726970685F4472697665725CF5
:1004A0007372635C56544D303731785F6164632EEC
:1004B000630000000050004010B58AB00024012203
:1004C0000021084600F072FC01221146002000F0D5
:1004D0006DFC13216846017000214170012181707B
:1004E00001F07AFB0021042001F000FE0821B02079
:1004F00001F048FE0121080201F012FC00F024F88E
:1005000001A800F0EFFA0120800208900F2080017E
:10051000099001A800F002F9002000F021F8012064
:1005200000F094FA0320FFF75BFF00BF00E0641CBB
:10053000012040038442FAD300F0CAFA01210820C6
:1005400000F0A0F80AB010BD10B50121080201F0BA
:100550003FFC0021FF20013001F03AFC10BD0000FB
:1005600010B50446002C01D0012C00D103E00B494A
:100570000BA003F015FC002C07D01948C06801211E
:10058000090408431649C86006E01548C0680121FF
:10059000090488431249C86010BD0000070200002A
:1005A0002E2E5C2E2E5C2E2E5C4C6962726172695E
:1005B00065735C56544D303731785F5374645065C1
:1005C000726970685F4472697665725C7372635CAD
:1005D00056544D303731785F6164632E63000000FC
:1005E0000050004070B5044600250026042C05D0BC
:1005F000082C03D0102C01D0802C00D103E00A4934
:100600000AA003F0CDFB1948406820400646174871
:1006100000682040002803D0002E01D0012500E012
:100620000025284670BD0000D60200002E2E5C2E4C
:100630002E5C2E2E5C4C69627261726965735C5629
:10064000544D303731785F53746450657269706807
:100650005F4472697665725C7372635C56544D30A8
:100660003731785F6164632E630000000050004002
:1006700010B50820FFF7B6FF012802D10C20FFF7C4
:10068000E5FE10BD70B504460D46002D01D0012DCC
:1006900000D103E00F4910A003F082FB002C05D02D
:1006A0009C2120468843002800D104E00949491CC8
:1006B00009A003F075FB002D05D0174840682043C2
:1006C0001549486004E014484068A0431249486056
:1006D00070BD0000790200002E2E5C2E2E5C2E2EA6
:1006E0005C4C69627261726965735C56544D303757
:1006F00031785F5374645065726970685F447269E1
:100700007665725C7372635C56544D303731785F36
:100710006164632E630000000050004070B5044621
:1007200000252068002808D02068082805D0206807
:10073000102802D02068182800D103E05421AAA074
:1007400003F02EFB207E002802D0207E012800D15D
:1007500003E05521A4A003F023FBE06900280DD09D
:1007600001218902E069884208D04900E069884295
:1007700004D003218902E069884200D103E05621B8
:1007800099A003F00DFB206A00287DD0206A402844
:10079000FBD0206A8028F8D0206AC02874D0FF21BE
:1007A0000131206A88426FD0FF214131206A88429E
:1007B0006AD0FF218131206A884265D0FF21C13192
:1007C000206A884260D001214902206A88425BD0B9
:1007D00009218901206A884256D00521C901206A71
:1007E000884251D00B218901206A88424CD00321D4
:1007F0000902206A884247D00D218901206A884277
:100800007CD00721C901206A884277D00F21890155
:10081000206A884272D001210906206A88426DD080
:100820008149206A884269D07F494031206A8842E4
:1008300064D07D498031206A88425FD04906206AB1
:1008400088425BD07949206A884257D07749403145
:10085000206A884252D075498031206A88424DD042
:100860007249C031206A884248D07149206A884262
:1008700044D06F494031206A88423FD06C49803172
:10088000206A88423AD000E038E06949C031206AE5
:10089000884233D06749206A88422FD06549403169
:1008A000206A88422AD063498031206A884225D054
:1008B0006049C031206A884220D05F49206A88425E
:1008C0001CD05D494031206A884217D05A49803196
:1008D000206A884212D081210906206A88420DD000
:1008E0005649206A884209D054494031206A8842DA
:1008F00004D052498031206A884200D103E0572158
:1009000039A003F04DFA6069002802D06069202800
:1009100000D103E0582134A003F042FA20690028F6
:1009200002D02069042800D103E059212EA003F051
:1009300037FA6068002808D06068012805D0606830
:10094000022802D06068032800D103E05A2126A0C3
:1009500003F026FAA068002808D0A068102805D067
:10096000A068202802D0A068302800D103E05B21D5
:100970001DA003F015FAE068002808D001218907BE
:10098000E068884203D04900E068884200D103E073
:100990005C2115A003F004FA2948C56829480540E0
:1009A000217E490320680843E1690843216A08431E
:1009B000616908432169084305432148C560056909
:1009C000AD00AD08E06805431D4805611E48056897
:1009D0003321284688430546A168606808430543DB
:1009E0001948056070BD00002E2E5C2E2E5C2E2E48
:1009F0005C4C69627261726965735C56544D303744
:100A000031785F5374645065726970685F447269CD
:100A10007665725C7372635C56544D303731785F23
:100A20006164632E6300000040000001400000800C
:100A300040010080400200804003008040000081AF
:100A40000050004003D0FF7F0054004010B5044622
:100A5000002C01D0012C00D103E00B490BA003F0C6
:100A60009FF9002C07D01948C068012109030843E9
:100A70001649C86006E01548C0680121090388438B
:100A80001249C86010BD00001E0200002E2E5C2E10
:100A90002E5C2E2E5C4C69627261726965735C56C5
:100AA000544D303731785F537464506572697068A3
:100AB0005F4472697665725C7372635C56544D3044
:100AC0003731785F6164632E63000000005000409E
:100AD000034880680421084301498860704700008A
:100AE00000500040002101600176C1610162416156
:100AF000016141608160C16070471CB503200090B6
:100B0000002168464171052101710021817169460A
:100B1000062000F029FC01201CBD000010B50122B8
:100B20000421062000F05EFD01A005F0EBFA10BDE7
:100B30004750494F5F57726974654269742847503E
:100B4000494F362C204750494F5F50696E5F342C17
:100B5000204269745F534554293B0A0010B50022B6
:100B60000421062000F03EFD01A005F0CBFA10BDE7
:100B70004750494F5F5772697465426974284750FE
:100B8000494F362C204750494F5F50696E5F342CD7
:100B9000204269745F5245534554293B0A000000C6
:100BA00010B504462068002826D020688047002819
:100BB00022D020796179884203DA2079401C2071A3
:100BC00010BDA07A002809D10120A072012221467F
:100BD0000C311548006805F061FDF1E7E188481C1B
:100BE000E080208981421CD1012221460D310E482E
:100BF000006805F053FDE3E72079002803D0207951
:100C0000401E2071DCE7A07A012808D10020A072E4
:100C1000012221460B310448006805F03FFD002009
:100C2000E08000BFCCE70000780000201CB5022067
:100C300000900021684641710421017101218171F8
:100C40006946002000F090FB0320009000216846D8
:100C5000417104210171012181716946002000F078
:100C600083FB04200090002168464171042101713A
:100C7000012181716946002000F076FB1CBD10B592
:100C8000FFF7D4FF00F014F810BD000010B50548C0
:100C9000FFF786FF0448FFF783FF0448FFF780FF54
:100CA00010BD00004C0400205C0400206C040020F7
:100CB0001E481F490860002008710A204871002062
:100CC000C8807D20C0000881002088720220C87280
:100CD0000120087303204873164817490860002054
:100CE00008710A2048710020C8807D20C00008815A
:100CF000002088720520C8720420087306204873FB
:100D00000E480F490860002008710A204871002031
:100D1000C8807D20C0000881002088720820C87229
:100D20000720087309204873704700006D1B0000FE
:100D30004C040020831B00005C040020991B000071
:100D40006C0400201CB50020009000216846417111
:100D500004210171012181716946012000F004FB29
:100D6000122001218140054A116000BF01231A466B
:100D70000021184600F070F91CBD000000E100E001
:100D800008B501200090002100F0DCF8012809D10D
:100D9000012269460448006805F080FC002101201A
:100DA00000F06CF808BD00000C000020F8B5054606
:100DB0000C461746002D0BD0012D09D0022D07D06F
:100DC000032D05D0042D03D0052D01D0062D00D113
:100DD00003E0872118A002F0E3FF002C0DD0012CC6
:100DE0000BD0022C09D0032C07D0042C05D0052CE5
:100DF00003D0062C01D0072C00D103E088210EA0DF
:100E000002F0CEFF002F01D0012F00D103E0892195
:100E100009A002F0C5FFE800001980001649461835
:100E2000002F04D0306820210843306003E0306890
:100E3000202188433060F8BD2E2E5C2E2E5C2E2E95
:100E40005C4C69627261726965735C56544D3037EF
:100E500031785F5374645065726970685F44726979
:100E60007665725C7372635C56544D303731785FCF
:100E70006770696F2E6300000010004070B5054672
:100E80000C46002D0BD0012D09D0022D07D0032DCB
:100E900005D0042D03D0052D01D0062D00D103E08F
:100EA000154916A002F07CFF002C0DD0012C0BD0B0
:100EB000022C09D0032C07D0042C05D0052C03D01C
:100EC000062C01D0072C00D104E00B49491C0BA0D3
:100ED00002F066FF032D07D9281FC0000119012069
:100EE00088401649486305E0E80001190120884060
:100EF0001349486370BD0000060200002E2E5C2ED0
:100F00002E5C2E2E5C4C69627261726965735C5650
:100F1000544D303731785F5374645065726970682E
:100F20005F4472697665725C7372635C56544D30CF
:100F30003731785F6770696F2E630000408003402F
:100F400040800240F8B504460D4600270026002CDC
:100F50000BD0012C09D0022C07D0032C05D0042C77
:100F600003D0052C01D0062C00D104E0FF21E03194
:100F700027A002F015FF002D0DD0012D0BD0022D62
:100F800009D0032D07D0042D05D0052D03D0062D43
:100F900001D0072D00D104E0FF21E1311CA002F0B7
:100FA000FFFE032C09D92A480068211FC9004A19ED
:100FB000012191400840064607E026480068E1000C
:100FC0004A190121914008400646032C0FD92048B8
:100FD0000069211FC9004A190121914008400028D9
:100FE00003D0002E01D001270FE000270DE01948A3
:100FF0000069E1004A19012191400840002803D00E
:10100000002E01D0012700E000273846F8BD00007F
:101010002E2E5C2E2E5C2E2E5C4C696272617269E3
:1010200065735C56544D303731785F537464506546
:10103000726970685F4472697665725C7372635C32
:1010400056544D303731785F6770696F2E630000FA
:101050004080034040800240F8B504460D461646E5
:101060001F46002F01D0012F00D104E0FF216F3176
:10107000ABA002F095FE002C0BD0012C09D0022C65
:1010800007D0032C05D0042C03D0052C01D0062C4E
:1010900000D104E0FF217031A1A002F081FE002DFB
:1010A0000DD0012D0BD0022D09D0032D07D0042D1A
:1010B00005D0052D03D0062D01D0072D00D104E069
:1010C000FF21713196A002F06BFE002E07D0012E99
:1010D00005D0022E03D0032E01D0042E00D104E04F
:1010E000FF2172318EA002F05BFE002F77D0002E20
:1010F00039D1032C1DD9201FC0004119012088407F
:1011000097498861201FC0004119012088409449F7
:101110008862201FC00041190120884090498863DF
:10112000201FC0004119012088408D49403148608E
:10113000F5E0E0004119012088408A498861E0001B
:1011400041190120884087498862E0004119012047
:10115000884084498863E000411901208840814922
:1011600040314860DBE0012E3AD1032C1DD9201F0D
:10117000C00041190120884079498861201FC000C2
:1011800041190120884076498862201FC00041191A
:101190000120884072494863201FC0004119012086
:1011A00088406F4940314860B9E0E00041190120B2
:1011B00088406C498861E0004119012088406949F4
:1011C0008862E00041190120884066494863E000D8
:1011D0004119012088406349403148609FE08CE01C
:1011E000022E2CD1032C16D9201FC000411901203A
:1011F00088405B498861201FC00041190120884058
:1012000057494862201FC0004119012088405449B5
:101210004031486083E0E000411901208840514995
:101220008861E0004119012088404E494862E00091
:101230004119012088404B49403148606FE0032E3E
:101240002CD1032C16D9201FC00041190120884041
:1012500043494861201FC00041190120884040498E
:101260008863201FC0004119012088403C4940315B
:10127000486054E0E0004119012088403949486144
:10128000E00041190120884036498863E000411997
:101290000120884033494031486040E0042E3ED16F
:1012A000032C16D9201FC0004119012088402C4969
:1012B0004861201FC0004119012088402849486327
:1012C000201FC00041190120884025494031486055
:1012D00025E0E00041190120884022494861E000F2
:1012E0004119012088401F494863E000411901204D
:1012F00088401C494031486011E0032C08D9201F68
:10130000C00041190120884015494031886006E03D
:10131000E000411901208840124940318860F8BD41
:101320002E2E5C2E2E5C2E2E5C4C696272617269D0
:1013300065735C56544D303731785F537464506533
:10134000726970685F4472697665725C7372635C1F
:1013500056544D303731785F6770696F2E630000E7
:101360000080034000800240F8B505460C46002D81
:101370000BD0012D09D0022D07D0032D05D0042D4F
:1013800003D0052D01D0062D00D103E04B214EA046
:1013900002F006FD207904280ED0207905280BD014
:1013A0002079012808D02079022805D02079032847
:1013B00002D02079002800D103E04C2142A002F0A5
:1013C000EFFC2068002814D02068012811D0206884
:1013D00002280ED0206803280BD02068042808D0EB
:1013E0002068052805D02068062802D02068072834
:1013F00000D103E04D2134A002F0D2FC6079012835
:1014000002D06079002800D103E04E212EA002F026
:10141000C7FCA079002805D0A079022802D0A079C5
:10142000012800D103E04F2127A002F0B9FCE80019
:10143000216840188000344947183E682079002808
:1014400001D1202635E02079042815D1B608B60050
:10145000032D08D9281FC000217841180120884099
:101460002A49886025E02846C000217841180120DB
:101470008840274988601CE02079052815D1B608E6
:10148000B600032D08D9281FC0002178411801207B
:1014900088401E4948600CE02846C0002178411869
:1014A000012088401A49486003E0B608B600207958
:1014B0000643607940020643A079C00006438020BD
:1014C00006433E60F8BD00002E2E5C2E2E5C2E2EB4
:1014D0005C4C69627261726965735C56544D303759
:1014E00031785F5374645065726970685F447269E3
:1014F0007665725C7372635C56544D303731785F39
:101500006770696F2E630000001000400080034088
:1015100000800240F8B504460D460027002C0BD091
:10152000012C09D0022C07D0032C05D0042C03D0A9
:10153000052C01D0062C00D103E0BF2117A002F03A
:101540002FFC002D0DD0012D0BD0022D09D0032D25
:1015500007D0042D05D0052D03D0062D01D0072D71
:1015600000D103E0C0210DA002F01AFC032C09D920
:101570001A480668201FC00041193046C840C707F6
:10158000FF0F08E0164806682046C00041193046A3
:10159000C840C707FF0F3846F8BD00002E2E5C2E4E
:1015A0002E5C2E2E5C4C69627261726965735C56AA
:1015B000544D303731785F53746450657269706888
:1015C0005F4472697665725C7372635C56544D3029
:1015D0003731785F6770696F2E6300000000034049
:1015E0000000024070B504460D461646002C0BD094
:1015F000012C09D0022C07D0032C05D0042C03D0D9
:10160000052C01D0062C00D103E0DE2123A002F03E
:10161000C7FB002D0DD0012D0BD0022D09D0032DBD
:1016200007D0042D05D0052D03D0062D01D0072DA0
:1016300000D103E0DF2119A002F0B2FB002E01D09F
:10164000012E00D103E0E02114A002F0A9FB002E3E
:1016500011D0032C07D9201FC00041190120884058
:101660001E49486018E02046C0004119012088400A
:101670001B49486010E0032C07D9201FC000411906
:10168000012088401549886006E02046C0004119C5
:10169000012088401249886070BD00002E2E5C2E0B
:1016A0002E5C2E2E5C4C69627261726965735C56A9
:1016B000544D303731785F53746450657269706887
:1016C0005F4472697665725C7372635C56544D3028
:1016D0003731785F6770696F2E6300000000034048
:1016E0000000024070B500244021604800F070F90D
:1016F000012874D15D4800F0CDF9044654215B48BF
:1017000000F0C0F80120C0022040002803D00920CA
:1017100057490860A5E0012080022040002803D03E
:101720000920534908609CE0012040022040002825
:1017300003D009204E49086093E0FF20013020408B
:10174000002803D009204A4908608AE08020204010
:10175000002803D009204649086082E0402020404C
:10176000002803D00920424908607AE02020204068
:10177000002803D009203E49086072E01020204074
:10178000002803D008203A49086069E0082020407A
:10179000002803D008203649086061E0022020407C
:1017A000002803D008203249086059E00420204076
:1017B000002803D008202E49086051E00420204072
:1017C000002803D008202A49086049E0E007C00F3C
:1017D000002804D008202649086041E0FFE70421E2
:1017E000224800F0F5F8012839D121480068052881
:1017F00035D12048006820490968401A06280BD9CD
:101800001A4800F07DF91C490E68711C1A4A1160D3
:101810001A49096888550FE000250BE0134800F0CD
:101820006FF915490E68711C134A11601349096854
:1018300088556D1C062DF1DB0F4800680D490968BD
:1018400088420CD10E4800680A490968884203D1D1
:1018500006200749086002E007200549086070BDBE
:10186000FDE7024800F06CF800BFF8E700480040D0
:10187000F0000020EC000020E4000020E000002048
:10188000E800002038B505460C46002000901948B5
:10189000854202D01848854200D103E0174918A0BC
:1018A00002F07EFA402C13D0442C11D0482C0FD0DB
:1018B0004C2C0DD0502C0BD0542C09D0582C07D0C8
:1018C0005C2C05D0602C03D0642C01D0682C00D196
:1018D00004E00A49491C0AA002F062FA0548854260
:1018E00003D120180068009003E003482018006826
:1018F000009038BD004000400048004071020000E8
:101900002E2E5C2E2E5C2E2E5C4C696272617269EA
:1019100065735C56544D303731785F53746450654D
:10192000726970685F4472697665725C7372635C39
:1019300056544D303731785F6932632E63000000B2
:1019400010B504461048844202D01048844200D1A9
:1019500003E040210EA002F023FA0B48844208D194
:101960000121802000F034FA0021802000F030FABC
:1019700008E00121080600F02BFA002101200006F2
:1019800000F026FA10BD0000004000400048004072
:101990002E2E5C2E2E5C2E2E5C4C6962726172695A
:1019A00065735C56544D303731785F5374645065BD
:1019B000726970685F4472697665725C7372635CA9
:1019C00056544D303731785F6932632E6300000022
:1019D00070B505460C4600261B48854202D01B48C0
:1019E000854200D103E01A491AA002F0D9F9012C6E
:1019F0001AD0022C18D0042C16D0082C14D0102C7D
:101A000012D0202C10D0402C0ED0802C0CD0FF20D7
:101A10000130844208D04000844205D04000844216
:101A200002D04000844200D104E04321C90009A053
:101A300002F0B6F9E86A2040002801D0012600E053
:101A40000026304670BD00000040004000480040C5
:101A5000170200002E2E5C2E2E5C2E2E5C4C69622E
:101A60007261726965735C56544D303731785F53DB
:101A700074645065726970685F4472697665725CFF
:101A80007372635C56544D303731785F6932632E20
:101A90006300000010B504460648844202D00648A0
:101AA000844200D103E0054905A002F079F98020C5
:101AB000005910BD004000400048004055020000A1
:101AC0002E2E5C2E2E5C2E2E5C4C69627261726929
:101AD00065735C56544D303731785F53746450658C
:101AE000726970685F4472697665725C7372635C78
:101AF00056544D303731785F6932632E63000000F1
:101B000010B504460748844202D00748844200D1F9
:101B100004E0FF21573105A002F042F92069C0B26C
:101B200010BD000000400040004800402E2E5C2EFA
:101B30002E5C2E2E5C4C69627261726965735C5614
:101B4000544D303731785F537464506572697068F2
:101B50005F4472697665725C7372635C56544D3093
:101B60003731785F6932632E6300000010B50221BF
:101B70000020FFF7CFFC002801D0002010BD01207D
:101B8000FCE710B503210020FFF7C4FC002801D0BA
:101B9000002010BD0120FCE710B504210020FFF754
:101BA000B9FC002801D0002010BD0120FCE71CB5C5
:101BB0000420009000216846417105210171002137
:101BC000817169460620FFF7CFFB0520009069462A
:101BD0000620FFF7C9FB1CBD70B504460025A078A0
:101BE000002802D0A078012800D103E04C211FA0DA
:101BF00002F0D6F86078042800DA03E04D211BA03B
:101C000002F0CEF8A078002827D026480321090248
:101C10004018217889108900455820788007C10E26
:101C2000FF208840294681430D4660788007000EDA
:101C300021788907C90E884005431A480321090203
:101C4000401821788910890045502078C106C90EB6
:101C5000012088401349086007E02078C106C90EBA
:101C6000012088400F498031086070BD2E2E5C2E07
:101C70002E5C2E2E5C4C69627261726965735C56D3
:101C8000544D303731785F537464506572697068B1
:101C90005F4472697665725C7372635C6D697363CD
:101CA0002E63000000E100E010B5002819DA1A4A9E
:101CB00003071B0F083B9B089B00D2588307DC0ED1
:101CC000FF23A3409A438B071B0E8407E40EA34017
:101CD0001A43114B0407240F083CA408A4001A510E
:101CE00018E00E4A03231B02D21883089B00D25827
:101CF0008307DC0EFF23A3409A438B071B0E840748
:101D0000E40EA3401A43054B032424021B19840844
:101D1000A4001A5110BD00001CED00E000E100E03D
:101D200070B504460D4618482040002802D1002C0A
:101D300000D003E0852115A002F032F8002D01D07B
:101D4000012D00D103E0862110A002F029F8002D1A
:101D50000CD0012C03D0022C01D0042C02D11B4842
:101D600044610FE00120800744610BE0012C03D0A7
:101D7000022C01D0042C02D11448846102E001201D
:101D80008007846170BD00004808B23C2E2E5C2E96
:101D90002E5C2E2E5C4C69627261726965735C56B2
:101DA000544D303731785F53746450657269706890
:101DB0005F4472697665725C7372635C56544D3031
:101DC0003731785F7263632E6300000000030040C8
:101DD00070B504460D4618482040002802D1002C5A
:101DE00000D003E0E02115A001F0DAFF002D01D0C2
:101DF000012D00D103E0E12110A001F0D1FF002D61
:101E00000CD0012C03D0022C01D0042C02D11B4891
:101E100084600FE00120800784600BE0012C03D078
:101E2000022C01D0042C02D11448446002E00120AD
:101E30008007446070BD00004808B23C2E2E5C2E26
:101E40002E5C2E2E5C4C69627261726965735C5601
:101E5000544D303731785F537464506572697068DF
:101E60005F4472697665725C7372635C56544D3080
:101E70003731785F7263632E630000000003004017
:101E8000F0B587B004460020069091488069C0B242
:101E900001908F48806AC0B200908D48006BC6B236
:101EA00001208007006BC006C00E001D8949484311
:101EB000059089480068049085484030016804987E
:101EC000FEF784F90390802C05D08448844202D028
:101ED000801C844202D103980690F7E0902C01D038
:101EE000942C2ED10120800720180078002801D1E1
:101EF00007B0F0BD0198002802D00198022808D14F
:101F000001208007201801787248FEF775F907460E
:101F100015E00198012807D180072018017805985D
:101F2000FEF754F907460AE00198032807D101207B
:101F30008007201801786A48FEF75EF90746069781
:101F4000C4E0A82C2BD162484030806A002800D120
:101F5000CEE70098002802D00098022807D15C48FC
:101F60004030816A5B48FEF731F9029014E0009836
:101F7000012807D156484030816A0598FEF726F9B6
:101F8000029009E00098032806D151484030816A48
:101F90005348FEF71BF902900298069096E0AC2C8D
:101FA0003AD14B484030C06A002800D1A0E7002E4B
:101FB00001D0032E07D146484030C16A4548FEF79C
:101FC00005F9054626E0012E07D141484030C16A97
:101FD0000598FEF7FBF805461CE0022E07D13C48A9
:101FE0004030C16A3E48FEF7F1F8054612E0042E83
:101FF00007D137484030C16AC013FEF7E7F80546FD
:1020000008E0082E06D132484030C16A3548FEF754
:10201000DDF80546069559E0B02C0DD12C4840302E
:10202000006B002800D163E729484030016B059818
:10203000FEF7CCF8069049E0A42C01D0D02C0FD1AB
:102040000120800720180078002800D150E70120E7
:102050008007201801780598FEF7B8F8069035E05B
:10206000A02C16D12048006904210840002802D085
:10207000039806902AE016484030006A002800D1F4
:1020800036E713484030016A0398FEF79FF8069040
:102090001CE0D82C0DD10E4880308069002800D17A
:1020A00026E70B48803081690598FEF78FF8069087
:1020B0000CE00A48401E844202D10948069005E01F
:1020C0000648801D844201D10248069006980FE719
:1020D00040000040001BB70000000020020000107C
:1020E00010270000006CDC0200E000E070B5044640
:1020F0000D46002C04D010482040002800D104E0F8
:10210000B12189000DA001F04BFE002D01D0012D61
:1021100000D103E0194909A001F042FE012D05D0CC
:1021200017488068A0431649886004E01448806816
:1021300020431349886070BD4280FFFF2E2E5C2E25
:102140002E5C2E2E5C4C69627261726965735C56FE
:10215000544D303731785F537464506572697068DC
:102160005F4472697665725C7372635C56544D307D
:102170003731785F7263632E63000000C502000090
:102180000002004070B504460D46802C11D0902C02
:102190000FD0942C0DD0A02C0BD0A42C09D0A82C9F
:1021A00007D0AC2C05D0B02C03D0D02C01D0D82C2B
:1021B00000D104E0FF21E73103A001F0F1FD01208F
:1021C00080072018056070BD2E2E5C2E2E5C2E2EF2
:1021D0005C4C69627261726965735C56544D30374C
:1021E00031785F5374645065726970685F447269D6
:1021F0007665725C7372635C56544D303731785F2C
:102200007263632E6300000010B50446002C05D0F5
:10221000012C03D0022C01D0032C00D104E0FF21BB
:10222000933105A001F0BCFD1348846100201249E0
:10223000C8610120C86110BD2E2E5C2E2E5C2E2E92
:102240005C4C69627261726965735C56544D3037DB
:1022500031785F5374645065726970685F44726965
:102260007665725C7372635C56544D303731785FBB
:102270007263632E6300000040000040704710B599
:1022800000F002F810BD000010B50024812080008D
:102290000107486140101449086001201349086093
:1022A000134880688821884311498860114849058E
:1022B000086306E02046641C0121C903884200D35C
:1022C00004E001208007406B0128F3D100BF0A48D9
:1022D00001F01EFF012005494039086100204861D6
:1022E0000120486110BD000000B0004080000040A7
:1022F0000002004003000080B80B000010B500F0A1
:1023000009F8FFF754FC01F0CBFAFEF71BFD00F0D3
:1023100071FD10BD70B500258020FFF7B1FD0446AA
:102320007D21C900FDF752FF05462C46601E094974
:10233000884200D90CE0601E074948610321081F4C
:10234000FFF7B2FC0020044988610720086100BF44
:1023500070BD0000FFFFFF0000E000E010B503F0DB
:102360004BFE04F0DBFF03F06FFE10BD10B5034819
:1023700003490863FFF783FF10BD000005800000DC
:102380000001004010B50121054800F023F90128A3
:1023900005D10121024800F005F8FEF777FC10BDD9
:1023A0000090004070B504460D460F48844208D0A6
:1023B0000E48844205D00E48844202D00D48844223
:1023C00000D104E04B2109010BA001F0E9FCA80AAF
:1023D0008002002802D1002D00D003E0164906A09B
:1023E00001F0DEFC256070BD0090004000A00040C0
:1023F00000300040003800402E2E5C2E2E5C2E2E29
:102400005C4C69627261726965735C56544D303719
:1024100031785F5374645065726970685F447269A3
:102420007665725C7372635C56544D303731785FF9
:1024300074696D65722E6300B104000070B50446C6
:102440000D4616461848844208D01848844205D0E4
:102450001748844202D01748844200D104E0FF218B
:10246000F73115A001F09CFC002E01D0012E00D107
:1024700004E0FF21F83110A001F092FC28090001CE
:10248000002802D1002D00D004E0FF21F9310AA07C
:1024900001F086FC002E03D020692843206102E071
:1024A0002069A843206170BD0090004000A000405A
:1024B00000300040003800402E2E5C2E2E5C2E2E68
:1024C0005C4C69627261726965735C56544D303759
:1024D00031785F5374645065726970685F447269E3
:1024E0007665725C7372635C56544D303731785F39
:1024F00074696D65722E630010B5044621488442EC
:1025000008D02148844205D02048844202D0204887
:10251000844200D103E039211EA001F041FC19489A
:10252000844208D101210014FFF752FC002120143D
:10253000FFF74EFC25E01448844209D10121C8036D
:10254000FFF746FC00210120C003FFF741FC18E023
:102550000E48844209D101218804FFF739FC00218B
:1025600001208004FFF734FC0BE00948844208D1C5
:1025700001214806FFF72CFC002101204006FFF74F
:1025800027FC10BD0090004000A00040003000403B
:10259000003800402E2E5C2E2E5C2E2E5C4C696284
:1025A0007261726965735C56544D303731785F5390
:1025B00074645065726970685F4472697665725CB4
:1025C0007372635C56544D303731785F74696D6552
:1025D000722E6300F8B505460C46002600275148C8
:1025E000854208D05048854205D05048854202D0E7
:1025F0004F48854200D103E04E494FA001F0D0FB87
:10260000012C14D0022C12D0042C10D0082C0ED087
:10261000102C0CD001204002844208D0202C06D07F
:10262000402C04D0802C02D04010844200D104E021
:102630004049491C40A001F0B3FB102C07D1E02019
:10264000405904210840002861D001275FE00120A3
:102650004002844207D1E020405961000840002830
:1026600055D0012753E0012C06D19020405920403D
:1026700000284CD001274AE0022C07D19020405975
:1026800008210840002842D0012740E0042C07D14F
:102690009020405940210840002838D0012736E0DA
:1026A000082C07D190204059A101084000282ED0C5
:1026B00001272CE0202C08D1FF2091304059E10364
:1026C0000840002823D0012721E0402C08D1FF201A
:1026D00091304059E1030840002818D0012716E046
:1026E000802C08D1FF2091304059E1030840002898
:1026F0000DD001270BE0FF200130844207D1FF20DD
:1027000091304059E1030840002800D00127286893
:102710002040002803D0012F01D1012600E000262F
:102720003046F8BD0090004000A00040003000405E
:10273000003800405B0400002E2E5C2E2E5C2E2EF6
:102740005C4C69627261726965735C56544D3037D6
:1027500031785F5374645065726970685F44726960
:102760007665725C7372635C56544D303731785FB6
:1027700074696D65722E630010B504460948844281
:1027800008D00948844205D00848844202D008484D
:10279000844200D103E0E12106A001F001FB206F9B
:1027A00010BD00000090004000A00040003000403C
:1027B000003800402E2E5C2E2E5C2E2E5C4C696262
:1027C0007261726965735C56544D303731785F536E
:1027D00074645065726970685F4472697665725C92
:1027E0007372635C56544D303731785F74696D6530
:1027F000722E630070B505460C4616464648854263
:1028000008D04648854205D04548854202D0454813
:10281000854200D103E0444944A001F0C1FA012CF3
:102820001CD0082C1AD0402C18D001204002844221
:1028300014D04E48844211D08120400584420DD0EE
:1028400041208005844209D02120C005844205D062
:102850004748844202D04748844200D104E03249CC
:10286000491C32A001F09CFA002E01D0012E00D1AB
:1028700004E02D49891C2DA001F092FA002E25D0EC
:10288000012000062040002809D0E0204059012204
:102890001206214691430843E02148513BE00120C4
:1028A0000007204000280BD0FF2091304059012222
:1028B0001207214691430843FF21913148512AE0F4
:1028C0009020405920439021485124E001200006E7
:1028D0002040002809D0E02040590122120621465C
:1028E00091438843E021485115E001200007204032
:1028F00000280BD0FF2091304059012212072146B9
:1029000091438843FF219131485104E09020405980
:10291000A0439021485170BD0090004000A00040AD
:102920000030004000380040220400002E2E5C2EB3
:102930002E5C2E2E5C4C69627261726965735C5606
:10294000544D303731785F537464506572697068E4
:102950005F4472697665725C7372635C56544D3085
:102960003731785F74696D65722E63000000101056
:10297000040000010004000170B506460C46002565
:102980008848864208D08848864205D087488642D3
:1029900002D08748864200D103E05E2185A001F085
:1029A000FFF92068012808D02068022805D0206897
:1029B000042802D02068082800D103E05F217DA010
:1029C00001F0EEF96068002805D06068012802D0A7
:1029D0006068022800D103E0602176A001F0E0F9F0
:1029E000E068002808D0E068012805D0E0680228E7
:1029F00002D0E068032800D103E061216DA001F05E
:102A0000CFF92069002808D02069022805D0206964
:102A1000042802D02069062800D103E0622165A0C5
:102A200001F0BEF9356A2068012804D1AD08AD0077
:102A3000606805431EE02068022807D1302128463F
:102A40008843054660680001054313E020680428B8
:102A500008D1032109022846884305466068000220
:102A6000054307E0032109032846884305466068BB
:102A70000003054335622068012803D1A020A16826
:102A8000815110E02068022803D1B020A168815153
:102A900009E02068042803D1C020A168815102E028
:102AA000D020A1688151FF2031308559206801284C
:102AB00007D13021284688430546E06800010543D8
:102AC0001EE02068022807D1C02128468843054619
:102AD000E0688001054313E02068042808D1032141
:102AE0000902284688430546E0680002054307E0DE
:102AF00003218902284688430546E0688002054391
:102B0000FF2031308551902085592068012806D159
:102B10000621284688430546206905431EE02068B3
:102B2000022807D130212846884305462069C00085
:102B3000054313E02068042808D1FF21813128468D
:102B40008843054620698001054307E00321890287
:102B50002846884305462069400205439020855158
:102B6000FF20813085592068012802D1AD08AD00D1
:102B700013E02068022804D10C212846884305462A
:102B80000BE02068042804D13021284688430546FC
:102B900003E0C021284688430546FF208130855147
:102BA00070BD00000090004000A0004000300040D8
:102BB000003800402E2E5C2E2E5C2E2E5C4C69625E
:102BC0007261726965735C56544D303731785F536A
:102BD00074645065726970685F4472697665725C8E
:102BE0007372635C56544D303731785F74696D652C
:102BF000722E630070B504460D460948844208D021
:102C00000848844205D00848844202D007488442DC
:102C100000D103E0D42106A001F0C2F8256770BD01
:102C20000090004000A0004000300040003800400C
:102C30002E2E5C2E2E5C2E2E5C4C696272617269A7
:102C400065735C56544D303731785F53746450650A
:102C5000726970685F4472697665725C7372635CF6
:102C600056544D303731785F74696D65722E63004C
:102C70007CB500240022114629A003F053FF2C4903
:102C8000086008460068002802D02AA003F03AFA3B
:102C900000230A2220212FA003F006FC2F49086000
:102CA00008460068002802D02DA003F02BFA34E07B
:102CB00018216143314A50582FA1FDF709FB002824
:102CC0002AD0182060432D494018406918216143DB
:102CD0002A4A8918097C182565431646AD190091C2
:102CE0000190EB6818256543AD19AA68182565435E
:102CF000AD19696818256543705904F034F9204905
:102D0000086008460068002803D00846006804F000
:102D100057FA601CC4B200E000E0C9E700BF7CBD08
:102D20007573617274315F726563765F73656D0090
:102D300008000020D0C5BAC5C1BF75736172743177
:102D40005F726563765F73656DB4B4BDA8B3C9B9CE
:102D5000A60A0A006D73675F6D7100000C00002009
:102D6000CFFBCFA2B6D3C1D06B65795F6D71B4B420
:102D7000BDA8B3C9B9A60A0A0000000014000020CB
:102D800010000020F0B585B006460D4614463046CA
:102D9000FFF7F2FC471C39462046FDF717FA0446B8
:102DA0001248844200D904460095002001908020FA
:102DB000FFF766F807460E49FDF708FA6043401E24
:102DC0000290002003900220049069463046FFF7ED
:102DD000D3FD012211463046FFF70CFD01222946A2
:102DE0003046FFF72BFB05B0F0BD0000AAAAAA02EF
:102DF00040420F0010B509480168094800F014F876
:102E00007D22D20001210648FFF7BCFF0E200121E0
:102E10008140044A116000BF10BD00007C0000200A
:102E20000090004000E100E070B504460D461248F5
:102E3000844204D101210014FEF772FF13E00F4811
:102E4000844204D10121C803FEF76AFF0BE00C485D
:102E5000844204D101218804FEF762FF03E00121CE
:102E60004806FEF75DFF2046FFF746FB691E204639
:102E7000FFF7C0FE70BD00000090004000A00040C1
:102E80000030004010B50024E44303F0B5F81021F1
:102E9000134800F0D5F9012806D001214905104852
:102EA00000F0CEF9012818D110210D4800F058F893
:102EB000012149050A4800F053F807E0084800F0EE
:102EC0006FFCC4B22146074800F09EFC01210906B0
:102ED000034800F041F90028F0D003F0B5F810BD28
:102EE000002000400028004010B503F085F81021B4
:102EF000174800F0A5F9012806D00121490514481A
:102F000000F09EF9012820D11021114800F028F886
:102F1000012149050E4800F023F80BE00C4800F0B1
:102F20003FFCC4B20B4801880088401C094A10804D
:102F30000948445401210906054800F00DF900280C
:102F4000ECD00648006803F013FE03F07DF810BDD6
:102F500000280040760000204C03002008000020DC
:102F600070B504460D462148844202D02048844270
:102F700000D103E01F4920A000F012FF2E48284096
:102F8000002804D02D482840002800D104E0352135
:102F9000090119A000F004FF01200006854202D0BB
:102FA0004000854206D1C020005B290C0843C021A7
:102FB000085319E02248854208D1FF2011300059FA
:102FC00010218843FF21113108510DE001204005F7
:102FD000854208D1FF202130005929468843FF212E
:102FE0002131085100E0A56470BD000000200040C0
:102FF000002800404F0300002E2E5C2E2E5C2E2E4B
:103000005C4C69627261726965735C56544D30370D
:1030100031785F5374645065726970685F44726997
:103020007665725C7372635C56544D303731785FED
:1030300075736172742E6300F23F20300DC0DF8F14
:103040001000004070B504460D460E48844202D080
:103050000D48844200D103E0B5210CA000F0A0FE91
:10306000002D01D0012D00D103E0B62107A000F012
:1030700097FE002D02D00120606201E00120A062D5
:1030800070BD000000200040002800402E2E5C2E65
:103090002E5C2E2E5C4C69627261726965735C569F
:1030A000544D303731785F5374645065726970687D
:1030B0005F4472697665725C7372635C56544D301E
:1030C0003731785F75736172742E630010B50446F2
:1030D0000F48844202D00F48844200D103E05021BF
:1030E0000DA000F05DFE0A48844208D101211020A5
:1030F000FEF76EFE00211020FEF76AFE07E00121B8
:103100002020FEF765FE00212020FEF761FE10BDA5
:1031100000200040002800402E2E5C2E2E5C2E2E1B
:103120005C4C69627261726965735C56544D3037EC
:1031300031785F5374645065726970685F44726976
:103140007665725C7372635C56544D303731785FCC
:1031500075736172742E630070B505460C460026C7
:103160002448854202D02448854200D103E0234907
:1031700023A000F015FE0120000484421AD0400074
:10318000844217D04000844214D04000844211D0C1
:10319000400184420ED0400084420BD04000844263
:1031A00008D04000844205D04000844202D0400054
:1031B000844200D104E01149491C11A000F0F0FD47
:1031C0000120000784420BD10A48854202D00A48F8
:1031D000854200D104E00B21890109A000F0E0FD47
:1031E000286E2040002801D0012600E0002630464D
:1031F00070BD00000020004000280040BA0200001E
:103200002E2E5C2E2E5C2E2E5C4C696272617269D1
:1032100065735C56544D303731785F537464506534
:10322000726970685F4472697665725C7372635C20
:1032300056544D303731785F75736172742E630068
:10324000F8B505460C46002700263E48854202D0C8
:103250003D48854200D104E0032109023BA000F073
:103260009FFD102C1ED0202C1CD0022C1AD0802C9C
:1032700018D0FF200130844214D04000844211D085
:10328000400084420ED0400084420BD04000844273
:1032900008D04000844205D03C48844202D040120D
:1032A000844200D103E03A4928A000F079FD374874
:1032B000844208D1FF2011304059082108400028DD
:1032C00014D0012612E001204005844208D1FF20DD
:1032D0002130405961100840002807D0012605E040
:1032E000286C21040840002800D001262748844289
:1032F0000CD1002E08D0FF20113040591021084079
:10330000002801D001271BE0002719E0012040051B
:1033100084420CD1002E08D0FF2021304059214694
:103320000840002801D001270AE0002708E0002E0D
:1033300005D0286C2040002801D0012700E000279C
:103340003846F8BD00200040002800402E2E5C2E9C
:103350002E5C2E2E5C4C69627261726965735C56DC
:10336000544D303731785F537464506572697068BA
:103370005F4472697665725C7372635C56544D305B
:103380003731785F75736172742E630010000040EE
:103390000103000070B504460D4616462E488442CF
:1033A00002D02E48844200D104E0FF21C0312CA07D
:1033B00000F0F6FC3A482840002803D0394828405D
:1033C000002802D03848854200D104E0FF21C131F5
:1033D00023A000F0E5FC002E01D0012E00D104E076
:1033E000FF21C2311EA000F0DBFC002E19D0082DF9
:1033F00008D1FF201130005908210843FF21113165
:10340000085127E02848854209D1FF202130005982
:10341000012109050843FF21213108511AE06564A3
:1034200018E0082D08D1FF201130005908218843E9
:10343000FF21113108510DE01B48854209D1FF20C1
:1034400021300059012109058843FF21213108510C
:1034500000E0A56470BD000000200040002800408E
:103460002E2E5C2E2E5C2E2E5C4C6962726172696F
:1034700065735C56544D303731785F5374645065D2
:10348000726970685F4472697665725C7372635CBE
:1034900056544D303731785F75736172742E630006
:1034A0000800B03FFFFF4F4000001080FEB505460A
:1034B0000C460026002002907D48854202D07D48BF
:1034C000854200D103E06E217BA000F069FCE0683A
:1034D000002804D08849E068884200D203E06F21C8
:1034E00075A000F05DFC2069002808D02069202824
:1034F00005D02069402802D02069602800D103E06F
:1035000070216DA000F04CFC6069002802D0606959
:10351000082800D103E0712167A000F041FCA069F8
:1035200000280BD0A069062808D0A069022805D081
:10353000A069862802D0A069822800D103E0722108
:103540005DA000F02DFCFF210131E069884208D028
:103550004900E069884204D003210902E0698842F9
:1035600000D103E0732154A000F01AFC206A002867
:103570000DD001218903206A884208D04900206AC1
:10358000884204D003218903206A884200D103E0E5
:10359000742149A000F004FC606A002804D00121D5
:1035A000C902606A884200D103E0752142A000F0A0
:1035B000F7FB2068002812D0012109042068884206
:1035C0000DD049002068884209D0032109042068F1
:1035D000884204D0012189042068884200D103E098
:1035E000762135A000F0DCFB6068002812D00121B4
:1035F0000905606888420DD049006068884209D09A
:10360000032109056068884204D0012189056068AA
:10361000884200D103E0772127A000F0C1FBA06819
:10362000102802D0A068002800D103E0782122A051
:1036300000F0B6FB2E6B314806401D48854204D190
:103640009020FEF71DFC029006E01A48854203D147
:103650009420FEF715FC0290E168029A9000FCF7B6
:10366000B5FD0746B806810C019138463F21C94394
:1036700008408009000400900199009808432169DE
:10368000084361690843A1690843A16808430643E8
:103690002E632E6A1A480640616820680843E16973
:1036A0000843216A0843616A084306432E62FEBD4F
:1036B00000200040002800402E2E5C2E2E5C2E2E76
:1036C0005C4C69627261726965735C56544D303747
:1036D00031785F5374645065726970685F447269D1
:1036E0007665725C7372635C56544D303731785F27
:1036F00075736172742E630061E3160001C00000EF
:10370000FF3488FF70B504460D461348844202D04A
:103710001248844200D104E0FF219D3110A000F046
:103720003FFB280D0005002804D12803000B0028CA
:1037300000D004E0FF219E3109A000F031FBFF2002
:1037400021300659360D3605304628430646FF20FF
:103750002130065170BD00000020004000280040CC
:103760002E2E5C2E2E5C2E2E5C4C6962726172696C
:1037700065735C56544D303731785F5374645065CF
:10378000726970685F4472697665725C7372635CBB
:1037900056544D303731785F75736172742E630003
:1037A00010B504460648844202D00648844200D13F
:1037B00004E0FF21F53104A000F0F2FA206D10BD05
:1037C00000200040002800402E2E5C2E2E5C2E2E65
:1037D0005C4C69627261726965735C56544D303736
:1037E00031785F5374645065726970685F447269C0
:1037F0007665725C7372635C56544D303731785F16
:1038000075736172742E630070B504460D460748E7
:10381000844202D00648844200D104E0FF21E53111
:1038200004A000F0BDFA256570BD00000020004036
:10383000002800402E2E5C2E2E5C2E2E5C4C6962E1
:103840007261726965735C56544D303731785F53DD
:1038500074645065726970685F4472697665725C01
:103860007372635C56544D303731785F7573617293
:10387000742E630001214904016009014160102197
:103880008160E1214902C160602101610021416143
:10389000816103210902C161002101624162704717
:1038A00000B58DB001211020FEF73AFA0120FEF795
:1038B000ABFC01219020FEF765FC01200190002166
:1038C00068464172012101720021817201A9012023
:1038D000FDF74AFD0220019001A90120FDF744FDFA
:1038E0002948FFF7F3FB03A8FFF7C4FF03A9264805
:1038F000FFF7DCFD01212448FFF7A4FB0A2001218A
:103900008140224A116000BF01212020FEF708FA01
:103910000120FEF779FC01219420FEF733FC022000
:1039200001900021684641720121017200218172DB
:1039300001A90020FDF718FD0220019001A9002037
:10394000FDF712FD1248FFF7C1FB03A8FFF792FF36
:1039500003A90F48FFF7AAFD01210D48FFF772FBED
:10396000012211050A48FFF715FD14210848FFF749
:10397000C9FE012207490648FFF70CFD0121044852
:10398000FFF760FB0DB000BD0020004000E100E04B
:1039900000280040000010800FB410B503A9044BAC
:1039A000044A029800F086F810BC08BC04B018471E
:1039B000914700002002002030B47446641E257830
:1039C000641CAB4204D3635D5B00E31830BC184752
:1039D0001D46F8E70146002900D17047C8B200280B
:1039E00004D0C8B2114A105C401CF6E7FF20000268
:1039F0000840002807D0FF200002084000120B4AB0
:103A0000105C0930E9E7FF2000040840002807D0D7
:103A1000FF20000408400014044A105C1130DCE769
:103A2000080E024A105C1930D7E70000187D00002C
:103A300002E008C8121F08C1002AFAD17047704777
:103A4000002001E001C1121F002AFBD17047F7B529
:103A500088B00646002400E0641C305D202805D0B4
:103A6000305D092802D009988442F5D3002C02D198
:103A7000601E0BB0F0BD2146304601F0EBFD05465F
:103A8000002D01D1401EF4E720216846FCF7E1FB40
:103A90006A463046099901F04FFE0746002F01D1D2
:103AA000401EE6E769463846A8470A9908600020A4
:103AB000DFE70000FFB58DB00F460546002606E0A3
:103AC00025280AD0109A0F9990476D1C761C2878EB
:103AD0000028F5D1304611B0F0BD00240121674A1D
:103AE000009400E004436D1C2B780846203B98406E
:103AF0001042F7D128782E2815D104200443687885
:103B00006D1C2A280AD101CF6D1C00900BE0009992
:103B10000A225143303940186D1C00902878014624
:103B200030390929F3D92878692843D006DC0028E0
:103B3000D0D063280BD0642804D13BE073280FD089
:103B400075284CD0109A0F999047761C94E03878DD
:103B5000694608720020487202A80190012003E023
:103B6000386801900020C0433F1D61070CD5002438
:103B700000E0641C00998C420FDA8442F9DB019961
:103B8000095D0029F5D108E0002400E0641C8442AE
:103B9000FCDB0199095D0029F8D1361907E001988D
:103BA00001990078491C0191109A0F999047641E61
:103BB000F5D261E00A20019001CF002802DA4042EC
:103BC0002D2102E0210504D52B216A461172012125
:103BD00003E0E10701D02021F7E70C9104E00A207F
:103BE000019001CF00210C910BA90B9108E00199E4
:103BF000FCF7ECFA0A460B993032491E0B910A7019
:103C00000028F4D10B9803A9081A2030019060070E
:103C100001D5009801E0012000900199884203DD60
:103C200001460198081A00E000200024009006E0F8
:103C300002A8109A005D0F999047641C761C0C989E
:103C40008442F5DB04E0109A30200F999047761CEF
:103C50000099481E00900029F5DC08E00B980B99AC
:103C60000078491C0B91109A0F999047761C019986
:103C7000481E01900029F1DC6D1C28E7092801008D
:103C8000FEB5044615461E460A9F20461C3040607D
:103C9000006000BFA562E66208982063099860632F
:103CA0002321626B206B02F0D9FB616B206B401803
:103CB000021FE06A0190A06A174B0090019902F080
:103CC0007BF960623E2007553D20075500202064A7
:103CD0000B98E0640B9820650020A06300213C2035
:103CE0000155882001518C2001510020009023466D
:103CF0000A4A214601902046543003F0F2FB00BFEF
:103D000007480068002803D020460549096888470D
:103D100000BF0020FEBD0000B96F00004D72000022
:103D200008020020FFB581B004460E4617460A98E7
:103D30006074607C4008400060746662A762002086
:103D400020630498E062002506E0EA0021461C3169
:103D5000501802F013FA6D1C012DF6DB05B0F0BD12
:103D600070B50546002406E0E20029461C315018D3
:103D700002F057FA641C012CF6DB70BD70B50446E6
:103D8000FCF7B8F9054688200059002803D08820A0
:103D90000159204688472846FCF7B0F970BD00005D
:103DA00004460D462A46214602A0FFF7F5FD00BF56
:103DB000FEE7000057726F6E6720706172616D657B
:103DC000746572732076616C75653A2066696C65FE
:103DD000202573206F6E206C696E652025640D0AA6
:103DE000000000001CB50A20052101235B0200220F
:103DF00000910190054906A003F0B5F80446002C97
:103E000002D0204603F0DCF900201CBD213E00005A
:103E1000627574746F6E5F70726F636573730000A8
:103E20001CB500250020009000240023FF22013251
:103E300001214DA002F038FB4E4908600846006899
:103E4000002802D04CA002F05DF9FCF718FF89E0D1
:103E50000023DB43012201A94648006802F066FB0B
:103E60000546002D7AD1684600790300FFF7A4FDCE
:103E70000A740627282948494A72737445A002F03B
:103E800041F9002C0DD14CA002F03CF952480068D9
:103E900003F03AFB002C01D1012000E00020044691
:103EA0000CE04EA002F02EF94B48006803F0B6FB80
:103EB000002C01D1012000E0002004464DE04CE040
:103EC0004BE04DA002F01EF96A460121424800680D
:103ED00003F0ACFA7D2109010098401800906A4671
:103EE00000213D48006803F0A1FA7D21C900009837
:103EF000FCF76CF90646314648A002F003F92CE0C5
:103F00002BE02AE051A002F0FDF86A460121324878
:103F1000006803F08BFA7D2109010098884215D9C9
:103F20000098401A00906A4600212B48006803F070
:103F30007DFA7D21C9000098FCF748F90646314614
:103F400000E00BE04AA002F0DDF802E056A002F02B
:103F5000D9F802E001E000E000BF03E029465DA0DF
:103F600002F0D0F874E70000627574746F6E5F6DD4
:103F70007100000078000020627574746F6E5F6DD0
:103F80007120637265617465207375636365737313
:103F90000A0A00000A52656365697665206D6573DB
:103FA000736167653A4B4559312850452E332920B6
:103FB000446F776E0A00000041444350726F63659E
:103FC0007373536F667454696D65722053746172B4
:103FD00074210A0A00000000880000204144435078
:103FE000726F63657373536F667454696D65722085
:103FF00053746F70210A0A000A5265636569766519
:10400000206D6573736167653A4B45593228504599
:104010002E322920446F776E0A000000414443503D
:10402000726F63657373536F667454696D65722044
:10403000506572696F642069732041646465642C03
:104040004E6F772069733A25640A0A000A52656345
:1040500065697665206D6573736167653A4B45598F
:10406000332850452E342920446F776E0A00000013
:1040700041444350726F63657373536F6674546940
:104080006D657220506572696F6420697320737565
:1040900062747261637465642C4E6F772069733A41
:1040A00025640A0A0000000041444350726F6365B2
:1040B0007373536F667454696D65722050657269CD
:1040C0006F64204C6F77204C696D69746564210AB8
:1040D0000A000000CAFDBEDDBDD3CAD5B4EDCEF3E3
:1040E000A3ACB4EDCEF3B4FAC2EBA3BA3078256C2E
:1040F000780A0A0070B504460D4600F0F1FD002074
:1041000070BD70B504460D4600F0ECFF002070BD98
:1041100008B5009000E000BF00994A1E00920029F7
:10412000F9D108BD10B5164800682030407A8007E4
:10413000C00F002803D113490870084610BD12486B
:104140000068002808D0FF2201320F4801680D489E
:10415000FCF7AAF80B48F1E701F0ECFA002804D0CC
:104160000AA10848FCF7C2F803E00AA10548FCF7D9
:10417000BDF80AA10348FCF777F80248DEE7000023
:10418000040100207C240020080100206D736820B9
:104190000000000066696E73682000003E000000A9
:1041A00008B5002000900F480068803000680028A3
:1041B00014D005E00021C9430A48006802F010FD50
:1041C00008490968803101236A460868991E01F090
:1041D00023FD0128EED16846007808BD01F02AFED3
:1041E000FBE700000401002070B504460D460348BB
:1041F000006802F0BDFC002070BD0000040100203A
:1042000070B505460024284601F09AFC0446002CAF
:1042100004D129461EA001F075FF70BD2448006836
:1042200080300068A04200D1F7E7FF2144312046EA
:1042300001F08EFC002829D11D48006880300068FC
:1042400000280CD01A4909688031086801F054FC34
:104250001749096880310868002101F0FCFC5021F1
:10426000134800682A30FBF7F4FF0021104800686B
:10427000403041870E480068403081870C48006814
:10428000803004600B49204601F0E5FC00BFC4E724
:1042900066696E73683A2063616E206E6F74206683
:1042A000696E64206465766963653A2025730A0047
:1042B00004010020E9410000074909682031497ADA
:1042C00002229143420002231A401143024A12681B
:1042D000203251727047000004010020024A106031
:1042E000024A116070470000F4000020F80000202E
:1042F0007CB5002518491948FFF7F0FF84210120FB
:1043000001F0C4FB1649086008460068002804D183
:1043100014A001F0F7FE681E7CBD0A2015210123C0
:104320009B02002200910190144915A002F01BFE8F
:10433000044600231A4614A10948006802F006FC4E
:104340000120FFF7B9FF002C04D0002D02D1204638
:1043500002F036FF0020DFE73C850000F883000014
:10436000040100206E6F206D656D6F727920666F9D
:1043700072207368656C6C0A0000000091430000B5
:10438000747368656C6C00007368727800000000DC
:10439000F74800682030407A40084000401CF4494B
:1043A000096820314872F2480068803000680028AF
:1043B00008D101F09BFB0546002D02D02846FFF7EF
:1043C0001FFF00BFFFF7AEFE054601F09BFECEE1EA
:1043D000FFF7E6FE0446002C00DAC8E11B2C05D1ED
:1043E0000121E348006820300172C0E1E048006824
:1043F0002030007A01280DD15B2C05D10221DC4848
:10440000006820300172B2E10021D94800682030F4
:10441000017248E0D64800682030007A022842D174
:104420000021D348006820300172412C00D19EE168
:10443000422C00D19BE1442C13D1CD480068403080
:10444000808F00280CD0CBA001F05CFEC84800682B
:104450004030808F401E81B2C5480068403081875F
:1044600085E1432C1FD1C24800684030818FC0488D
:1044700000684030408F814214DABD480068403007
:10448000828FBB4800682A30815CBBA001F03AFEF5
:10449000B74800684030808F401C81B2B448006843
:1044A0004030818763E1002C01D0FF2C00D15EE118
:1044B000092C1FD1002503E0AEA001F023FE6D1CE6
:1044C000AB4800684030808FA842F5DCA8480068FF
:1044D0002A3003F0C5FAA64800682A30FBF7F1FE3F
:1044E00081B2A348006840304187A148006840304D
:1044F00081873CE17F2C01D0082C72D19C48006858
:104500004030808F002800D131E199480068403068
:10451000408F401E81B296480068403041879448E1
:1045200000684030808F401E81B291480068403062
:1045300081878F4800684030418F8D480068403047
:10454000808F81423FDD8A4B1B6840335E8F884BF2
:104550001B6840339B8FF21A854B1B6840339B8F3F
:104560005B1C834E36682A369919814B1B68403391
:104570009E8F7F4B1B682A33F01801F04EFF0021FD
:104580007B4800684030428F794800682A30815467
:10459000774800684030828F754800682A301118CB
:1045A00076A001F0AFFD724800684030858F03E0CF
:1045B00070A001F0A7FD6D1C6D4800684030408F71
:1045C000A842F5DA0BE06FA001F09CFD00216848DD
:1045D00000684030428F664800682A308154C6E047
:1045E000FFE70D2C01D00A2C2CD101F0A3F80128F3
:1045F00013D15F4800682030407AC007C00F002800
:1046000002D061A001F07EFD594800684030418F22
:10461000574800682A3000F0E3FFFFF783FD0546A6
:1046200001F070FD5021524800682A30FBF711FE5E
:1046300000214F480068403041874D4800684030B5
:10464000818794E04A4800684030408F502804DB5E
:1046500000214748006840304187454800684030A5
:10466000818F434800684030408F814246DA404B9A
:104670001B6840335E8F3E4B1B6840339B8FF21AA2
:104680003B4B1B6840339E8F394B1B682A33F11814
:10469000374B1B6840339B8F5B1C354E36682A3680
:1046A000981901F0BAFE324800684030828F3048D5
:1046B00000682A3084542E4800682030407AC007B1
:1046C000C00F00280AD02A4800684030828F28484E
:1046D00000682A3011182DA001F014FD244800684C
:1046E0004030858F03E023A001F00CFD6D1C2048B5
:1046F00000684030408FA842F5DC13E01C48006899
:104700004030428F1A4800682A30845418480068A4
:104710002030407AC007C00F002803D0214616A0E1
:1047200001F0F0FC0024124800684030408F401C2B
:1047300081B20F480068403041870D480068403022
:10474000808F401C81B20A48006840308187084849
:1047500000684030408F502808DB00210448006882
:1047600040304187024800684030818700BF2FE613
:1047700004010020080000002563000008257320C4
:1047800020080000082008000A000000257300002F
:1047900070B504460D46E1B20648FFF735F800BF94
:1047A0000121C9060348FEF7D7FC0028F8D02046AF
:1047B00070BD00000020004010B502A001F0A2FC76
:1047C000002010BD48656C6C6F2052542D546872E7
:1047D000656164210A00000011E07D20C00002F044
:1047E00093FC012205210620FCF7FCFE7D20C00081
:1047F00002F08AFC002205210620FCF7F3FEECE71C
:1048000010B50DA001F07EFC104804680EE00222F5
:104810000FA12068FBF773FD002800D105E00DA073
:104820006268216801F06EFC00BF0C340D4800681E
:104830008442ECD3002010BD2D2D46756E63746943
:104840006F6E204C6973743A0A000000F400002077
:104850005F5F0000252D313673202D2D2025730A32
:1048600000000000F8000020F0B593B0002729A058
:104870000390082305AA09210DA800F023F91020B0
:10488000049026A0039A049901F03CFC049800F0DF
:10489000CFFF2CA001F036FC00BF0DA9384600F078
:1048A00025F9074600262CE0B00005A90858054662
:1048B000143DFBF71FFC1290287C8021884308A937
:1048C000097F884203D01298FBF718FC18E0129871
:1048D000FBF714FC2C462220015D207F152804DC08
:1048E000207F8000204A105801E01F48406D234679
:1048F0001022019100901DA0049901F003FC00BF5B
:10490000761C1198B042CFDC002FC6D1002013B026
:10491000F0BD00006465766963650000252D2A2ED0
:1049200073202020202020202020747970652020F2
:104930002020202020202072656620636F756E7411
:104940000A000000202D2D2D2D2D2D2D2D2D2D2D4E
:104950002D2D2D2D2D2D2D2D2D202D2D2D2D2D2D94
:104960002D2D2D2D0A000000C07C0000252D2A2EA3
:104970002A7320252D32307320252D38640A00003B
:10498000F0B593B0002731A00390082305AA0421B5
:104990000DA800F097F8102004902EA0039A049917
:1049A00001F0B0FB049800F043FF33A001F0AAFB34
:1049B00000BF0DA9384600F099F8074600253CE0F5
:1049C000A80005A908580646143EFBF793FB129071
:1049D000307C8021884308A9097F884203D012983F
:1049E000FBF78CFB28E01298FBF788FB3446204647
:1049F0001C3001F0E2FB002815D120461C3001F0EC
:104A0000F4FB0290616A234610220091019022A0DB
:104A1000049901F077FB20461C3003F03DF815A007
:104A200001F070FB07E0606A23461022009020A08E
:104A3000049901F067FB00BF6D1C1198A842BFDC10
:104A4000002FB6D1002013B0F0BD00006576656E72
:104A500074000000252D2A2E732020202020207392
:104A600065742020202073757370656E64207468EF
:104A7000726561640A00000020202D2D2D2D2D2D42
:104A80002D2D2D2D202D2D2D2D2D2D2D2D2D2D2D63
:104A90002D2D2D0A00000000252D2A2E2A732020FE
:104AA00030782530387820253033643A0000000013
:104AB000252D2A2E2A732020307825303878203072
:104AC0000A000000FEB504460D4616461F4628465D
:104AD00001F032FF01900198001D009000982060C5
:104AE00025726660E76000202061FEBDF0B585B0EC
:104AF00007460C46002004902061E068002802D0A0
:104B0000207A002802D1002005B0F0BD2068029074
:104B1000002F03D1029D0120049000E03D46FBF7E9
:104B2000E9FA0390049800280FD128461438009021
:104B30000098007C80218843217A884204D0039821
:104B4000FBF7DCFA0020DFE700BF00266068019079
:104B50000FE02D680298854201D100250AE0761CFD
:104B6000019805600198001D0190E068B04200D1F5
:104B700000E0EEE700BF0398FBF7C0FA2661284685
:104B8000C2E70000F0B595B0002736A005900823D5
:104B900007AA05210FA8FFF795FF1020069033A064
:104BA000059A069901F0AEFA069800F041FE38A089
:104BB00001F0A8FA00BF0FA93846FFF797FF074694
:104BC000002546E0A80007A908580646143EFBF752
:104BD00091FA1490307C8021884310A90979884289
:104BE00003D01498FBF78AFA32E01498FBF786FAA0
:104BF000344620461C3001F0E0FA002817D1204648
:104C00001C3001F0F2FA0490218D628D234600924F
:104C100001910290102225A0069901F073FA204616
:104C20001C3002F039FF27A001F06CFA0FE020469B
:104C30001C3001F0DAFA0490218D628D2346009237
:104C400001910290102220A0069901F05BFA00BFAA
:104C50006D1C1398A842B5DC002FACD1002015B014
:104C6000F0BD00006D61696C626F7800252D2A2E01
:104C70007320656E7472792073697A652073757319
:104C800070656E64207468726561640A00000000DB
:104C9000202D2D2D2D20202D2D2D2D202D2D2D2D78
:104CA0002D2D2D2D2D2D2D2D2D2D0A00252D2A2E8E
:104CB0002A73202530346420202530346420256474
:104CC0003A0000000A000000252D2A2E2A73202514
:104CD0003034642020253034642025640A0000002C
:104CE00010B50848016808A001F00CFA0B480168EB
:104CF0000BA001F007FA0F4801680FA001F002FABB
:104D000010BD000044010020746F74616C206D655B
:104D10006D6F72793A2025640A0000004801002076
:104D200075736564206D656D6F7279203A20256416
:104D30000A0000004C0100206D6178696D756D20DE
:104D4000616C6C6F6361746564206D656D6F727901
:104D50003A2025640A000000F0B593B0002734A083
:104D60000390082305AA06210DA8FFF7ABFE10202B
:104D7000049032A0039A049901F0C4F9049800F059
:104D800057FD35A001F0BEF900BF0DA93846FFF769
:104D9000ADFE0746002542E0A80005A908580646D2
:104DA000143EFBF7A7F91290307C8021884308A9B4
:104DB000097F884203D01298FBF7A0F92EE01298E1
:104DC000FBF79CF9344620461C3001F0F6F9002828
:104DD00015D120461C3001F008FA0290A18D23461F
:104DE00010220091019022A0049901F08BF9204635
:104DF0001C3002F051FE23A001F084F90DE02046A2
:104E00001C3001F0F2F90290A18D2346102200918E
:104E100001901DA0049901F075F900BF6D1C119857
:104E2000A842B9DC002FB0D1002013B0F0BD0000C3
:104E30006D7367717565756500000000252D2A2E5C
:104E40007320656E7472792073757370656E64205B
:104E50007468726561640A00202D2D2D2D20202D8F
:104E60002D2D2D2D2D2D2D2D2D2D2D2D2D0A0000EF
:104E7000252D2A2E2A732025303464202025643ADB
:104E8000000000000A000000252D2A2E2A7320258C
:104E9000303464202025640A00000000F0B595B08D
:104EA000002729A00590082307AA03210FA8FFF7D0
:104EB00009FE1020069026A0059A069901F022F915
:104EC000069800F0B5FC2BA001F01CF900BF0FA95B
:104ED0003846FFF70BFE074600262CE0B00007A976
:104EE00008580446143CFBF705F91490207C8021F7
:104EF000884310A90979884203D01498FBF7FEF87B
:104F000018E01498FBF7FAF8254628461C3001F003
:104F10006CF92C4627210490495D1023AA6A00935E
:104F20000192029103902B4610221AA0069901F0DB
:104F3000E9F800BF761C1398B042CFDC002FC6D131
:104F4000002015B0F0BD00006D757465780000009C
:104F5000252D2A2E732020206F776E657220206801
:104F60006F6C642073757370656E6420746872650D
:104F700061640A00202D2D2D2D2D2D2D2D202D2D60
:104F80002D2D202D2D2D2D2D2D2D2D2D2D2D2D2D5E
:104F90002D0A0000252D2A2E2A7320252D382E2A91
:104FA0007320253034642025640A0000F0B593B0E6
:104FB000002734A00390082305AA02210DA8FFF7BB
:104FC00081FD1020049032A0039A049901F09AF810
:104FD000049800F02DFC35A001F094F800BF0DA955
:104FE0003846FFF783FD0746002542E0A80005A9E3
:104FF00008580646143EFBF77DF81290307C80215D
:10500000884308A9097F884203D01298FBF776F8F5
:105010002EE01298FBF772F8344620461C3001F05F
:10502000CCF8002815D120461C3001F0DEF80290A3
:10503000A18C234610220091019022A0049901F036
:1050400061F820461C3002F027FD17A001F05AF845
:105050000DE020461C3001F0C8F80290A18C2346D8
:105060001022009101901BA0049901F04BF800BFA1
:105070006D1C1198A842B9DC002FB0D1002013B0EC
:10508000F0BD000073656D6170686F7265000000AF
:10509000252D2A2E73207620202073757370656E5F
:1050A00064207468726561640A000000202D2D2D53
:1050B000202D2D2D2D2D2D2D2D2D2D2D2D2D2D0A50
:1050C00000000000252D2A2E2A732025303364206D
:1050D00025643A00252D2A2E2A732025303364209A
:1050E00025640A00F0B5BBB000202C9049A02B909D
:1050F00008232DAA012135A8FFF7E4FC10202A90EF
:1051000046482B9A2A9900F0FDFF2A9800F090FB60
:1051100043A000F0F7FF00BF35A92C98FFF7E6FC8D
:105120002C90002029906BE0299880002DA9085828
:105130000546143DFAF7DEFF3A90287C802188432B
:1051400030A9097F884203D03A98FAF7D7FF54E094
:105150009022294605A8FBF763F83A98FAF7CEFFA4
:105160002C463D20005D2346102200903CA02A9949
:1051700000F0C8FF3C20005D0607360F012E03D16A
:105180003AA000F0BFFF16E0022E03D13AA000F0D3
:10519000B9FF10E0002E03D13AA000F0B3FF0AE0FF
:1051A000042E03D13AA000F0ADFF04E0032E02D19B
:1051B0003AA000F0A7FF276B00E07F1C3878232877
:1051C000FBD0236BFB1A626BD21A64235A4310463E
:1051D000616BFAF7FBFF0490A16B206D01910090C9
:1051E000616A206B401A616B40180390626B014644
:1051F0002DA0049B00F086FF00BF2998401C299039
:105200003999299881428FDC2C98002884D13BB0B1
:10521000F0BD00007468726561640000847E000067
:10522000202D2D2D20202D2D2D2D2D2D2D202D2DE2
:105230002D2D2D2D2D2D2D2D202D2D2D2D2D2D2DAB
:105240002D2D2D20202D2D2D2D2D2D20202D2D2DC2
:105250002D2D2D2D2D2D2D202D2D2D0A0000000062
:10526000252D2A2E2A7320253364200020726561A3
:1052700064792020000000002073757370656E64EF
:105280000000000020696E697420202000000000EA
:1052900020636C6F73652020000000002072756E23
:1052A0006E696E6700000000203078253038782065
:1052B000307825303878202020202530326425258C
:1052C00020202030782530387820253033640A00BB
:1052D000F0B593B000272DA00390082305AA0A215A
:1052E0000DA8FFF7EFFB102004902AA0039A049961
:1052F00000F008FF049800F09BFA30A000F002FFD5
:1053000000BF0DA93846FFF7F1FB074600262EE047
:10531000B00005A908580446143CFAF7EBFE1290B9
:10532000207C8021884308A9097F884203D01298F5
:10533000FAF7E4FE1AE01298FAF7E0FE2546296B28
:10534000E86A2B4610220191009025A0049900F0F4
:10535000D9FE687CC007C00F002803D026A000F04B
:10536000D1FE02E027A000F0CDFE00BF761C119810
:10537000B042CDDC002FC4D101F0CAFF0446214663
:1053800024A000F0BFFE002013B0F0BD74696D656D
:1053900072000000252D2A2E732020706572696F1F
:1053A00064696320202074696D656F757420202006
:1053B00020202020666C61670A000000202D2D2D22
:1053C0002D2D2D2D2D2D2D202D2D2D2D2D2D2D2D1A
:1053D0002D2D202D2D2D2D2D2D2D2D2D2D2D0A005A
:1053E000252D2A2E2A7320307825303878203078E1
:1053F0002530387820000000616374697661746537
:10540000640A000064656163746976617465640AA6
:105410000000000063757272656E74207469636BBE
:105420003A3078253038780A00000000FDF720FC7B
:1054300011E0FF20F53001F067FE01220421062073
:10544000FCF7D0F8FF20F53001F05EFE00220421C9
:105450000620FCF7C7F8ECE710B5044600F038FB6F
:10546000FFF7E4FF10BD000008B5002422E0002390
:10547000DB43012269461048006801F057F80446F2
:10548000002C13D168460078012802D0022808D1E8
:1054900003E00AA000F036FE07E012A000F032FEA2
:1054A00003E01AA000F02EFE00BF03E021461BA07F
:1054B00000F028FEDBE700000C0000205265636569
:1054C000697665206D6573736167653A4B4559313F
:1054D0002850312E30292069732070726573730A49
:1054E0000A00000052656365697665206D65737317
:1054F0006167653A4B4559322850312E7829206929
:10550000732070726573730A0A0000004E6F204D9D
:10551000657373616765210A0A000000CAFDBEDD7C
:10552000BDD3CAD5B4EDCEF3A3ACB4EDCEF3B4FA8B
:10553000C2EBA3BA3078256C780A0A00F1B582B0C4
:105540000026002702980078002804D10021084690
:1055500000F0B0F8FEBD1D4804682AE006221CA138
:105560002068FAF7CCFE002800D021E02068801DDA
:1055700001900298FAF7A5FE024600900199029860
:10558000FAF7BDFE002812D1002E04D1019F384643
:10559000FAF797FE06463846019902F0A7FA054643
:1055A000B54200DA2E460CA0019900F0ABFD00BF19
:1055B0000C340A4800688442D0D3002F04D032460D
:1055C0003946029801F0ECFB00BFC3E7F40000206D
:1055D0005F5F636D645F000025730A00F8000020C0
:1055E00038B504460D4601E0641C6D1E002D05D043
:1055F00020782028F8D020780928F5D0002D01D176
:10560000002038BD6A4629462046FEF720FA0028C9
:1056100001D10098F5E7204600E0401C01782029E0
:1056200002D001780029F8D100210170214603A0A1
:1056300000F068FD0020C043E3E7000025733A2036
:10564000636F6D6D616E64206E6F7420666F756E32
:10565000642E0A00F8B506460D4600271148046876
:1056600018E0062210A12068FAF749FE002800D0B1
:105670000FE02168881D2A463146FAF740FE0028CF
:1056800006D1A81D2168085C002801D1A76805E0A3
:1056900000BF0C34064800688442E2D300BF38469D
:1056A000F8BD0000F40000205F5F636D645F0000E0
:1056B000F800002070B505460E460FA000F022FD50
:1056C000144804680FE0062213A12068FAF717FEB9
:1056D000002800D006E02068811D11A0626800F05B
:1056E00011FD00BF0C34114800688442EBD310A0B8
:1056F00000F008FD002070BD52542D5468726561A1
:1057000064207368656C6C20636F6D6D616E64738B
:105710003A0A0000F40000205F5F636D645F0000E0
:10572000252D313673202D2025730A00F800002026
:105730000A00000001207047F7B582B00E46029CB7
:10574000002500275BE003E000202070641C6D1C36
:105750002078202802D02078092801D1B542F3D33F
:10576000082F16D329A000F0CDFC0020019009E0FD
:1057700001988200049881582CA000F0C3FC019885
:10578000401C01900198B842F2D327A000F0BAFC67
:1057900037E0B54200D334E0207822281DD1641CC4
:1057A0006D1CB900049844507F1C09E020785C28E7
:1057B00004D16078222801D1641C6D1C641C6D1C0E
:1057C0002078222801D0B542F0D3B54200D318E0AA
:1057D00000202070641C6D1C11E0B9000498445036
:1057E0007F1C01E0641C6D1C2078202804D02078E8
:1057F000092801D0B542F5D3B54200D301E0B54246
:10580000A1D300BF384605B0F0BD0000546F6F2033
:105810006D616E7920617267732021205765206F5A
:105820006E6C79205573653A0A00000025732000DC
:1058300010B5044602E004A000F064FC2046641E9B
:105840000028F8D110BD00002D00000030B51B4C21
:10585000436824681919884216D04B88002B13D14D
:10586000174B1B6899420FD0164B1B688B4201D116
:10587000144B18604B684360104B1B68C31A0F4DE4
:105880004C682D686419A3600C4C836824681A194D
:10589000824212D05388002B0FD10A4B1B688342DF
:1058A00001D1084B1A6043685360044B1B68D41A3B
:1058B000024D43682D685B199C6030BD38010020A3
:1058C0003C01002040010020FFB58BB00446154686
:1058D000169E15980490149802904020304000289D
:1058E00001D05C4800E05C48039010203040002864
:1058F00001D076087600F007C00F002801D03020D4
:1059000000E020200A90002009900220304000286A
:1059100012D0002D03DA2D2009906D420CE00420F6
:105920003040002802D02B20099005E008203040AC
:10593000002801D0202009900027002D05D1302219
:1059400038467F1C05A90A541DE01AE00E98019004
:1059500001980A280AD128460A21FAF737FC009153
:1059600028460A21FAF732FC054603E02807000F13
:1059700000902D09009803990A5C38467F1C05A900
:105980000A54002DE2D11598874200DD159715992C
:105990000298401A029011203040002814D1099832
:1059A000002805D00298002802DD0298401E0290CF
:1059B00005E00C98844201D220202070641C0298DB
:1059C000411E02910028F4DC0998002808D00C98A8
:1059D000844201D2099820700298401E0290641CF3
:1059E0001020304000280BD105E00C98844201D2F1
:1059F0000A982070641C0298411E02910028F4DC71
:105A000005E00C98844201D230202070641C159867
:105A1000411E1591B842F4DC06E00C98844202D293
:105A200005A8C05D2070641C38467F1E002802DD7A
:105A300004980028F1D105E00C98844201D220207E
:105A40002070641C0298411E02910028F4DC20465C
:105A50000FB0F0BD297E0000187E00001CB5142098
:105A60000A2101235B02002200910190044905A054
:105A700001F079FA0446204601F0A2FB1CBD0000AB
:105A8000595400006D61696E0000000070B5044655
:105A90000D4621466943084600F0CCFB0646002E21
:105AA00006D02046684302460021304600F0D6FC6E
:105AB000304670BD10B5044C02E020688047241DBC
:105AC00002488442F9D310BDDC830000E483000067
:105AD00010B5044C02E020688047241D024884422F
